{
  "contractName": "NFTMarketplace",
  "abi": [
    {
      "inputs": [
        {
          "internalType": "string",
          "name": "name",
          "type": "string"
        },
        {
          "internalType": "string",
          "name": "symbol",
          "type": "string"
        },
        {
          "internalType": "uint256",
          "name": "percentage",
          "type": "uint256"
        }
      ],
      "stateMutability": "nonpayable",
      "type": "constructor"
    },
    {
      "anonymous": false,
      "inputs": [
        {
          "indexed": true,
          "internalType": "address",
          "name": "owner",
          "type": "address"
        },
        {
          "indexed": true,
          "internalType": "address",
          "name": "approved",
          "type": "address"
        },
        {
          "indexed": true,
          "internalType": "uint256",
          "name": "tokenId",
          "type": "uint256"
        }
      ],
      "name": "Approval",
      "type": "event"
    },
    {
      "anonymous": false,
      "inputs": [
        {
          "indexed": true,
          "internalType": "address",
          "name": "owner",
          "type": "address"
        },
        {
          "indexed": true,
          "internalType": "address",
          "name": "operator",
          "type": "address"
        },
        {
          "indexed": false,
          "internalType": "bool",
          "name": "approved",
          "type": "bool"
        }
      ],
      "name": "ApprovalForAll",
      "type": "event"
    },
    {
      "anonymous": false,
      "inputs": [
        {
          "indexed": true,
          "internalType": "address",
          "name": "previousOwner",
          "type": "address"
        },
        {
          "indexed": true,
          "internalType": "address",
          "name": "newOwner",
          "type": "address"
        }
      ],
      "name": "OwnershipTransferred",
      "type": "event"
    },
    {
      "anonymous": false,
      "inputs": [
        {
          "indexed": true,
          "internalType": "address",
          "name": "from",
          "type": "address"
        },
        {
          "indexed": true,
          "internalType": "address",
          "name": "to",
          "type": "address"
        },
        {
          "indexed": true,
          "internalType": "uint256",
          "name": "tokenId",
          "type": "uint256"
        }
      ],
      "name": "Transfer",
      "type": "event"
    },
    {
      "inputs": [
        {
          "internalType": "address",
          "name": "to",
          "type": "address"
        },
        {
          "internalType": "uint256",
          "name": "tokenId",
          "type": "uint256"
        }
      ],
      "name": "approve",
      "outputs": [],
      "stateMutability": "nonpayable",
      "type": "function"
    },
    {
      "inputs": [
        {
          "internalType": "address",
          "name": "owner",
          "type": "address"
        }
      ],
      "name": "balanceOf",
      "outputs": [
        {
          "internalType": "uint256",
          "name": "",
          "type": "uint256"
        }
      ],
      "stateMutability": "view",
      "type": "function",
      "constant": true
    },
    {
      "inputs": [
        {
          "internalType": "uint256",
          "name": "tokenId",
          "type": "uint256"
        }
      ],
      "name": "getApproved",
      "outputs": [
        {
          "internalType": "address",
          "name": "",
          "type": "address"
        }
      ],
      "stateMutability": "view",
      "type": "function",
      "constant": true
    },
    {
      "inputs": [
        {
          "internalType": "uint256",
          "name": "",
          "type": "uint256"
        }
      ],
      "name": "idToToken",
      "outputs": [
        {
          "internalType": "uint256",
          "name": "id",
          "type": "uint256"
        },
        {
          "internalType": "address",
          "name": "owner",
          "type": "address"
        },
        {
          "internalType": "string",
          "name": "name",
          "type": "string"
        },
        {
          "internalType": "uint256",
          "name": "price",
          "type": "uint256"
        },
        {
          "internalType": "string",
          "name": "description",
          "type": "string"
        },
        {
          "internalType": "bool",
          "name": "is_listed",
          "type": "bool"
        }
      ],
      "stateMutability": "view",
      "type": "function",
      "constant": true
    },
    {
      "inputs": [
        {
          "internalType": "address",
          "name": "owner",
          "type": "address"
        },
        {
          "internalType": "address",
          "name": "operator",
          "type": "address"
        }
      ],
      "name": "isApprovedForAll",
      "outputs": [
        {
          "internalType": "bool",
          "name": "",
          "type": "bool"
        }
      ],
      "stateMutability": "view",
      "type": "function",
      "constant": true
    },
    {
      "inputs": [],
      "name": "name",
      "outputs": [
        {
          "internalType": "string",
          "name": "",
          "type": "string"
        }
      ],
      "stateMutability": "view",
      "type": "function",
      "constant": true
    },
    {
      "inputs": [],
      "name": "owner",
      "outputs": [
        {
          "internalType": "address",
          "name": "",
          "type": "address"
        }
      ],
      "stateMutability": "view",
      "type": "function",
      "constant": true
    },
    {
      "inputs": [
        {
          "internalType": "uint256",
          "name": "tokenId",
          "type": "uint256"
        }
      ],
      "name": "ownerOf",
      "outputs": [
        {
          "internalType": "address",
          "name": "",
          "type": "address"
        }
      ],
      "stateMutability": "view",
      "type": "function",
      "constant": true
    },
    {
      "inputs": [],
      "name": "renounceOwnership",
      "outputs": [],
      "stateMutability": "nonpayable",
      "type": "function"
    },
    {
      "inputs": [
        {
          "internalType": "address",
          "name": "from",
          "type": "address"
        },
        {
          "internalType": "address",
          "name": "to",
          "type": "address"
        },
        {
          "internalType": "uint256",
          "name": "tokenId",
          "type": "uint256"
        }
      ],
      "name": "safeTransferFrom",
      "outputs": [],
      "stateMutability": "nonpayable",
      "type": "function"
    },
    {
      "inputs": [
        {
          "internalType": "address",
          "name": "from",
          "type": "address"
        },
        {
          "internalType": "address",
          "name": "to",
          "type": "address"
        },
        {
          "internalType": "uint256",
          "name": "tokenId",
          "type": "uint256"
        },
        {
          "internalType": "bytes",
          "name": "data",
          "type": "bytes"
        }
      ],
      "name": "safeTransferFrom",
      "outputs": [],
      "stateMutability": "nonpayable",
      "type": "function"
    },
    {
      "inputs": [
        {
          "internalType": "address",
          "name": "operator",
          "type": "address"
        },
        {
          "internalType": "bool",
          "name": "approved",
          "type": "bool"
        }
      ],
      "name": "setApprovalForAll",
      "outputs": [],
      "stateMutability": "nonpayable",
      "type": "function"
    },
    {
      "inputs": [
        {
          "internalType": "bytes4",
          "name": "interfaceId",
          "type": "bytes4"
        }
      ],
      "name": "supportsInterface",
      "outputs": [
        {
          "internalType": "bool",
          "name": "",
          "type": "bool"
        }
      ],
      "stateMutability": "view",
      "type": "function",
      "constant": true
    },
    {
      "inputs": [],
      "name": "symbol",
      "outputs": [
        {
          "internalType": "string",
          "name": "",
          "type": "string"
        }
      ],
      "stateMutability": "view",
      "type": "function",
      "constant": true
    },
    {
      "inputs": [
        {
          "internalType": "uint256",
          "name": "tokenId",
          "type": "uint256"
        }
      ],
      "name": "tokenURI",
      "outputs": [
        {
          "internalType": "string",
          "name": "",
          "type": "string"
        }
      ],
      "stateMutability": "view",
      "type": "function",
      "constant": true
    },
    {
      "inputs": [
        {
          "internalType": "address",
          "name": "from",
          "type": "address"
        },
        {
          "internalType": "address",
          "name": "to",
          "type": "address"
        },
        {
          "internalType": "uint256",
          "name": "tokenId",
          "type": "uint256"
        }
      ],
      "name": "transferFrom",
      "outputs": [],
      "stateMutability": "nonpayable",
      "type": "function"
    },
    {
      "inputs": [
        {
          "internalType": "address",
          "name": "newOwner",
          "type": "address"
        }
      ],
      "name": "transferOwnership",
      "outputs": [],
      "stateMutability": "nonpayable",
      "type": "function"
    },
    {
      "inputs": [
        {
          "internalType": "address",
          "name": "",
          "type": "address"
        }
      ],
      "name": "userFunds",
      "outputs": [
        {
          "internalType": "uint256",
          "name": "",
          "type": "uint256"
        }
      ],
      "stateMutability": "view",
      "type": "function",
      "constant": true
    },
    {
      "inputs": [
        {
          "internalType": "uint256",
          "name": "id",
          "type": "uint256"
        }
      ],
      "name": "getNFT",
      "outputs": [
        {
          "components": [
            {
              "internalType": "uint256",
              "name": "id",
              "type": "uint256"
            },
            {
              "internalType": "address",
              "name": "owner",
              "type": "address"
            },
            {
              "internalType": "string",
              "name": "name",
              "type": "string"
            },
            {
              "internalType": "uint256",
              "name": "price",
              "type": "uint256"
            },
            {
              "internalType": "string",
              "name": "description",
              "type": "string"
            },
            {
              "internalType": "bool",
              "name": "is_listed",
              "type": "bool"
            }
          ],
          "internalType": "struct NFTMarketplace.NFT",
          "name": "",
          "type": "tuple"
        }
      ],
      "stateMutability": "view",
      "type": "function",
      "constant": true
    },
    {
      "inputs": [],
      "name": "mintNFT",
      "outputs": [
        {
          "internalType": "uint256",
          "name": "",
          "type": "uint256"
        }
      ],
      "stateMutability": "nonpayable",
      "type": "function"
    },
    {
      "inputs": [
        {
          "internalType": "uint256",
          "name": "id",
          "type": "uint256"
        },
        {
          "internalType": "string",
          "name": "name",
          "type": "string"
        },
        {
          "internalType": "string",
          "name": "description",
          "type": "string"
        }
      ],
      "name": "createNFT",
      "outputs": [
        {
          "internalType": "uint256",
          "name": "",
          "type": "uint256"
        }
      ],
      "stateMutability": "payable",
      "type": "function",
      "payable": true
    },
    {
      "inputs": [
        {
          "internalType": "uint256",
          "name": "id",
          "type": "uint256"
        },
        {
          "internalType": "address",
          "name": "toAddress",
          "type": "address"
        }
      ],
      "name": "transferNFT",
      "outputs": [],
      "stateMutability": "payable",
      "type": "function",
      "payable": true
    },
    {
      "inputs": [
        {
          "internalType": "uint256",
          "name": "id",
          "type": "uint256"
        },
        {
          "internalType": "uint256",
          "name": "price",
          "type": "uint256"
        }
      ],
      "name": "listNFTForSale",
      "outputs": [],
      "stateMutability": "nonpayable",
      "type": "function"
    },
    {
      "inputs": [
        {
          "internalType": "uint256",
          "name": "id",
          "type": "uint256"
        }
      ],
      "name": "removeNFTFromSale",
      "outputs": [],
      "stateMutability": "nonpayable",
      "type": "function"
    },
    {
      "inputs": [
        {
          "internalType": "uint256",
          "name": "id",
          "type": "uint256"
        }
      ],
      "name": "purchaseNFT",
      "outputs": [],
      "stateMutability": "payable",
      "type": "function",
      "payable": true
    }
  ],
  "bytecode": "0x60806040523480156200001157600080fd5b50604051620047fa380380620047fa833981810160405281019062000037919062000434565b8282816000908051906020019062000051929190620001ac565b5080600190805190602001906200006a929190620001ac565b5050506200008d62000081620000de60201b60201c565b620000e660201b60201c565b8060098190555033600860006101000a81548173ffffffffffffffffffffffffffffffffffffffff021916908373ffffffffffffffffffffffffffffffffffffffff16021790555050505062000532565b600033905090565b6000600660009054906101000a900473ffffffffffffffffffffffffffffffffffffffff16905081600660006101000a81548173ffffffffffffffffffffffffffffffffffffffff021916908373ffffffffffffffffffffffffffffffffffffffff1602179055508173ffffffffffffffffffffffffffffffffffffffff168173ffffffffffffffffffffffffffffffffffffffff167f8be0079c531659141344cd1fd0a4f28419497f9722a3daafe3b4186f6b6457e060405160405180910390a35050565b828054620001ba90620004fd565b90600052602060002090601f016020900481019282620001de57600085556200022a565b82601f10620001f957805160ff19168380011785556200022a565b828001600101855582156200022a579182015b82811115620002295782518255916020019190600101906200020c565b5b5090506200023991906200023d565b5090565b5b80821115620002585760008160009055506001016200023e565b5090565b6000604051905090565b600080fd5b600080fd5b600080fd5b600080fd5b6000601f19601f8301169050919050565b7f4e487b7100000000000000000000000000000000000000000000000000000000600052604160045260246000fd5b620002c5826200027a565b810181811067ffffffffffffffff82111715620002e757620002e66200028b565b5b80604052505050565b6000620002fc6200025c565b90506200030a8282620002ba565b919050565b600067ffffffffffffffff8211156200032d576200032c6200028b565b5b62000338826200027a565b9050602081019050919050565b60005b838110156200036557808201518184015260208101905062000348565b8381111562000375576000848401525b50505050565b6000620003926200038c846200030f565b620002f0565b905082815260208101848484011115620003b157620003b062000275565b5b620003be84828562000345565b509392505050565b600082601f830112620003de57620003dd62000270565b5b8151620003f08482602086016200037b565b91505092915050565b6000819050919050565b6200040e81620003f9565b81146200041a57600080fd5b50565b6000815190506200042e8162000403565b92915050565b60008060006060848603121562000450576200044f62000266565b5b600084015167ffffffffffffffff8111156200047157620004706200026b565b5b6200047f86828701620003c6565b935050602084015167ffffffffffffffff811115620004a357620004a26200026b565b5b620004b186828701620003c6565b9250506040620004c4868287016200041d565b9150509250925092565b7f4e487b7100000000000000000000000000000000000000000000000000000000600052602260045260246000fd5b600060028204905060018216806200051657607f821691505b6020821081036200052c576200052b620004ce565b5b50919050565b6142b880620005426000396000f3fe6080604052600436106101665760003560e01c8063715018a6116100d1578063a22cb4651161008a578063c87b56dd11610064578063c87b56dd14610523578063e985e9c514610560578063f2fde38b1461059d578063f5c6b96b146105c657610166565b8063a22cb465146104a8578063b2733b39146104d1578063b88d4fde146104fa57610166565b8063715018a6146103b95780638387c6e1146103d05780638da5cb5b1461040d5780639036c0501461043857806395d89b4114610454578063a02e51071461047f57610166565b8063150bde0311610123578063150bde031461029457806323b872dd146102b057806342842e0e146102d9578063576f7ea7146103025780636352211e1461033f57806370a082311461037c57610166565b806301ffc9a71461016b57806304366881146101a857806306fdde03146101d8578063081812fc14610203578063095ea7b31461024057806314f710fe14610269575b600080fd5b34801561017757600080fd5b50610192600480360381019061018d9190612bb9565b610608565b60405161019f9190612c01565b60405180910390f35b6101c260048036038101906101bd9190612d98565b6106ea565b6040516101cf9190612e32565b60405180910390f35b3480156101e457600080fd5b506101ed61082b565b6040516101fa9190612ed5565b60405180910390f35b34801561020f57600080fd5b5061022a60048036038101906102259190612ef7565b6108bd565b6040516102379190612f65565b60405180910390f35b34801561024c57600080fd5b5061026760048036038101906102629190612fac565b610903565b005b34801561027557600080fd5b5061027e610a1a565b60405161028b9190612e32565b60405180910390f35b6102ae60048036038101906102a99190612ef7565b610bc1565b005b3480156102bc57600080fd5b506102d760048036038101906102d29190612fec565b610ec4565b005b3480156102e557600080fd5b5061030060048036038101906102fb9190612fec565b610f24565b005b34801561030e57600080fd5b5061032960048036038101906103249190612ef7565b610f44565b6040516103369190613146565b60405180910390f35b34801561034b57600080fd5b5061036660048036038101906103619190612ef7565b61111a565b6040516103739190612f65565b60405180910390f35b34801561038857600080fd5b506103a3600480360381019061039e9190613168565b6111a0565b6040516103b09190612e32565b60405180910390f35b3480156103c557600080fd5b506103ce611257565b005b3480156103dc57600080fd5b506103f760048036038101906103f29190613168565b61126b565b6040516104049190612e32565b60405180910390f35b34801561041957600080fd5b50610422611283565b60405161042f9190612f65565b60405180910390f35b610452600480360381019061044d9190613195565b6112ad565b005b34801561046057600080fd5b50610469611414565b6040516104769190612ed5565b60405180910390f35b34801561048b57600080fd5b506104a660048036038101906104a19190612ef7565b6114a6565b005b3480156104b457600080fd5b506104cf60048036038101906104ca9190613201565b611607565b005b3480156104dd57600080fd5b506104f860048036038101906104f39190613241565b61161d565b005b34801561050657600080fd5b50610521600480360381019061051c9190613322565b6117cc565b005b34801561052f57600080fd5b5061054a60048036038101906105459190612ef7565b61182e565b6040516105579190612ed5565b60405180910390f35b34801561056c57600080fd5b50610587600480360381019061058291906133a5565b611896565b6040516105949190612c01565b60405180910390f35b3480156105a957600080fd5b506105c460048036038101906105bf9190613168565b61192a565b005b3480156105d257600080fd5b506105ed60048036038101906105e89190612ef7565b6119ad565b6040516105ff969594939291906133e5565b60405180910390f35b60007f80ac58cd000000000000000000000000000000000000000000000000000000007bffffffffffffffffffffffffffffffffffffffffffffffffffffffff1916827bffffffffffffffffffffffffffffffffffffffffffffffffffffffff191614806106d357507f5b5e139f000000000000000000000000000000000000000000000000000000007bffffffffffffffffffffffffffffffffffffffffffffffffffffffff1916827bffffffffffffffffffffffffffffffffffffffffffffffffffffffff1916145b806106e357506106e282611b26565b5b9050919050565b60006106f66007611b90565b60006107026007611ba6565b905061070e3386611bb4565b6040518060c001604052808681526020013373ffffffffffffffffffffffffffffffffffffffff1681526020018581526020016000815260200184815260200160001515815250600a60008781526020019081526020016000206000820151816000015560208201518160010160006101000a81548173ffffffffffffffffffffffffffffffffffffffff021916908373ffffffffffffffffffffffffffffffffffffffff16021790555060408201518160020190805190602001906107d5929190612a5c565b506060820151816003015560808201518160040190805190602001906107fc929190612a5c565b5060a08201518160050160006101000a81548160ff021916908315150217905550905050809150509392505050565b60606000805461083a90613483565b80601f016020809104026020016040519081016040528092919081815260200182805461086690613483565b80156108b35780601f10610888576101008083540402835291602001916108b3565b820191906000526020600020905b81548152906001019060200180831161089657829003601f168201915b5050505050905090565b60006108c882611bd2565b6004600083815260200190815260200160002060009054906101000a900473ffffffffffffffffffffffffffffffffffffffff169050919050565b600061090e8261111a565b90508073ffffffffffffffffffffffffffffffffffffffff168373ffffffffffffffffffffffffffffffffffffffff160361097e576040517f08c379a000000000000000000000000000000000000000000000000000000000815260040161097590613526565b60405180910390fd5b8073ffffffffffffffffffffffffffffffffffffffff1661099d611c1d565b73ffffffffffffffffffffffffffffffffffffffff1614806109cc57506109cb816109c6611c1d565b611896565b5b610a0b576040517f08c379a0000000000000000000000000000000000000000000000000000000008152600401610a02906135b8565b60405180910390fd5b610a158383611c25565b505050565b6000610a266007611b90565b6000610a326007611ba6565b9050610a3e3382611bb4565b6040518060c001604052808281526020013373ffffffffffffffffffffffffffffffffffffffff1681526020016040518060400160405280600481526020017f4e554c4c000000000000000000000000000000000000000000000000000000008152508152602001600081526020016040518060400160405280600481526020017f4e554c4c00000000000000000000000000000000000000000000000000000000815250815260200160001515815250600a60008381526020019081526020016000206000820151816000015560208201518160010160006101000a81548173ffffffffffffffffffffffffffffffffffffffff021916908373ffffffffffffffffffffffffffffffffffffffff1602179055506040820151816002019080519060200190610b6f929190612a5c565b50606082015181600301556080820151816004019080519060200190610b96929190612a5c565b5060a08201518160050160006101000a81548160ff0219169083151502179055509050508091505090565b6000600a600083815260200190815260200160002090508060050160009054906101000a900460ff16610c29576040517f08c379a0000000000000000000000000000000000000000000000000000000008152600401610c209061364a565b60405180910390fd5b81816000015414610c6f576040517f08c379a0000000000000000000000000000000000000000000000000000000008152600401610c66906136b6565b60405180910390fd5b3373ffffffffffffffffffffffffffffffffffffffff168160010160009054906101000a900473ffffffffffffffffffffffffffffffffffffffff1673ffffffffffffffffffffffffffffffffffffffff1603610d01576040517f08c379a0000000000000000000000000000000000000000000000000000000008152600401610cf890613748565b60405180910390fd5b8060030154341015610d48576040517f08c379a0000000000000000000000000000000000000000000000000000000008152600401610d3f906137da565b60405180910390fd5b60008160010160009054906101000a900473ffffffffffffffffffffffffffffffffffffffff1690506000826003015490506000606460095483610d8c9190613829565b610d9691906138b2565b90508273ffffffffffffffffffffffffffffffffffffffff166108fc839081150290604051600060405180830381858888f19350505050158015610dde573d6000803e3d6000fd5b50600860009054906101000a900473ffffffffffffffffffffffffffffffffffffffff1673ffffffffffffffffffffffffffffffffffffffff166108fc829081150290604051600060405180830381858888f19350505050158015610e47573d6000803e3d6000fd5b5060008460050160006101000a81548160ff02191690831515021790555060008460030181905550338460010160006101000a81548173ffffffffffffffffffffffffffffffffffffffff021916908373ffffffffffffffffffffffffffffffffffffffff160217905550610ebd833387610f24565b5050505050565b610ed5610ecf611c1d565b82611cde565b610f14576040517f08c379a0000000000000000000000000000000000000000000000000000000008152600401610f0b90613955565b60405180910390fd5b610f1f838383611d73565b505050565b610f3f838383604051806020016040528060008152506117cc565b505050565b610f4c612ae2565b600a60008381526020019081526020016000206040518060c0016040529081600082015481526020016001820160009054906101000a900473ffffffffffffffffffffffffffffffffffffffff1673ffffffffffffffffffffffffffffffffffffffff1673ffffffffffffffffffffffffffffffffffffffff168152602001600282018054610fda90613483565b80601f016020809104026020016040519081016040528092919081815260200182805461100690613483565b80156110535780601f1061102857610100808354040283529160200191611053565b820191906000526020600020905b81548152906001019060200180831161103657829003601f168201915b505050505081526020016003820154815260200160048201805461107690613483565b80601f01602080910402602001604051908101604052809291908181526020018280546110a290613483565b80156110ef5780601f106110c4576101008083540402835291602001916110ef565b820191906000526020600020905b8154815290600101906020018083116110d257829003601f168201915b505050505081526020016005820160009054906101000a900460ff1615151515815250509050919050565b6000806111268361206c565b9050600073ffffffffffffffffffffffffffffffffffffffff168173ffffffffffffffffffffffffffffffffffffffff1603611197576040517f08c379a000000000000000000000000000000000000000000000000000000000815260040161118e906139c1565b60405180910390fd5b80915050919050565b60008073ffffffffffffffffffffffffffffffffffffffff168273ffffffffffffffffffffffffffffffffffffffff1603611210576040517f08c379a000000000000000000000000000000000000000000000000000000000815260040161120790613a53565b60405180910390fd5b600360008373ffffffffffffffffffffffffffffffffffffffff1673ffffffffffffffffffffffffffffffffffffffff168152602001908152602001600020549050919050565b61125f6120a9565b6112696000612127565b565b600b6020528060005260406000206000915090505481565b6000600660009054906101000a900473ffffffffffffffffffffffffffffffffffffffff16905090565b6000600a600084815260200190815260200160002090508281600001541461130a576040517f08c379a0000000000000000000000000000000000000000000000000000000008152600401611301906136b6565b60405180910390fd5b3373ffffffffffffffffffffffffffffffffffffffff1661132a8461111a565b73ffffffffffffffffffffffffffffffffffffffff1614611380576040517f08c379a000000000000000000000000000000000000000000000000000000000815260040161137790613abf565b60405180910390fd5b6000600a600085815260200190815260200160002060050160006101000a81548160ff02191690831515021790555081600a600085815260200190815260200160002060010160006101000a81548173ffffffffffffffffffffffffffffffffffffffff021916908373ffffffffffffffffffffffffffffffffffffffff16021790555061140f308385610f24565b505050565b60606001805461142390613483565b80601f016020809104026020016040519081016040528092919081815260200182805461144f90613483565b801561149c5780601f106114715761010080835404028352916020019161149c565b820191906000526020600020905b81548152906001019060200180831161147f57829003601f168201915b5050505050905090565b6000600a6000838152602001908152602001600020905081816000015414611503576040517f08c379a00000000000000000000000000000000000000000000000000000000081526004016114fa906136b6565b60405180910390fd5b3373ffffffffffffffffffffffffffffffffffffffff168160010160009054906101000a900473ffffffffffffffffffffffffffffffffffffffff1673ffffffffffffffffffffffffffffffffffffffff1614611595576040517f08c379a000000000000000000000000000000000000000000000000000000000815260040161158c90613b51565b60405180910390fd5b8060050160009054906101000a900460ff166115e6576040517f08c379a00000000000000000000000000000000000000000000000000000000081526004016115dd90613bbd565b60405180910390fd5b60008160050160006101000a81548160ff0219169083151502179055505050565b611619611612611c1d565b83836121ed565b5050565b6000600a600084815260200190815260200160002090508281600001541461167a576040517f08c379a0000000000000000000000000000000000000000000000000000000008152600401611671906136b6565b60405180910390fd5b600082116116bd576040517f08c379a00000000000000000000000000000000000000000000000000000000081526004016116b490613c29565b60405180910390fd5b3373ffffffffffffffffffffffffffffffffffffffff168160010160009054906101000a900473ffffffffffffffffffffffffffffffffffffffff1673ffffffffffffffffffffffffffffffffffffffff161461174f576040517f08c379a000000000000000000000000000000000000000000000000000000000815260040161174690613cbb565b60405180910390fd5b8060050160009054906101000a900460ff16156117a1576040517f08c379a000000000000000000000000000000000000000000000000000000000815260040161179890613d27565b60405180910390fd5b60018160050160006101000a81548160ff021916908315150217905550818160030181905550505050565b6117dd6117d7611c1d565b83611cde565b61181c576040517f08c379a000000000000000000000000000000000000000000000000000000000815260040161181390613955565b60405180910390fd5b61182884848484612359565b50505050565b606061183982611bd2565b60006118436123b5565b90506000815111611863576040518060200160405280600081525061188e565b8061186d846123cc565b60405160200161187e929190613d83565b6040516020818303038152906040525b915050919050565b6000600560008473ffffffffffffffffffffffffffffffffffffffff1673ffffffffffffffffffffffffffffffffffffffff16815260200190815260200160002060008373ffffffffffffffffffffffffffffffffffffffff1673ffffffffffffffffffffffffffffffffffffffff16815260200190815260200160002060009054906101000a900460ff16905092915050565b6119326120a9565b600073ffffffffffffffffffffffffffffffffffffffff168173ffffffffffffffffffffffffffffffffffffffff16036119a1576040517f08c379a000000000000000000000000000000000000000000000000000000000815260040161199890613e19565b60405180910390fd5b6119aa81612127565b50565b600a6020528060005260406000206000915090508060000154908060010160009054906101000a900473ffffffffffffffffffffffffffffffffffffffff16908060020180546119fc90613483565b80601f0160208091040260200160405190810160405280929190818152602001828054611a2890613483565b8015611a755780601f10611a4a57610100808354040283529160200191611a75565b820191906000526020600020905b815481529060010190602001808311611a5857829003601f168201915b505050505090806003015490806004018054611a9090613483565b80601f0160208091040260200160405190810160405280929190818152602001828054611abc90613483565b8015611b095780601f10611ade57610100808354040283529160200191611b09565b820191906000526020600020905b815481529060010190602001808311611aec57829003601f168201915b5050505050908060050160009054906101000a900460ff16905086565b60007f01ffc9a7000000000000000000000000000000000000000000000000000000007bffffffffffffffffffffffffffffffffffffffffffffffffffffffff1916827bffffffffffffffffffffffffffffffffffffffffffffffffffffffff1916149050919050565b6001816000016000828254019250508190555050565b600081600001549050919050565b611bce82826040518060200160405280600081525061249a565b5050565b611bdb816124f5565b611c1a576040517f08c379a0000000000000000000000000000000000000000000000000000000008152600401611c11906139c1565b60405180910390fd5b50565b600033905090565b816004600083815260200190815260200160002060006101000a81548173ffffffffffffffffffffffffffffffffffffffff021916908373ffffffffffffffffffffffffffffffffffffffff160217905550808273ffffffffffffffffffffffffffffffffffffffff16611c988361111a565b73ffffffffffffffffffffffffffffffffffffffff167f8c5be1e5ebec7d5bd14f71427d1e84f3dd0314c0f7b2291e5b200ac8c7c3b92560405160405180910390a45050565b600080611cea8361111a565b90508073ffffffffffffffffffffffffffffffffffffffff168473ffffffffffffffffffffffffffffffffffffffff161480611d2c5750611d2b8185611896565b5b80611d6a57508373ffffffffffffffffffffffffffffffffffffffff16611d52846108bd565b73ffffffffffffffffffffffffffffffffffffffff16145b91505092915050565b8273ffffffffffffffffffffffffffffffffffffffff16611d938261111a565b73ffffffffffffffffffffffffffffffffffffffff1614611de9576040517f08c379a0000000000000000000000000000000000000000000000000000000008152600401611de090613eab565b60405180910390fd5b600073ffffffffffffffffffffffffffffffffffffffff168273ffffffffffffffffffffffffffffffffffffffff1603611e58576040517f08c379a0000000000000000000000000000000000000000000000000000000008152600401611e4f90613f3d565b60405180910390fd5b611e658383836001612536565b8273ffffffffffffffffffffffffffffffffffffffff16611e858261111a565b73ffffffffffffffffffffffffffffffffffffffff1614611edb576040517f08c379a0000000000000000000000000000000000000000000000000000000008152600401611ed290613eab565b60405180910390fd5b6004600082815260200190815260200160002060006101000a81549073ffffffffffffffffffffffffffffffffffffffff02191690556001600360008573ffffffffffffffffffffffffffffffffffffffff1673ffffffffffffffffffffffffffffffffffffffff168152602001908152602001600020600082825403925050819055506001600360008473ffffffffffffffffffffffffffffffffffffffff1673ffffffffffffffffffffffffffffffffffffffff16815260200190815260200160002060008282540192505081905550816002600083815260200190815260200160002060006101000a81548173ffffffffffffffffffffffffffffffffffffffff021916908373ffffffffffffffffffffffffffffffffffffffff160217905550808273ffffffffffffffffffffffffffffffffffffffff168473ffffffffffffffffffffffffffffffffffffffff167fddf252ad1be2c89b69c2b068fc378daa952ba7f163c4a11628f55a4df523b3ef60405160405180910390a4612067838383600161253c565b505050565b60006002600083815260200190815260200160002060009054906101000a900473ffffffffffffffffffffffffffffffffffffffff169050919050565b6120b1611c1d565b73ffffffffffffffffffffffffffffffffffffffff166120cf611283565b73ffffffffffffffffffffffffffffffffffffffff1614612125576040517f08c379a000000000000000000000000000000000000000000000000000000000815260040161211c90613fa9565b60405180910390fd5b565b6000600660009054906101000a900473ffffffffffffffffffffffffffffffffffffffff16905081600660006101000a81548173ffffffffffffffffffffffffffffffffffffffff021916908373ffffffffffffffffffffffffffffffffffffffff1602179055508173ffffffffffffffffffffffffffffffffffffffff168173ffffffffffffffffffffffffffffffffffffffff167f8be0079c531659141344cd1fd0a4f28419497f9722a3daafe3b4186f6b6457e060405160405180910390a35050565b8173ffffffffffffffffffffffffffffffffffffffff168373ffffffffffffffffffffffffffffffffffffffff160361225b576040517f08c379a000000000000000000000000000000000000000000000000000000000815260040161225290614015565b60405180910390fd5b80600560008573ffffffffffffffffffffffffffffffffffffffff1673ffffffffffffffffffffffffffffffffffffffff16815260200190815260200160002060008473ffffffffffffffffffffffffffffffffffffffff1673ffffffffffffffffffffffffffffffffffffffff16815260200190815260200160002060006101000a81548160ff0219169083151502179055508173ffffffffffffffffffffffffffffffffffffffff168373ffffffffffffffffffffffffffffffffffffffff167f17307eab39ab6107e8899845ad3d59bd9653f200f220920489ca2b5937696c318360405161234c9190612c01565b60405180910390a3505050565b612364848484611d73565b61237084848484612542565b6123af576040517f08c379a00000000000000000000000000000000000000000000000000000000081526004016123a6906140a7565b60405180910390fd5b50505050565b606060405180602001604052806000815250905090565b6060600060016123db846126c9565b01905060008167ffffffffffffffff8111156123fa576123f9612c6d565b5b6040519080825280601f01601f19166020018201604052801561242c5781602001600182028036833780820191505090505b509050600082602001820190505b60011561248f578080600190039150507f3031323334353637383961626364656600000000000000000000000000000000600a86061a8153600a858161248357612482613883565b5b0494506000850361243a575b819350505050919050565b6124a4838361281c565b6124b16000848484612542565b6124f0576040517f08c379a00000000000000000000000000000000000000000000000000000000081526004016124e7906140a7565b60405180910390fd5b505050565b60008073ffffffffffffffffffffffffffffffffffffffff166125178361206c565b73ffffffffffffffffffffffffffffffffffffffff1614159050919050565b50505050565b50505050565b60006125638473ffffffffffffffffffffffffffffffffffffffff16612a39565b156126bc578373ffffffffffffffffffffffffffffffffffffffff1663150b7a0261258c611c1d565b8786866040518563ffffffff1660e01b81526004016125ae949392919061411c565b6020604051808303816000875af19250505080156125ea57506040513d601f19601f820116820180604052508101906125e7919061417d565b60015b61266c573d806000811461261a576040519150601f19603f3d011682016040523d82523d6000602084013e61261f565b606091505b506000815103612664576040517f08c379a000000000000000000000000000000000000000000000000000000000815260040161265b906140a7565b60405180910390fd5b805181602001fd5b63150b7a0260e01b7bffffffffffffffffffffffffffffffffffffffffffffffffffffffff1916817bffffffffffffffffffffffffffffffffffffffffffffffffffffffff1916149150506126c1565b600190505b949350505050565b600080600090507a184f03e93ff9f4daa797ed6e38ed64bf6a1f0100000000000000008310612727577a184f03e93ff9f4daa797ed6e38ed64bf6a1f010000000000000000838161271d5761271c613883565b5b0492506040810190505b6d04ee2d6d415b85acef81000000008310612764576d04ee2d6d415b85acef8100000000838161275a57612759613883565b5b0492506020810190505b662386f26fc10000831061279357662386f26fc10000838161278957612788613883565b5b0492506010810190505b6305f5e10083106127bc576305f5e10083816127b2576127b1613883565b5b0492506008810190505b61271083106127e15761271083816127d7576127d6613883565b5b0492506004810190505b6064831061280457606483816127fa576127f9613883565b5b0492506002810190505b600a8310612813576001810190505b80915050919050565b600073ffffffffffffffffffffffffffffffffffffffff168273ffffffffffffffffffffffffffffffffffffffff160361288b576040517f08c379a0000000000000000000000000000000000000000000000000000000008152600401612882906141f6565b60405180910390fd5b612894816124f5565b156128d4576040517f08c379a00000000000000000000000000000000000000000000000000000000081526004016128cb90614262565b60405180910390fd5b6128e2600083836001612536565b6128eb816124f5565b1561292b576040517f08c379a000000000000000000000000000000000000000000000000000000000815260040161292290614262565b60405180910390fd5b6001600360008473ffffffffffffffffffffffffffffffffffffffff1673ffffffffffffffffffffffffffffffffffffffff16815260200190815260200160002060008282540192505081905550816002600083815260200190815260200160002060006101000a81548173ffffffffffffffffffffffffffffffffffffffff021916908373ffffffffffffffffffffffffffffffffffffffff160217905550808273ffffffffffffffffffffffffffffffffffffffff16600073ffffffffffffffffffffffffffffffffffffffff167fddf252ad1be2c89b69c2b068fc378daa952ba7f163c4a11628f55a4df523b3ef60405160405180910390a4612a3560008383600161253c565b5050565b6000808273ffffffffffffffffffffffffffffffffffffffff163b119050919050565b828054612a6890613483565b90600052602060002090601f016020900481019282612a8a5760008555612ad1565b82601f10612aa357805160ff1916838001178555612ad1565b82800160010185558215612ad1579182015b82811115612ad0578251825591602001919060010190612ab5565b5b509050612ade9190612b30565b5090565b6040518060c0016040528060008152602001600073ffffffffffffffffffffffffffffffffffffffff1681526020016060815260200160008152602001606081526020016000151581525090565b5b80821115612b49576000816000905550600101612b31565b5090565b6000604051905090565b600080fd5b600080fd5b60007fffffffff0000000000000000000000000000000000000000000000000000000082169050919050565b612b9681612b61565b8114612ba157600080fd5b50565b600081359050612bb381612b8d565b92915050565b600060208284031215612bcf57612bce612b57565b5b6000612bdd84828501612ba4565b91505092915050565b60008115159050919050565b612bfb81612be6565b82525050565b6000602082019050612c166000830184612bf2565b92915050565b6000819050919050565b612c2f81612c1c565b8114612c3a57600080fd5b50565b600081359050612c4c81612c26565b92915050565b600080fd5b600080fd5b6000601f19601f8301169050919050565b7f4e487b7100000000000000000000000000000000000000000000000000000000600052604160045260246000fd5b612ca582612c5c565b810181811067ffffffffffffffff82111715612cc457612cc3612c6d565b5b80604052505050565b6000612cd7612b4d565b9050612ce38282612c9c565b919050565b600067ffffffffffffffff821115612d0357612d02612c6d565b5b612d0c82612c5c565b9050602081019050919050565b82818337600083830152505050565b6000612d3b612d3684612ce8565b612ccd565b905082815260208101848484011115612d5757612d56612c57565b5b612d62848285612d19565b509392505050565b600082601f830112612d7f57612d7e612c52565b5b8135612d8f848260208601612d28565b91505092915050565b600080600060608486031215612db157612db0612b57565b5b6000612dbf86828701612c3d565b935050602084013567ffffffffffffffff811115612de057612ddf612b5c565b5b612dec86828701612d6a565b925050604084013567ffffffffffffffff811115612e0d57612e0c612b5c565b5b612e1986828701612d6a565b9150509250925092565b612e2c81612c1c565b82525050565b6000602082019050612e476000830184612e23565b92915050565b600081519050919050565b600082825260208201905092915050565b60005b83811015612e87578082015181840152602081019050612e6c565b83811115612e96576000848401525b50505050565b6000612ea782612e4d565b612eb18185612e58565b9350612ec1818560208601612e69565b612eca81612c5c565b840191505092915050565b60006020820190508181036000830152612eef8184612e9c565b905092915050565b600060208284031215612f0d57612f0c612b57565b5b6000612f1b84828501612c3d565b91505092915050565b600073ffffffffffffffffffffffffffffffffffffffff82169050919050565b6000612f4f82612f24565b9050919050565b612f5f81612f44565b82525050565b6000602082019050612f7a6000830184612f56565b92915050565b612f8981612f44565b8114612f9457600080fd5b50565b600081359050612fa681612f80565b92915050565b60008060408385031215612fc357612fc2612b57565b5b6000612fd185828601612f97565b9250506020612fe285828601612c3d565b9150509250929050565b60008060006060848603121561300557613004612b57565b5b600061301386828701612f97565b935050602061302486828701612f97565b925050604061303586828701612c3d565b9150509250925092565b61304881612c1c565b82525050565b61305781612f44565b82525050565b600082825260208201905092915050565b600061307982612e4d565b613083818561305d565b9350613093818560208601612e69565b61309c81612c5c565b840191505092915050565b6130b081612be6565b82525050565b600060c0830160008301516130ce600086018261303f565b5060208301516130e1602086018261304e565b50604083015184820360408601526130f9828261306e565b915050606083015161310e606086018261303f565b5060808301518482036080860152613126828261306e565b91505060a083015161313b60a08601826130a7565b508091505092915050565b6000602082019050818103600083015261316081846130b6565b905092915050565b60006020828403121561317e5761317d612b57565b5b600061318c84828501612f97565b91505092915050565b600080604083850312156131ac576131ab612b57565b5b60006131ba85828601612c3d565b92505060206131cb85828601612f97565b9150509250929050565b6131de81612be6565b81146131e957600080fd5b50565b6000813590506131fb816131d5565b92915050565b6000806040838503121561321857613217612b57565b5b600061322685828601612f97565b9250506020613237858286016131ec565b9150509250929050565b6000806040838503121561325857613257612b57565b5b600061326685828601612c3d565b925050602061327785828601612c3d565b9150509250929050565b600067ffffffffffffffff82111561329c5761329b612c6d565b5b6132a582612c5c565b9050602081019050919050565b60006132c56132c084613281565b612ccd565b9050828152602081018484840111156132e1576132e0612c57565b5b6132ec848285612d19565b509392505050565b600082601f83011261330957613308612c52565b5b81356133198482602086016132b2565b91505092915050565b6000806000806080858703121561333c5761333b612b57565b5b600061334a87828801612f97565b945050602061335b87828801612f97565b935050604061336c87828801612c3d565b925050606085013567ffffffffffffffff81111561338d5761338c612b5c565b5b613399878288016132f4565b91505092959194509250565b600080604083850312156133bc576133bb612b57565b5b60006133ca85828601612f97565b92505060206133db85828601612f97565b9150509250929050565b600060c0820190506133fa6000830189612e23565b6134076020830188612f56565b81810360408301526134198187612e9c565b90506134286060830186612e23565b818103608083015261343a8185612e9c565b905061344960a0830184612bf2565b979650505050505050565b7f4e487b7100000000000000000000000000000000000000000000000000000000600052602260045260246000fd5b6000600282049050600182168061349b57607f821691505b6020821081036134ae576134ad613454565b5b50919050565b7f4552433732313a20617070726f76616c20746f2063757272656e74206f776e6560008201527f7200000000000000000000000000000000000000000000000000000000000000602082015250565b6000613510602183612e58565b915061351b826134b4565b604082019050919050565b6000602082019050818103600083015261353f81613503565b9050919050565b7f4552433732313a20617070726f76652063616c6c6572206973206e6f7420746f60008201527f6b656e206f776e6572206f7220617070726f76656420666f7220616c6c000000602082015250565b60006135a2603d83612e58565b91506135ad82613546565b604082019050919050565b600060208201905081810360008301526135d181613595565b9050919050565b7f546865204e4654206e6565647320746f206265206c697374656420746f20626560008201527f2070757263686173656400000000000000000000000000000000000000000000602082015250565b6000613634602a83612e58565b915061363f826135d8565b604082019050919050565b6000602082019050818103600083015261366381613627565b9050919050565b7f546865204e4654206d7573742065786973740000000000000000000000000000600082015250565b60006136a0601283612e58565b91506136ab8261366a565b602082019050919050565b600060208201905081810360008301526136cf81613693565b9050919050565b7f41204e46542063616e206e6f742062652070757263686173656420627920746860008201527f65206f776e657200000000000000000000000000000000000000000000000000602082015250565b6000613732602783612e58565b915061373d826136d6565b604082019050919050565b6000602082019050818103600083015261376181613725565b9050919050565b7f54686520627579657220646f6573206e6f74206861766520656e6f756768206d60008201527f6f6e657900000000000000000000000000000000000000000000000000000000602082015250565b60006137c4602483612e58565b91506137cf82613768565b604082019050919050565b600060208201905081810360008301526137f3816137b7565b9050919050565b7f4e487b7100000000000000000000000000000000000000000000000000000000600052601160045260246000fd5b600061383482612c1c565b915061383f83612c1c565b9250817fffffffffffffffffffffffffffffffffffffffffffffffffffffffffffffffff0483118215151615613878576138776137fa565b5b828202905092915050565b7f4e487b7100000000000000000000000000000000000000000000000000000000600052601260045260246000fd5b60006138bd82612c1c565b91506138c883612c1c565b9250826138d8576138d7613883565b5b828204905092915050565b7f4552433732313a2063616c6c6572206973206e6f7420746f6b656e206f776e6560008201527f72206f7220617070726f76656400000000000000000000000000000000000000602082015250565b600061393f602d83612e58565b915061394a826138e3565b604082019050919050565b6000602082019050818103600083015261396e81613932565b9050919050565b7f4552433732313a20696e76616c696420746f6b656e2049440000000000000000600082015250565b60006139ab601883612e58565b91506139b682613975565b602082019050919050565b600060208201905081810360008301526139da8161399e565b9050919050565b7f4552433732313a2061646472657373207a65726f206973206e6f74206120766160008201527f6c6964206f776e65720000000000000000000000000000000000000000000000602082015250565b6000613a3d602983612e58565b9150613a48826139e1565b604082019050919050565b60006020820190508181036000830152613a6c81613a30565b9050919050565b7f43757272656e74207573657220646f206e6f74206f776e2074686973204e4654600082015250565b6000613aa9602083612e58565b9150613ab482613a73565b602082019050919050565b60006020820190508181036000830152613ad881613a9c565b9050919050565b7f546865204e46542063616e206f6e6c792062652072656d6f766564206279206f60008201527f776e657200000000000000000000000000000000000000000000000000000000602082015250565b6000613b3b602483612e58565b9150613b4682613adf565b604082019050919050565b60006020820190508181036000830152613b6a81613b2e565b9050919050565b7f546865204e465420686173206e6f74206265656e206c69737465642079657400600082015250565b6000613ba7601f83612e58565b9150613bb282613b71565b602082019050919050565b60006020820190508181036000830152613bd681613b9a565b9050919050565b7f546865207072696365206d75737420626520706f736974697665000000000000600082015250565b6000613c13601a83612e58565b9150613c1e82613bdd565b602082019050919050565b60006020820190508181036000830152613c4281613c06565b9050919050565b7f4f6e6c7920746865206f6e7765722063616e206c6973742061204e465420666f60008201527f722073616c650000000000000000000000000000000000000000000000000000602082015250565b6000613ca5602683612e58565b9150613cb082613c49565b604082019050919050565b60006020820190508181036000830152613cd481613c98565b9050919050565b7f546865204e465420697320616c7265616479206c697374656400000000000000600082015250565b6000613d11601983612e58565b9150613d1c82613cdb565b602082019050919050565b60006020820190508181036000830152613d4081613d04565b9050919050565b600081905092915050565b6000613d5d82612e4d565b613d678185613d47565b9350613d77818560208601612e69565b80840191505092915050565b6000613d8f8285613d52565b9150613d9b8284613d52565b91508190509392505050565b7f4f776e61626c653a206e6577206f776e657220697320746865207a65726f206160008201527f6464726573730000000000000000000000000000000000000000000000000000602082015250565b6000613e03602683612e58565b9150613e0e82613da7565b604082019050919050565b60006020820190508181036000830152613e3281613df6565b9050919050565b7f4552433732313a207472616e736665722066726f6d20696e636f72726563742060008201527f6f776e6572000000000000000000000000000000000000000000000000000000602082015250565b6000613e95602583612e58565b9150613ea082613e39565b604082019050919050565b60006020820190508181036000830152613ec481613e88565b9050919050565b7f4552433732313a207472616e7366657220746f20746865207a65726f2061646460008201527f7265737300000000000000000000000000000000000000000000000000000000602082015250565b6000613f27602483612e58565b9150613f3282613ecb565b604082019050919050565b60006020820190508181036000830152613f5681613f1a565b9050919050565b7f4f776e61626c653a2063616c6c6572206973206e6f7420746865206f776e6572600082015250565b6000613f93602083612e58565b9150613f9e82613f5d565b602082019050919050565b60006020820190508181036000830152613fc281613f86565b9050919050565b7f4552433732313a20617070726f766520746f2063616c6c657200000000000000600082015250565b6000613fff601983612e58565b915061400a82613fc9565b602082019050919050565b6000602082019050818103600083015261402e81613ff2565b9050919050565b7f4552433732313a207472616e7366657220746f206e6f6e20455243373231526560008201527f63656976657220696d706c656d656e7465720000000000000000000000000000602082015250565b6000614091603283612e58565b915061409c82614035565b604082019050919050565b600060208201905081810360008301526140c081614084565b9050919050565b600081519050919050565b600082825260208201905092915050565b60006140ee826140c7565b6140f881856140d2565b9350614108818560208601612e69565b61411181612c5c565b840191505092915050565b60006080820190506141316000830187612f56565b61413e6020830186612f56565b61414b6040830185612e23565b818103606083015261415d81846140e3565b905095945050505050565b60008151905061417781612b8d565b92915050565b60006020828403121561419357614192612b57565b5b60006141a184828501614168565b91505092915050565b7f4552433732313a206d696e7420746f20746865207a65726f2061646472657373600082015250565b60006141e0602083612e58565b91506141eb826141aa565b602082019050919050565b6000602082019050818103600083015261420f816141d3565b9050919050565b7f4552433732313a20746f6b656e20616c7265616479206d696e74656400000000600082015250565b600061424c601c83612e58565b915061425782614216565b602082019050919050565b6000602082019050818103600083015261427b8161423f565b905091905056fea264697066735822122062be082ec362f565f46bcfaee5f9c7e11de50fb131644022e3f09239706c8c5164736f6c634300080d0033",
  "immutableReferences": {},
  "source": "// SPDX-License-Identifier: UNLICENSED\npragma solidity ^0.8.13;\n\nimport \"@openzeppelin/contracts/utils/Counters.sol\";\nimport \"@openzeppelin/contracts/token/ERC721/ERC721.sol\";\nimport \"@openzeppelin/contracts/access/Ownable.sol\";\n\ncontract NFTMarketplace is ERC721, Ownable{\n    using Counters for Counters.Counter;\n    Counters.Counter private _marketTokenCounts;\n\n    // The structure to store info about a NFT in blockchain\n    struct NFT {\n        uint id;\n        address owner;\n        string name;\n        uint price;\n        string description;\n        bool is_listed;\n    }\n\n    address payable private marketOwner;\n    uint private royalty_percentage;\n\n    //mapping from token id to token information\n    mapping(uint => NFT) public idToToken;\n\n    //mapping from a user address to user's fund\n    mapping(address => uint) public userFunds;\n\n    constructor(string memory name, string memory symbol, uint percentage) ERC721(name, symbol){\n        royalty_percentage = percentage;\n        marketOwner = payable(msg.sender);\n    }\n\n    // Get NFT\n    function getNFT(uint id) public view returns (NFT memory) {\n        return idToToken[id];\n    }\n\n    // mint a new NFT and returns the id\n    function mintNFT() public returns (uint) {\n        // increment the tokenId counter, which is keep track of the number of mined NFTs\n        _marketTokenCounts.increment();\n        uint newTokenId = _marketTokenCounts.current();\n        _safeMint(msg.sender, newTokenId);\n        idToToken[newTokenId] = NFT(\n            newTokenId, \n            msg.sender, \n            \"NULL\", \n            0 , \n            \"NULL\", \n            false\n            );\n        return newTokenId;\n    }\n\n    // Create NFT\n    function createNFT(uint id, string memory name, string memory description) public payable returns (uint){\n        _marketTokenCounts.increment();\n        uint newTokenId = _marketTokenCounts.current();\n        _safeMint(msg.sender, id);\n        idToToken[id] = NFT(\n            id,\n            payable(msg.sender),\n            name,\n            0,\n            description,\n            false\n        );\n        return newTokenId;\n    }\n\n    // transfer NFT function\n    function transferNFT(uint id, address toAddress) public payable{\n        NFT storage item = idToToken[id];\n        require(item.id == id, \"The NFT must exist\");\n        require(ownerOf(id) == msg.sender, \"Current user do not own this NFT\");\n        //update the details of the token\n        idToToken[id].is_listed = false;\n        idToToken[id].owner = toAddress;\n        //Actually transfer the token to the new owner\n        safeTransferFrom(address(this), toAddress, id);\n    }\n\n    // list NFT for sale\n    function listNFTForSale(uint id, uint price) public {\n        NFT storage item = idToToken[id];\n        require(item.id == id, \"The NFT must exist\");\n        require(price > 0, \"The price must be positive\");\n        require(item.owner == msg.sender, \"Only the onwer can list a NFT for sale\");\n        require(!item.is_listed, \"The NFT is already listed\");\n        item.is_listed = true;\n        item.price = price;\n    }\n\n    // remove NFT From sale\n    function removeNFTFromSale(uint id) public {\n        NFT storage item = idToToken[id];\n        require(item.id == id, \"The NFT must exist\");\n        require(item.owner == msg.sender, \"The NFT can only be removed by owner\");\n        require(item.is_listed, \"The NFT has not been listed yet\");\n        item.is_listed = false;\n    }\n\n    function purchaseNFT(uint id) public payable {\n        NFT storage item = idToToken[id];\n        require(item.is_listed, \"The NFT needs to be listed to be purchased\");\n        require(item.id == id, \"The NFT must exist\");\n        require(item.owner != msg.sender, \"A NFT can not be purchased by the owner\");\n        require(msg.value >= item.price, \"The buyer does not have enough money\");\n\n        // transfer money to seller and market owner\n        address payable seller = payable(item.owner);\n        uint256 sale_amount = item.price;\n        uint256 royalty_fee = sale_amount * (royalty_percentage) / 100;\n        seller.transfer(sale_amount);\n        marketOwner.transfer(royalty_fee);\n\n        //Actually transfer the NFT to the new owner\n        item.is_listed = false;\n        item.price = 0;\n        item.owner = msg.sender;\n        safeTransferFrom(seller, msg.sender, id);\n    }\n}\n",
  "sourcePath": "/Users/haohsinhsu/Desktop/ELEN6883-FinalProject/contracts/NFTMarketplace.sol",
  "compiler": {
    "name": "solc",
    "version": "0.8.13+commit.abaa5c0e.Emscripten.clang"
  },
  "schemaVersion": "3.4.13",
  "updatedAt": "2023-05-07T04:07:18.388Z",
  "networkType": "ethereum",
  "devdoc": {
    "kind": "dev",
    "methods": {
      "approve(address,uint256)": {
        "details": "See {IERC721-approve}."
      },
      "balanceOf(address)": {
        "details": "See {IERC721-balanceOf}."
      },
      "getApproved(uint256)": {
        "details": "See {IERC721-getApproved}."
      },
      "isApprovedForAll(address,address)": {
        "details": "See {IERC721-isApprovedForAll}."
      },
      "name()": {
        "details": "See {IERC721Metadata-name}."
      },
      "owner()": {
        "details": "Returns the address of the current owner."
      },
      "ownerOf(uint256)": {
        "details": "See {IERC721-ownerOf}."
      },
      "renounceOwnership()": {
        "details": "Leaves the contract without owner. It will not be possible to call `onlyOwner` functions anymore. Can only be called by the current owner. NOTE: Renouncing ownership will leave the contract without an owner, thereby removing any functionality that is only available to the owner."
      },
      "safeTransferFrom(address,address,uint256)": {
        "details": "See {IERC721-safeTransferFrom}."
      },
      "safeTransferFrom(address,address,uint256,bytes)": {
        "details": "See {IERC721-safeTransferFrom}."
      },
      "setApprovalForAll(address,bool)": {
        "details": "See {IERC721-setApprovalForAll}."
      },
      "supportsInterface(bytes4)": {
        "details": "See {IERC165-supportsInterface}."
      },
      "symbol()": {
        "details": "See {IERC721Metadata-symbol}."
      },
      "tokenURI(uint256)": {
        "details": "See {IERC721Metadata-tokenURI}."
      },
      "transferFrom(address,address,uint256)": {
        "details": "See {IERC721-transferFrom}."
      },
      "transferOwnership(address)": {
        "details": "Transfers ownership of the contract to a new account (`newOwner`). Can only be called by the current owner."
      }
    },
    "version": 1
  },
  "userdoc": {
    "kind": "user",
    "methods": {},
    "version": 1
  }
}