{
  "contractName": "NFTMarketplace",
  "abi": [
    {
      "inputs": [
        {
          "internalType": "string",
          "name": "name",
          "type": "string"
        },
        {
          "internalType": "string",
          "name": "symbol",
          "type": "string"
        },
        {
          "internalType": "uint256",
          "name": "percentage",
          "type": "uint256"
        }
      ],
      "stateMutability": "nonpayable",
      "type": "constructor"
    },
    {
      "anonymous": false,
      "inputs": [
        {
          "indexed": true,
          "internalType": "address",
          "name": "owner",
          "type": "address"
        },
        {
          "indexed": true,
          "internalType": "address",
          "name": "approved",
          "type": "address"
        },
        {
          "indexed": true,
          "internalType": "uint256",
          "name": "tokenId",
          "type": "uint256"
        }
      ],
      "name": "Approval",
      "type": "event"
    },
    {
      "anonymous": false,
      "inputs": [
        {
          "indexed": true,
          "internalType": "address",
          "name": "owner",
          "type": "address"
        },
        {
          "indexed": true,
          "internalType": "address",
          "name": "operator",
          "type": "address"
        },
        {
          "indexed": false,
          "internalType": "bool",
          "name": "approved",
          "type": "bool"
        }
      ],
      "name": "ApprovalForAll",
      "type": "event"
    },
    {
      "anonymous": false,
      "inputs": [
        {
          "indexed": true,
          "internalType": "address",
          "name": "previousOwner",
          "type": "address"
        },
        {
          "indexed": true,
          "internalType": "address",
          "name": "newOwner",
          "type": "address"
        }
      ],
      "name": "OwnershipTransferred",
      "type": "event"
    },
    {
      "anonymous": false,
      "inputs": [
        {
          "indexed": true,
          "internalType": "address",
          "name": "from",
          "type": "address"
        },
        {
          "indexed": true,
          "internalType": "address",
          "name": "to",
          "type": "address"
        },
        {
          "indexed": true,
          "internalType": "uint256",
          "name": "tokenId",
          "type": "uint256"
        }
      ],
      "name": "Transfer",
      "type": "event"
    },
    {
      "inputs": [
        {
          "internalType": "address",
          "name": "to",
          "type": "address"
        },
        {
          "internalType": "uint256",
          "name": "tokenId",
          "type": "uint256"
        }
      ],
      "name": "approve",
      "outputs": [],
      "stateMutability": "nonpayable",
      "type": "function"
    },
    {
      "inputs": [
        {
          "internalType": "address",
          "name": "owner",
          "type": "address"
        }
      ],
      "name": "balanceOf",
      "outputs": [
        {
          "internalType": "uint256",
          "name": "",
          "type": "uint256"
        }
      ],
      "stateMutability": "view",
      "type": "function"
    },
    {
      "inputs": [
        {
          "internalType": "uint256",
          "name": "tokenId",
          "type": "uint256"
        }
      ],
      "name": "getApproved",
      "outputs": [
        {
          "internalType": "address",
          "name": "",
          "type": "address"
        }
      ],
      "stateMutability": "view",
      "type": "function"
    },
    {
      "inputs": [
        {
          "internalType": "uint256",
          "name": "",
          "type": "uint256"
        }
      ],
      "name": "idToToken",
      "outputs": [
        {
          "internalType": "uint256",
          "name": "id",
          "type": "uint256"
        },
        {
          "internalType": "address",
          "name": "owner",
          "type": "address"
        },
        {
          "internalType": "string",
          "name": "name",
          "type": "string"
        },
        {
          "internalType": "uint256",
          "name": "price",
          "type": "uint256"
        },
        {
          "internalType": "string",
          "name": "description",
          "type": "string"
        },
        {
          "internalType": "bool",
          "name": "is_listed",
          "type": "bool"
        }
      ],
      "stateMutability": "view",
      "type": "function"
    },
    {
      "inputs": [
        {
          "internalType": "address",
          "name": "owner",
          "type": "address"
        },
        {
          "internalType": "address",
          "name": "operator",
          "type": "address"
        }
      ],
      "name": "isApprovedForAll",
      "outputs": [
        {
          "internalType": "bool",
          "name": "",
          "type": "bool"
        }
      ],
      "stateMutability": "view",
      "type": "function"
    },
    {
      "inputs": [],
      "name": "name",
      "outputs": [
        {
          "internalType": "string",
          "name": "",
          "type": "string"
        }
      ],
      "stateMutability": "view",
      "type": "function"
    },
    {
      "inputs": [],
      "name": "owner",
      "outputs": [
        {
          "internalType": "address",
          "name": "",
          "type": "address"
        }
      ],
      "stateMutability": "view",
      "type": "function"
    },
    {
      "inputs": [
        {
          "internalType": "uint256",
          "name": "tokenId",
          "type": "uint256"
        }
      ],
      "name": "ownerOf",
      "outputs": [
        {
          "internalType": "address",
          "name": "",
          "type": "address"
        }
      ],
      "stateMutability": "view",
      "type": "function"
    },
    {
      "inputs": [],
      "name": "renounceOwnership",
      "outputs": [],
      "stateMutability": "nonpayable",
      "type": "function"
    },
    {
      "inputs": [
        {
          "internalType": "address",
          "name": "from",
          "type": "address"
        },
        {
          "internalType": "address",
          "name": "to",
          "type": "address"
        },
        {
          "internalType": "uint256",
          "name": "tokenId",
          "type": "uint256"
        }
      ],
      "name": "safeTransferFrom",
      "outputs": [],
      "stateMutability": "nonpayable",
      "type": "function"
    },
    {
      "inputs": [
        {
          "internalType": "address",
          "name": "from",
          "type": "address"
        },
        {
          "internalType": "address",
          "name": "to",
          "type": "address"
        },
        {
          "internalType": "uint256",
          "name": "tokenId",
          "type": "uint256"
        },
        {
          "internalType": "bytes",
          "name": "data",
          "type": "bytes"
        }
      ],
      "name": "safeTransferFrom",
      "outputs": [],
      "stateMutability": "nonpayable",
      "type": "function"
    },
    {
      "inputs": [
        {
          "internalType": "address",
          "name": "operator",
          "type": "address"
        },
        {
          "internalType": "bool",
          "name": "approved",
          "type": "bool"
        }
      ],
      "name": "setApprovalForAll",
      "outputs": [],
      "stateMutability": "nonpayable",
      "type": "function"
    },
    {
      "inputs": [
        {
          "internalType": "bytes4",
          "name": "interfaceId",
          "type": "bytes4"
        }
      ],
      "name": "supportsInterface",
      "outputs": [
        {
          "internalType": "bool",
          "name": "",
          "type": "bool"
        }
      ],
      "stateMutability": "view",
      "type": "function"
    },
    {
      "inputs": [],
      "name": "symbol",
      "outputs": [
        {
          "internalType": "string",
          "name": "",
          "type": "string"
        }
      ],
      "stateMutability": "view",
      "type": "function"
    },
    {
      "inputs": [
        {
          "internalType": "uint256",
          "name": "tokenId",
          "type": "uint256"
        }
      ],
      "name": "tokenURI",
      "outputs": [
        {
          "internalType": "string",
          "name": "",
          "type": "string"
        }
      ],
      "stateMutability": "view",
      "type": "function"
    },
    {
      "inputs": [
        {
          "internalType": "address",
          "name": "from",
          "type": "address"
        },
        {
          "internalType": "address",
          "name": "to",
          "type": "address"
        },
        {
          "internalType": "uint256",
          "name": "tokenId",
          "type": "uint256"
        }
      ],
      "name": "transferFrom",
      "outputs": [],
      "stateMutability": "nonpayable",
      "type": "function"
    },
    {
      "inputs": [
        {
          "internalType": "address",
          "name": "newOwner",
          "type": "address"
        }
      ],
      "name": "transferOwnership",
      "outputs": [],
      "stateMutability": "nonpayable",
      "type": "function"
    },
    {
      "inputs": [
        {
          "internalType": "address",
          "name": "",
          "type": "address"
        }
      ],
      "name": "userFunds",
      "outputs": [
        {
          "internalType": "uint256",
          "name": "",
          "type": "uint256"
        }
      ],
      "stateMutability": "view",
      "type": "function"
    },
    {
      "inputs": [
        {
          "internalType": "uint256",
          "name": "id",
          "type": "uint256"
        }
      ],
      "name": "getNFT",
      "outputs": [
        {
          "components": [
            {
              "internalType": "uint256",
              "name": "id",
              "type": "uint256"
            },
            {
              "internalType": "address",
              "name": "owner",
              "type": "address"
            },
            {
              "internalType": "string",
              "name": "name",
              "type": "string"
            },
            {
              "internalType": "uint256",
              "name": "price",
              "type": "uint256"
            },
            {
              "internalType": "string",
              "name": "description",
              "type": "string"
            },
            {
              "internalType": "bool",
              "name": "is_listed",
              "type": "bool"
            }
          ],
          "internalType": "struct NFTMarketplace.NFT",
          "name": "",
          "type": "tuple"
        }
      ],
      "stateMutability": "view",
      "type": "function"
    },
    {
      "inputs": [],
      "name": "commissionPercentage",
      "outputs": [
        {
          "internalType": "uint256",
          "name": "",
          "type": "uint256"
        }
      ],
      "stateMutability": "view",
      "type": "function"
    },
    {
      "inputs": [],
      "name": "mintNFT",
      "outputs": [
        {
          "internalType": "uint256",
          "name": "",
          "type": "uint256"
        }
      ],
      "stateMutability": "nonpayable",
      "type": "function"
    },
    {
      "inputs": [
        {
          "internalType": "uint256",
          "name": "id",
          "type": "uint256"
        },
        {
          "internalType": "string",
          "name": "name",
          "type": "string"
        },
        {
          "internalType": "string",
          "name": "description",
          "type": "string"
        }
      ],
      "name": "createNFT",
      "outputs": [
        {
          "internalType": "uint256",
          "name": "",
          "type": "uint256"
        }
      ],
      "stateMutability": "payable",
      "type": "function"
    },
    {
      "inputs": [
        {
          "internalType": "uint256",
          "name": "id",
          "type": "uint256"
        },
        {
          "internalType": "address",
          "name": "toAddress",
          "type": "address"
        }
      ],
      "name": "transferNFT",
      "outputs": [],
      "stateMutability": "payable",
      "type": "function"
    },
    {
      "inputs": [
        {
          "internalType": "uint256",
          "name": "id",
          "type": "uint256"
        },
        {
          "internalType": "uint256",
          "name": "price",
          "type": "uint256"
        }
      ],
      "name": "listNFTForSale",
      "outputs": [],
      "stateMutability": "nonpayable",
      "type": "function"
    },
    {
      "inputs": [
        {
          "internalType": "uint256",
          "name": "id",
          "type": "uint256"
        }
      ],
      "name": "removeNFTFromSale",
      "outputs": [],
      "stateMutability": "nonpayable",
      "type": "function"
    },
    {
      "inputs": [
        {
          "internalType": "uint256",
          "name": "id",
          "type": "uint256"
        }
      ],
      "name": "purchaseNFT",
      "outputs": [],
      "stateMutability": "payable",
      "type": "function"
    }
  ],
  "bytecode": "0x60806040523480156200001157600080fd5b50604051620048a5380380620048a5833981810160405281019062000037919062000434565b8282816000908051906020019062000051929190620001ac565b5080600190805190602001906200006a929190620001ac565b5050506200008d62000081620000de60201b60201c565b620000e660201b60201c565b8060098190555033600860006101000a81548173ffffffffffffffffffffffffffffffffffffffff021916908373ffffffffffffffffffffffffffffffffffffffff16021790555050505062000532565b600033905090565b6000600660009054906101000a900473ffffffffffffffffffffffffffffffffffffffff16905081600660006101000a81548173ffffffffffffffffffffffffffffffffffffffff021916908373ffffffffffffffffffffffffffffffffffffffff1602179055508173ffffffffffffffffffffffffffffffffffffffff168173ffffffffffffffffffffffffffffffffffffffff167f8be0079c531659141344cd1fd0a4f28419497f9722a3daafe3b4186f6b6457e060405160405180910390a35050565b828054620001ba90620004fd565b90600052602060002090601f016020900481019282620001de57600085556200022a565b82601f10620001f957805160ff19168380011785556200022a565b828001600101855582156200022a579182015b82811115620002295782518255916020019190600101906200020c565b5b5090506200023991906200023d565b5090565b5b80821115620002585760008160009055506001016200023e565b5090565b6000604051905090565b600080fd5b600080fd5b600080fd5b600080fd5b6000601f19601f8301169050919050565b7f4e487b7100000000000000000000000000000000000000000000000000000000600052604160045260246000fd5b620002c5826200027a565b810181811067ffffffffffffffff82111715620002e757620002e66200028b565b5b80604052505050565b6000620002fc6200025c565b90506200030a8282620002ba565b919050565b600067ffffffffffffffff8211156200032d576200032c6200028b565b5b62000338826200027a565b9050602081019050919050565b60005b838110156200036557808201518184015260208101905062000348565b8381111562000375576000848401525b50505050565b6000620003926200038c846200030f565b620002f0565b905082815260208101848484011115620003b157620003b062000275565b5b620003be84828562000345565b509392505050565b600082601f830112620003de57620003dd62000270565b5b8151620003f08482602086016200037b565b91505092915050565b6000819050919050565b6200040e81620003f9565b81146200041a57600080fd5b50565b6000815190506200042e8162000403565b92915050565b60008060006060848603121562000450576200044f62000266565b5b600084015167ffffffffffffffff8111156200047157620004706200026b565b5b6200047f86828701620003c6565b935050602084015167ffffffffffffffff811115620004a357620004a26200026b565b5b620004b186828701620003c6565b9250506040620004c4868287016200041d565b9150509250925092565b7f4e487b7100000000000000000000000000000000000000000000000000000000600052602260045260246000fd5b600060028204905060018216806200051657607f821691505b6020821081036200052c576200052b620004ce565b5b50919050565b61436380620005426000396000f3fe6080604052600436106101815760003560e01c80638387c6e1116100d1578063b2733b391161008a578063d575fe6411610064578063d575fe641461057b578063e985e9c5146105a6578063f2fde38b146105e3578063f5c6b96b1461060c57610181565b8063b2733b39146104ec578063b88d4fde14610515578063c87b56dd1461053e57610181565b80638387c6e1146103eb5780638da5cb5b146104285780639036c0501461045357806395d89b411461046f578063a02e51071461049a578063a22cb465146104c357610181565b8063150bde031161013e578063576f7ea711610118578063576f7ea71461031d5780636352211e1461035a57806370a0823114610397578063715018a6146103d457610181565b8063150bde03146102af57806323b872dd146102cb57806342842e0e146102f457610181565b806301ffc9a71461018657806304366881146101c357806306fdde03146101f3578063081812fc1461021e578063095ea7b31461025b57806314f710fe14610284575b600080fd5b34801561019257600080fd5b506101ad60048036038101906101a89190612c30565b61064e565b6040516101ba9190612c78565b60405180910390f35b6101dd60048036038101906101d89190612e0f565b610730565b6040516101ea9190612ea9565b60405180910390f35b3480156101ff57600080fd5b50610208610871565b6040516102159190612f4c565b60405180910390f35b34801561022a57600080fd5b5061024560048036038101906102409190612f6e565b610903565b6040516102529190612fdc565b60405180910390f35b34801561026757600080fd5b50610282600480360381019061027d9190613023565b610949565b005b34801561029057600080fd5b50610299610a60565b6040516102a69190612ea9565b60405180910390f35b6102c960048036038101906102c49190612f6e565b610c07565b005b3480156102d757600080fd5b506102f260048036038101906102ed9190613063565b610f15565b005b34801561030057600080fd5b5061031b60048036038101906103169190613063565b610f75565b005b34801561032957600080fd5b50610344600480360381019061033f9190612f6e565b610f95565b60405161035191906131bd565b60405180910390f35b34801561036657600080fd5b50610381600480360381019061037c9190612f6e565b61116b565b60405161038e9190612fdc565b60405180910390f35b3480156103a357600080fd5b506103be60048036038101906103b991906131df565b6111f1565b6040516103cb9190612ea9565b60405180910390f35b3480156103e057600080fd5b506103e96112a8565b005b3480156103f757600080fd5b50610412600480360381019061040d91906131df565b6112bc565b60405161041f9190612ea9565b60405180910390f35b34801561043457600080fd5b5061043d6112d4565b60405161044a9190612fdc565b60405180910390f35b61046d6004803603810190610468919061320c565b6112fe565b005b34801561047b57600080fd5b50610484611481565b6040516104919190612f4c565b60405180910390f35b3480156104a657600080fd5b506104c160048036038101906104bc9190612f6e565b611513565b005b3480156104cf57600080fd5b506104ea60048036038101906104e59190613278565b611674565b005b3480156104f857600080fd5b50610513600480360381019061050e91906132b8565b61168a565b005b34801561052157600080fd5b5061053c60048036038101906105379190613399565b611839565b005b34801561054a57600080fd5b5061056560048036038101906105609190612f6e565b61189b565b6040516105729190612f4c565b60405180910390f35b34801561058757600080fd5b50610590611903565b60405161059d9190612ea9565b60405180910390f35b3480156105b257600080fd5b506105cd60048036038101906105c8919061341c565b61190d565b6040516105da9190612c78565b60405180910390f35b3480156105ef57600080fd5b5061060a600480360381019061060591906131df565b6119a1565b005b34801561061857600080fd5b50610633600480360381019061062e9190612f6e565b611a24565b6040516106459695949392919061345c565b60405180910390f35b60007f80ac58cd000000000000000000000000000000000000000000000000000000007bffffffffffffffffffffffffffffffffffffffffffffffffffffffff1916827bffffffffffffffffffffffffffffffffffffffffffffffffffffffff1916148061071957507f5b5e139f000000000000000000000000000000000000000000000000000000007bffffffffffffffffffffffffffffffffffffffffffffffffffffffff1916827bffffffffffffffffffffffffffffffffffffffffffffffffffffffff1916145b80610729575061072882611b9d565b5b9050919050565b600061073c6007611c07565b60006107486007611c1d565b90506107543386611c2b565b6040518060c001604052808681526020013373ffffffffffffffffffffffffffffffffffffffff1681526020018581526020016000815260200184815260200160001515815250600a60008781526020019081526020016000206000820151816000015560208201518160010160006101000a81548173ffffffffffffffffffffffffffffffffffffffff021916908373ffffffffffffffffffffffffffffffffffffffff160217905550604082015181600201908051906020019061081b929190612ad3565b50606082015181600301556080820151816004019080519060200190610842929190612ad3565b5060a08201518160050160006101000a81548160ff021916908315150217905550905050809150509392505050565b606060008054610880906134fa565b80601f01602080910402602001604051908101604052809291908181526020018280546108ac906134fa565b80156108f95780601f106108ce576101008083540402835291602001916108f9565b820191906000526020600020905b8154815290600101906020018083116108dc57829003601f168201915b5050505050905090565b600061090e82611c49565b6004600083815260200190815260200160002060009054906101000a900473ffffffffffffffffffffffffffffffffffffffff169050919050565b60006109548261116b565b90508073ffffffffffffffffffffffffffffffffffffffff168373ffffffffffffffffffffffffffffffffffffffff16036109c4576040517f08c379a00000000000000000000000000000000000000000000000000000000081526004016109bb9061359d565b60405180910390fd5b8073ffffffffffffffffffffffffffffffffffffffff166109e3611c94565b73ffffffffffffffffffffffffffffffffffffffff161480610a125750610a1181610a0c611c94565b61190d565b5b610a51576040517f08c379a0000000000000000000000000000000000000000000000000000000008152600401610a489061362f565b60405180910390fd5b610a5b8383611c9c565b505050565b6000610a6c6007611c07565b6000610a786007611c1d565b9050610a843382611c2b565b6040518060c001604052808281526020013373ffffffffffffffffffffffffffffffffffffffff1681526020016040518060400160405280600481526020017f4e554c4c000000000000000000000000000000000000000000000000000000008152508152602001600081526020016040518060400160405280600481526020017f4e554c4c00000000000000000000000000000000000000000000000000000000815250815260200160001515815250600a60008381526020019081526020016000206000820151816000015560208201518160010160006101000a81548173ffffffffffffffffffffffffffffffffffffffff021916908373ffffffffffffffffffffffffffffffffffffffff1602179055506040820151816002019080519060200190610bb5929190612ad3565b50606082015181600301556080820151816004019080519060200190610bdc929190612ad3565b5060a08201518160050160006101000a81548160ff0219169083151502179055509050508091505090565b6000600a600083815260200190815260200160002090508060050160009054906101000a900460ff16610c6f576040517f08c379a0000000000000000000000000000000000000000000000000000000008152600401610c66906136c1565b60405180910390fd5b81816000015414610cb5576040517f08c379a0000000000000000000000000000000000000000000000000000000008152600401610cac9061372d565b60405180910390fd5b3373ffffffffffffffffffffffffffffffffffffffff168160010160009054906101000a900473ffffffffffffffffffffffffffffffffffffffff1673ffffffffffffffffffffffffffffffffffffffff1603610d47576040517f08c379a0000000000000000000000000000000000000000000000000000000008152600401610d3e906137bf565b60405180910390fd5b8060030154341015610d8e576040517f08c379a0000000000000000000000000000000000000000000000000000000008152600401610d8590613851565b60405180910390fd5b60008160010160009054906101000a900473ffffffffffffffffffffffffffffffffffffffff1690506000826003015490506000606460095483610dd291906138a0565b610ddc9190613929565b90508273ffffffffffffffffffffffffffffffffffffffff166108fc8284610e04919061395a565b9081150290604051600060405180830381858888f19350505050158015610e2f573d6000803e3d6000fd5b50600860009054906101000a900473ffffffffffffffffffffffffffffffffffffffff1673ffffffffffffffffffffffffffffffffffffffff166108fc829081150290604051600060405180830381858888f19350505050158015610e98573d6000803e3d6000fd5b50610ea4833387611d55565b338460010160006101000a81548173ffffffffffffffffffffffffffffffffffffffff021916908373ffffffffffffffffffffffffffffffffffffffff16021790555060008460050160006101000a81548160ff021916908315150217905550600084600301819055505050505050565b610f26610f20611c94565b8261204e565b610f65576040517f08c379a0000000000000000000000000000000000000000000000000000000008152600401610f5c90613a00565b60405180910390fd5b610f70838383611d55565b505050565b610f9083838360405180602001604052806000815250611839565b505050565b610f9d612b59565b600a60008381526020019081526020016000206040518060c0016040529081600082015481526020016001820160009054906101000a900473ffffffffffffffffffffffffffffffffffffffff1673ffffffffffffffffffffffffffffffffffffffff1673ffffffffffffffffffffffffffffffffffffffff16815260200160028201805461102b906134fa565b80601f0160208091040260200160405190810160405280929190818152602001828054611057906134fa565b80156110a45780601f10611079576101008083540402835291602001916110a4565b820191906000526020600020905b81548152906001019060200180831161108757829003601f168201915b50505050508152602001600382015481526020016004820180546110c7906134fa565b80601f01602080910402602001604051908101604052809291908181526020018280546110f3906134fa565b80156111405780601f1061111557610100808354040283529160200191611140565b820191906000526020600020905b81548152906001019060200180831161112357829003601f168201915b505050505081526020016005820160009054906101000a900460ff1615151515815250509050919050565b600080611177836120e3565b9050600073ffffffffffffffffffffffffffffffffffffffff168173ffffffffffffffffffffffffffffffffffffffff16036111e8576040517f08c379a00000000000000000000000000000000000000000000000000000000081526004016111df90613a6c565b60405180910390fd5b80915050919050565b60008073ffffffffffffffffffffffffffffffffffffffff168273ffffffffffffffffffffffffffffffffffffffff1603611261576040517f08c379a000000000000000000000000000000000000000000000000000000000815260040161125890613afe565b60405180910390fd5b600360008373ffffffffffffffffffffffffffffffffffffffff1673ffffffffffffffffffffffffffffffffffffffff168152602001908152602001600020549050919050565b6112b0612120565b6112ba600061219e565b565b600b6020528060005260406000206000915090505481565b6000600660009054906101000a900473ffffffffffffffffffffffffffffffffffffffff16905090565b6000600a600084815260200190815260200160002090508281600001541461135b576040517f08c379a00000000000000000000000000000000000000000000000000000000081526004016113529061372d565b60405180910390fd5b3373ffffffffffffffffffffffffffffffffffffffff168160010160009054906101000a900473ffffffffffffffffffffffffffffffffffffffff1673ffffffffffffffffffffffffffffffffffffffff16146113ed576040517f08c379a00000000000000000000000000000000000000000000000000000000081526004016113e490613b6a565b60405180910390fd5b6000600a600085815260200190815260200160002060050160006101000a81548160ff02191690831515021790555081600a600085815260200190815260200160002060010160006101000a81548173ffffffffffffffffffffffffffffffffffffffff021916908373ffffffffffffffffffffffffffffffffffffffff16021790555061147c338385610f75565b505050565b606060018054611490906134fa565b80601f01602080910402602001604051908101604052809291908181526020018280546114bc906134fa565b80156115095780601f106114de57610100808354040283529160200191611509565b820191906000526020600020905b8154815290600101906020018083116114ec57829003601f168201915b5050505050905090565b6000600a6000838152602001908152602001600020905081816000015414611570576040517f08c379a00000000000000000000000000000000000000000000000000000000081526004016115679061372d565b60405180910390fd5b3373ffffffffffffffffffffffffffffffffffffffff168160010160009054906101000a900473ffffffffffffffffffffffffffffffffffffffff1673ffffffffffffffffffffffffffffffffffffffff1614611602576040517f08c379a00000000000000000000000000000000000000000000000000000000081526004016115f990613bfc565b60405180910390fd5b8060050160009054906101000a900460ff16611653576040517f08c379a000000000000000000000000000000000000000000000000000000000815260040161164a90613c68565b60405180910390fd5b60008160050160006101000a81548160ff0219169083151502179055505050565b61168661167f611c94565b8383612264565b5050565b6000600a60008481526020019081526020016000209050828160000154146116e7576040517f08c379a00000000000000000000000000000000000000000000000000000000081526004016116de9061372d565b60405180910390fd5b6000821161172a576040517f08c379a000000000000000000000000000000000000000000000000000000000815260040161172190613cd4565b60405180910390fd5b3373ffffffffffffffffffffffffffffffffffffffff168160010160009054906101000a900473ffffffffffffffffffffffffffffffffffffffff1673ffffffffffffffffffffffffffffffffffffffff16146117bc576040517f08c379a00000000000000000000000000000000000000000000000000000000081526004016117b390613d66565b60405180910390fd5b8060050160009054906101000a900460ff161561180e576040517f08c379a000000000000000000000000000000000000000000000000000000000815260040161180590613dd2565b60405180910390fd5b60018160050160006101000a81548160ff021916908315150217905550818160030181905550505050565b61184a611844611c94565b8361204e565b611889576040517f08c379a000000000000000000000000000000000000000000000000000000000815260040161188090613a00565b60405180910390fd5b611895848484846123d0565b50505050565b60606118a682611c49565b60006118b061242c565b905060008151116118d057604051806020016040528060008152506118fb565b806118da84612443565b6040516020016118eb929190613e2e565b6040516020818303038152906040525b915050919050565b6000600954905090565b6000600560008473ffffffffffffffffffffffffffffffffffffffff1673ffffffffffffffffffffffffffffffffffffffff16815260200190815260200160002060008373ffffffffffffffffffffffffffffffffffffffff1673ffffffffffffffffffffffffffffffffffffffff16815260200190815260200160002060009054906101000a900460ff16905092915050565b6119a9612120565b600073ffffffffffffffffffffffffffffffffffffffff168173ffffffffffffffffffffffffffffffffffffffff1603611a18576040517f08c379a0000000000000000000000000000000000000000000000000000000008152600401611a0f90613ec4565b60405180910390fd5b611a218161219e565b50565b600a6020528060005260406000206000915090508060000154908060010160009054906101000a900473ffffffffffffffffffffffffffffffffffffffff1690806002018054611a73906134fa565b80601f0160208091040260200160405190810160405280929190818152602001828054611a9f906134fa565b8015611aec5780601f10611ac157610100808354040283529160200191611aec565b820191906000526020600020905b815481529060010190602001808311611acf57829003601f168201915b505050505090806003015490806004018054611b07906134fa565b80601f0160208091040260200160405190810160405280929190818152602001828054611b33906134fa565b8015611b805780601f10611b5557610100808354040283529160200191611b80565b820191906000526020600020905b815481529060010190602001808311611b6357829003601f168201915b5050505050908060050160009054906101000a900460ff16905086565b60007f01ffc9a7000000000000000000000000000000000000000000000000000000007bffffffffffffffffffffffffffffffffffffffffffffffffffffffff1916827bffffffffffffffffffffffffffffffffffffffffffffffffffffffff1916149050919050565b6001816000016000828254019250508190555050565b600081600001549050919050565b611c45828260405180602001604052806000815250612511565b5050565b611c528161256c565b611c91576040517f08c379a0000000000000000000000000000000000000000000000000000000008152600401611c8890613a6c565b60405180910390fd5b50565b600033905090565b816004600083815260200190815260200160002060006101000a81548173ffffffffffffffffffffffffffffffffffffffff021916908373ffffffffffffffffffffffffffffffffffffffff160217905550808273ffffffffffffffffffffffffffffffffffffffff16611d0f8361116b565b73ffffffffffffffffffffffffffffffffffffffff167f8c5be1e5ebec7d5bd14f71427d1e84f3dd0314c0f7b2291e5b200ac8c7c3b92560405160405180910390a45050565b8273ffffffffffffffffffffffffffffffffffffffff16611d758261116b565b73ffffffffffffffffffffffffffffffffffffffff1614611dcb576040517f08c379a0000000000000000000000000000000000000000000000000000000008152600401611dc290613f56565b60405180910390fd5b600073ffffffffffffffffffffffffffffffffffffffff168273ffffffffffffffffffffffffffffffffffffffff1603611e3a576040517f08c379a0000000000000000000000000000000000000000000000000000000008152600401611e3190613fe8565b60405180910390fd5b611e4783838360016125ad565b8273ffffffffffffffffffffffffffffffffffffffff16611e678261116b565b73ffffffffffffffffffffffffffffffffffffffff1614611ebd576040517f08c379a0000000000000000000000000000000000000000000000000000000008152600401611eb490613f56565b60405180910390fd5b6004600082815260200190815260200160002060006101000a81549073ffffffffffffffffffffffffffffffffffffffff02191690556001600360008573ffffffffffffffffffffffffffffffffffffffff1673ffffffffffffffffffffffffffffffffffffffff168152602001908152602001600020600082825403925050819055506001600360008473ffffffffffffffffffffffffffffffffffffffff1673ffffffffffffffffffffffffffffffffffffffff16815260200190815260200160002060008282540192505081905550816002600083815260200190815260200160002060006101000a81548173ffffffffffffffffffffffffffffffffffffffff021916908373ffffffffffffffffffffffffffffffffffffffff160217905550808273ffffffffffffffffffffffffffffffffffffffff168473ffffffffffffffffffffffffffffffffffffffff167fddf252ad1be2c89b69c2b068fc378daa952ba7f163c4a11628f55a4df523b3ef60405160405180910390a461204983838360016125b3565b505050565b60008061205a8361116b565b90508073ffffffffffffffffffffffffffffffffffffffff168473ffffffffffffffffffffffffffffffffffffffff16148061209c575061209b818561190d565b5b806120da57508373ffffffffffffffffffffffffffffffffffffffff166120c284610903565b73ffffffffffffffffffffffffffffffffffffffff16145b91505092915050565b60006002600083815260200190815260200160002060009054906101000a900473ffffffffffffffffffffffffffffffffffffffff169050919050565b612128611c94565b73ffffffffffffffffffffffffffffffffffffffff166121466112d4565b73ffffffffffffffffffffffffffffffffffffffff161461219c576040517f08c379a000000000000000000000000000000000000000000000000000000000815260040161219390614054565b60405180910390fd5b565b6000600660009054906101000a900473ffffffffffffffffffffffffffffffffffffffff16905081600660006101000a81548173ffffffffffffffffffffffffffffffffffffffff021916908373ffffffffffffffffffffffffffffffffffffffff1602179055508173ffffffffffffffffffffffffffffffffffffffff168173ffffffffffffffffffffffffffffffffffffffff167f8be0079c531659141344cd1fd0a4f28419497f9722a3daafe3b4186f6b6457e060405160405180910390a35050565b8173ffffffffffffffffffffffffffffffffffffffff168373ffffffffffffffffffffffffffffffffffffffff16036122d2576040517f08c379a00000000000000000000000000000000000000000000000000000000081526004016122c9906140c0565b60405180910390fd5b80600560008573ffffffffffffffffffffffffffffffffffffffff1673ffffffffffffffffffffffffffffffffffffffff16815260200190815260200160002060008473ffffffffffffffffffffffffffffffffffffffff1673ffffffffffffffffffffffffffffffffffffffff16815260200190815260200160002060006101000a81548160ff0219169083151502179055508173ffffffffffffffffffffffffffffffffffffffff168373ffffffffffffffffffffffffffffffffffffffff167f17307eab39ab6107e8899845ad3d59bd9653f200f220920489ca2b5937696c31836040516123c39190612c78565b60405180910390a3505050565b6123db848484611d55565b6123e7848484846125b9565b612426576040517f08c379a000000000000000000000000000000000000000000000000000000000815260040161241d90614152565b60405180910390fd5b50505050565b606060405180602001604052806000815250905090565b60606000600161245284612740565b01905060008167ffffffffffffffff81111561247157612470612ce4565b5b6040519080825280601f01601f1916602001820160405280156124a35781602001600182028036833780820191505090505b509050600082602001820190505b600115612506578080600190039150507f3031323334353637383961626364656600000000000000000000000000000000600a86061a8153600a85816124fa576124f96138fa565b5b049450600085036124b1575b819350505050919050565b61251b8383612893565b61252860008484846125b9565b612567576040517f08c379a000000000000000000000000000000000000000000000000000000000815260040161255e90614152565b60405180910390fd5b505050565b60008073ffffffffffffffffffffffffffffffffffffffff1661258e836120e3565b73ffffffffffffffffffffffffffffffffffffffff1614159050919050565b50505050565b50505050565b60006125da8473ffffffffffffffffffffffffffffffffffffffff16612ab0565b15612733578373ffffffffffffffffffffffffffffffffffffffff1663150b7a02612603611c94565b8786866040518563ffffffff1660e01b815260040161262594939291906141c7565b6020604051808303816000875af192505050801561266157506040513d601f19601f8201168201806040525081019061265e9190614228565b60015b6126e3573d8060008114612691576040519150601f19603f3d011682016040523d82523d6000602084013e612696565b606091505b5060008151036126db576040517f08c379a00000000000000000000000000000000000000000000000000000000081526004016126d290614152565b60405180910390fd5b805181602001fd5b63150b7a0260e01b7bffffffffffffffffffffffffffffffffffffffffffffffffffffffff1916817bffffffffffffffffffffffffffffffffffffffffffffffffffffffff191614915050612738565b600190505b949350505050565b600080600090507a184f03e93ff9f4daa797ed6e38ed64bf6a1f010000000000000000831061279e577a184f03e93ff9f4daa797ed6e38ed64bf6a1f0100000000000000008381612794576127936138fa565b5b0492506040810190505b6d04ee2d6d415b85acef810000000083106127db576d04ee2d6d415b85acef810000000083816127d1576127d06138fa565b5b0492506020810190505b662386f26fc10000831061280a57662386f26fc100008381612800576127ff6138fa565b5b0492506010810190505b6305f5e1008310612833576305f5e1008381612829576128286138fa565b5b0492506008810190505b612710831061285857612710838161284e5761284d6138fa565b5b0492506004810190505b6064831061287b5760648381612871576128706138fa565b5b0492506002810190505b600a831061288a576001810190505b80915050919050565b600073ffffffffffffffffffffffffffffffffffffffff168273ffffffffffffffffffffffffffffffffffffffff1603612902576040517f08c379a00000000000000000000000000000000000000000000000000000000081526004016128f9906142a1565b60405180910390fd5b61290b8161256c565b1561294b576040517f08c379a00000000000000000000000000000000000000000000000000000000081526004016129429061430d565b60405180910390fd5b6129596000838360016125ad565b6129628161256c565b156129a2576040517f08c379a00000000000000000000000000000000000000000000000000000000081526004016129999061430d565b60405180910390fd5b6001600360008473ffffffffffffffffffffffffffffffffffffffff1673ffffffffffffffffffffffffffffffffffffffff16815260200190815260200160002060008282540192505081905550816002600083815260200190815260200160002060006101000a81548173ffffffffffffffffffffffffffffffffffffffff021916908373ffffffffffffffffffffffffffffffffffffffff160217905550808273ffffffffffffffffffffffffffffffffffffffff16600073ffffffffffffffffffffffffffffffffffffffff167fddf252ad1be2c89b69c2b068fc378daa952ba7f163c4a11628f55a4df523b3ef60405160405180910390a4612aac6000838360016125b3565b5050565b6000808273ffffffffffffffffffffffffffffffffffffffff163b119050919050565b828054612adf906134fa565b90600052602060002090601f016020900481019282612b015760008555612b48565b82601f10612b1a57805160ff1916838001178555612b48565b82800160010185558215612b48579182015b82811115612b47578251825591602001919060010190612b2c565b5b509050612b559190612ba7565b5090565b6040518060c0016040528060008152602001600073ffffffffffffffffffffffffffffffffffffffff1681526020016060815260200160008152602001606081526020016000151581525090565b5b80821115612bc0576000816000905550600101612ba8565b5090565b6000604051905090565b600080fd5b600080fd5b60007fffffffff0000000000000000000000000000000000000000000000000000000082169050919050565b612c0d81612bd8565b8114612c1857600080fd5b50565b600081359050612c2a81612c04565b92915050565b600060208284031215612c4657612c45612bce565b5b6000612c5484828501612c1b565b91505092915050565b60008115159050919050565b612c7281612c5d565b82525050565b6000602082019050612c8d6000830184612c69565b92915050565b6000819050919050565b612ca681612c93565b8114612cb157600080fd5b50565b600081359050612cc381612c9d565b92915050565b600080fd5b600080fd5b6000601f19601f8301169050919050565b7f4e487b7100000000000000000000000000000000000000000000000000000000600052604160045260246000fd5b612d1c82612cd3565b810181811067ffffffffffffffff82111715612d3b57612d3a612ce4565b5b80604052505050565b6000612d4e612bc4565b9050612d5a8282612d13565b919050565b600067ffffffffffffffff821115612d7a57612d79612ce4565b5b612d8382612cd3565b9050602081019050919050565b82818337600083830152505050565b6000612db2612dad84612d5f565b612d44565b905082815260208101848484011115612dce57612dcd612cce565b5b612dd9848285612d90565b509392505050565b600082601f830112612df657612df5612cc9565b5b8135612e06848260208601612d9f565b91505092915050565b600080600060608486031215612e2857612e27612bce565b5b6000612e3686828701612cb4565b935050602084013567ffffffffffffffff811115612e5757612e56612bd3565b5b612e6386828701612de1565b925050604084013567ffffffffffffffff811115612e8457612e83612bd3565b5b612e9086828701612de1565b9150509250925092565b612ea381612c93565b82525050565b6000602082019050612ebe6000830184612e9a565b92915050565b600081519050919050565b600082825260208201905092915050565b60005b83811015612efe578082015181840152602081019050612ee3565b83811115612f0d576000848401525b50505050565b6000612f1e82612ec4565b612f288185612ecf565b9350612f38818560208601612ee0565b612f4181612cd3565b840191505092915050565b60006020820190508181036000830152612f668184612f13565b905092915050565b600060208284031215612f8457612f83612bce565b5b6000612f9284828501612cb4565b91505092915050565b600073ffffffffffffffffffffffffffffffffffffffff82169050919050565b6000612fc682612f9b565b9050919050565b612fd681612fbb565b82525050565b6000602082019050612ff16000830184612fcd565b92915050565b61300081612fbb565b811461300b57600080fd5b50565b60008135905061301d81612ff7565b92915050565b6000806040838503121561303a57613039612bce565b5b60006130488582860161300e565b925050602061305985828601612cb4565b9150509250929050565b60008060006060848603121561307c5761307b612bce565b5b600061308a8682870161300e565b935050602061309b8682870161300e565b92505060406130ac86828701612cb4565b9150509250925092565b6130bf81612c93565b82525050565b6130ce81612fbb565b82525050565b600082825260208201905092915050565b60006130f082612ec4565b6130fa81856130d4565b935061310a818560208601612ee0565b61311381612cd3565b840191505092915050565b61312781612c5d565b82525050565b600060c08301600083015161314560008601826130b6565b50602083015161315860208601826130c5565b506040830151848203604086015261317082826130e5565b915050606083015161318560608601826130b6565b506080830151848203608086015261319d82826130e5565b91505060a08301516131b260a086018261311e565b508091505092915050565b600060208201905081810360008301526131d7818461312d565b905092915050565b6000602082840312156131f5576131f4612bce565b5b60006132038482850161300e565b91505092915050565b6000806040838503121561322357613222612bce565b5b600061323185828601612cb4565b92505060206132428582860161300e565b9150509250929050565b61325581612c5d565b811461326057600080fd5b50565b6000813590506132728161324c565b92915050565b6000806040838503121561328f5761328e612bce565b5b600061329d8582860161300e565b92505060206132ae85828601613263565b9150509250929050565b600080604083850312156132cf576132ce612bce565b5b60006132dd85828601612cb4565b92505060206132ee85828601612cb4565b9150509250929050565b600067ffffffffffffffff82111561331357613312612ce4565b5b61331c82612cd3565b9050602081019050919050565b600061333c613337846132f8565b612d44565b90508281526020810184848401111561335857613357612cce565b5b613363848285612d90565b509392505050565b600082601f8301126133805761337f612cc9565b5b8135613390848260208601613329565b91505092915050565b600080600080608085870312156133b3576133b2612bce565b5b60006133c18782880161300e565b94505060206133d28782880161300e565b93505060406133e387828801612cb4565b925050606085013567ffffffffffffffff81111561340457613403612bd3565b5b6134108782880161336b565b91505092959194509250565b6000806040838503121561343357613432612bce565b5b60006134418582860161300e565b92505060206134528582860161300e565b9150509250929050565b600060c0820190506134716000830189612e9a565b61347e6020830188612fcd565b81810360408301526134908187612f13565b905061349f6060830186612e9a565b81810360808301526134b18185612f13565b90506134c060a0830184612c69565b979650505050505050565b7f4e487b7100000000000000000000000000000000000000000000000000000000600052602260045260246000fd5b6000600282049050600182168061351257607f821691505b602082108103613525576135246134cb565b5b50919050565b7f4552433732313a20617070726f76616c20746f2063757272656e74206f776e6560008201527f7200000000000000000000000000000000000000000000000000000000000000602082015250565b6000613587602183612ecf565b91506135928261352b565b604082019050919050565b600060208201905081810360008301526135b68161357a565b9050919050565b7f4552433732313a20617070726f76652063616c6c6572206973206e6f7420746f60008201527f6b656e206f776e6572206f7220617070726f76656420666f7220616c6c000000602082015250565b6000613619603d83612ecf565b9150613624826135bd565b604082019050919050565b600060208201905081810360008301526136488161360c565b9050919050565b7f546865204e4654206e6565647320746f206265206c697374656420746f20626560008201527f2070757263686173656400000000000000000000000000000000000000000000602082015250565b60006136ab602a83612ecf565b91506136b68261364f565b604082019050919050565b600060208201905081810360008301526136da8161369e565b9050919050565b7f546865204e4654206d7573742065786973740000000000000000000000000000600082015250565b6000613717601283612ecf565b9150613722826136e1565b602082019050919050565b600060208201905081810360008301526137468161370a565b9050919050565b7f41204e46542063616e206e6f742062652070757263686173656420627920697460008201527f2773206f776e6572000000000000000000000000000000000000000000000000602082015250565b60006137a9602883612ecf565b91506137b48261374d565b604082019050919050565b600060208201905081810360008301526137d88161379c565b9050919050565b7f54686520627579657220646f6573206e6f74206861766520656e6f756768206d60008201527f6f6e657900000000000000000000000000000000000000000000000000000000602082015250565b600061383b602483612ecf565b9150613846826137df565b604082019050919050565b6000602082019050818103600083015261386a8161382e565b9050919050565b7f4e487b7100000000000000000000000000000000000000000000000000000000600052601160045260246000fd5b60006138ab82612c93565b91506138b683612c93565b9250817fffffffffffffffffffffffffffffffffffffffffffffffffffffffffffffffff04831182151516156138ef576138ee613871565b5b828202905092915050565b7f4e487b7100000000000000000000000000000000000000000000000000000000600052601260045260246000fd5b600061393482612c93565b915061393f83612c93565b92508261394f5761394e6138fa565b5b828204905092915050565b600061396582612c93565b915061397083612c93565b92508282101561398357613982613871565b5b828203905092915050565b7f4552433732313a2063616c6c6572206973206e6f7420746f6b656e206f776e6560008201527f72206f7220617070726f76656400000000000000000000000000000000000000602082015250565b60006139ea602d83612ecf565b91506139f58261398e565b604082019050919050565b60006020820190508181036000830152613a19816139dd565b9050919050565b7f4552433732313a20696e76616c696420746f6b656e2049440000000000000000600082015250565b6000613a56601883612ecf565b9150613a6182613a20565b602082019050919050565b60006020820190508181036000830152613a8581613a49565b9050919050565b7f4552433732313a2061646472657373207a65726f206973206e6f74206120766160008201527f6c6964206f776e65720000000000000000000000000000000000000000000000602082015250565b6000613ae8602983612ecf565b9150613af382613a8c565b604082019050919050565b60006020820190508181036000830152613b1781613adb565b9050919050565b7f43757272656e74207573657220646f206e6f74206f776e2074686973204e4654600082015250565b6000613b54602083612ecf565b9150613b5f82613b1e565b602082019050919050565b60006020820190508181036000830152613b8381613b47565b9050919050565b7f546865204e46542063616e206f6e6c792062652072656d6f766564206279206f60008201527f776e657200000000000000000000000000000000000000000000000000000000602082015250565b6000613be6602483612ecf565b9150613bf182613b8a565b604082019050919050565b60006020820190508181036000830152613c1581613bd9565b9050919050565b7f546865204e465420686173206e6f74206265656e206c69737465642079657400600082015250565b6000613c52601f83612ecf565b9150613c5d82613c1c565b602082019050919050565b60006020820190508181036000830152613c8181613c45565b9050919050565b7f546865207072696365206d75737420626520706f736974697665000000000000600082015250565b6000613cbe601a83612ecf565b9150613cc982613c88565b602082019050919050565b60006020820190508181036000830152613ced81613cb1565b9050919050565b7f4f6e6c7920746865206f6e7765722063616e206c6973742061204e465420666f60008201527f722073616c650000000000000000000000000000000000000000000000000000602082015250565b6000613d50602683612ecf565b9150613d5b82613cf4565b604082019050919050565b60006020820190508181036000830152613d7f81613d43565b9050919050565b7f546865204e465420697320616c7265616479206c697374656400000000000000600082015250565b6000613dbc601983612ecf565b9150613dc782613d86565b602082019050919050565b60006020820190508181036000830152613deb81613daf565b9050919050565b600081905092915050565b6000613e0882612ec4565b613e128185613df2565b9350613e22818560208601612ee0565b80840191505092915050565b6000613e3a8285613dfd565b9150613e468284613dfd565b91508190509392505050565b7f4f776e61626c653a206e6577206f776e657220697320746865207a65726f206160008201527f6464726573730000000000000000000000000000000000000000000000000000602082015250565b6000613eae602683612ecf565b9150613eb982613e52565b604082019050919050565b60006020820190508181036000830152613edd81613ea1565b9050919050565b7f4552433732313a207472616e736665722066726f6d20696e636f72726563742060008201527f6f776e6572000000000000000000000000000000000000000000000000000000602082015250565b6000613f40602583612ecf565b9150613f4b82613ee4565b604082019050919050565b60006020820190508181036000830152613f6f81613f33565b9050919050565b7f4552433732313a207472616e7366657220746f20746865207a65726f2061646460008201527f7265737300000000000000000000000000000000000000000000000000000000602082015250565b6000613fd2602483612ecf565b9150613fdd82613f76565b604082019050919050565b6000602082019050818103600083015261400181613fc5565b9050919050565b7f4f776e61626c653a2063616c6c6572206973206e6f7420746865206f776e6572600082015250565b600061403e602083612ecf565b915061404982614008565b602082019050919050565b6000602082019050818103600083015261406d81614031565b9050919050565b7f4552433732313a20617070726f766520746f2063616c6c657200000000000000600082015250565b60006140aa601983612ecf565b91506140b582614074565b602082019050919050565b600060208201905081810360008301526140d98161409d565b9050919050565b7f4552433732313a207472616e7366657220746f206e6f6e20455243373231526560008201527f63656976657220696d706c656d656e7465720000000000000000000000000000602082015250565b600061413c603283612ecf565b9150614147826140e0565b604082019050919050565b6000602082019050818103600083015261416b8161412f565b9050919050565b600081519050919050565b600082825260208201905092915050565b600061419982614172565b6141a3818561417d565b93506141b3818560208601612ee0565b6141bc81612cd3565b840191505092915050565b60006080820190506141dc6000830187612fcd565b6141e96020830186612fcd565b6141f66040830185612e9a565b8181036060830152614208818461418e565b905095945050505050565b60008151905061422281612c04565b92915050565b60006020828403121561423e5761423d612bce565b5b600061424c84828501614213565b91505092915050565b7f4552433732313a206d696e7420746f20746865207a65726f2061646472657373600082015250565b600061428b602083612ecf565b915061429682614255565b602082019050919050565b600060208201905081810360008301526142ba8161427e565b9050919050565b7f4552433732313a20746f6b656e20616c7265616479206d696e74656400000000600082015250565b60006142f7601c83612ecf565b9150614302826142c1565b602082019050919050565b60006020820190508181036000830152614326816142ea565b905091905056fea2646970667358221220376bf2874d3043965ddf3639e42c337093f3032eb880bc3b1c1222095aa5704764736f6c634300080d0033",
  "immutableReferences": {},
  "source": "// SPDX-License-Identifier: UNLICENSED\npragma solidity ^0.8.13;\n\nimport \"@openzeppelin/contracts/utils/Counters.sol\";\nimport \"@openzeppelin/contracts/token/ERC721/ERC721.sol\";\nimport \"@openzeppelin/contracts/access/Ownable.sol\";\n\ncontract NFTMarketplace is ERC721, Ownable{\n    using Counters for Counters.Counter;\n    Counters.Counter private _marketTokenCounts;\n\n    // The structure to store info about a NFT in blockchain\n    struct NFT {\n        uint id;\n        address owner;\n        string name;\n        uint price;\n        string description;\n        bool is_listed;\n    }\n\n    address payable private marketOwner;\n    uint private commision_percentage;\n\n    //mapping from token id to token information\n    mapping(uint => NFT) public idToToken;\n\n    //mapping from a user address to user's fund\n    mapping(address => uint) public userFunds;\n\n    constructor(string memory name, string memory symbol, uint percentage) ERC721(name, symbol){\n        commision_percentage = percentage;\n        marketOwner = payable(msg.sender);\n    }\n\n    // Get NFT\n    function getNFT(uint id) public view returns (NFT memory) {\n        return idToToken[id];\n    }\n\n    // Get commision percentage\n    function commissionPercentage() public view returns (uint) {\n        return commision_percentage;\n    }\n\n    // mint a new NFT and returns the id\n    function mintNFT() public returns (uint) {\n        // increment the tokenId counter, which is keep track of the number of mined NFTs\n        _marketTokenCounts.increment();\n        uint newTokenId = _marketTokenCounts.current();\n        _safeMint(msg.sender, newTokenId);\n        idToToken[newTokenId] = NFT(\n            newTokenId, \n            msg.sender, \n            \"NULL\", \n            0 , \n            \"NULL\", \n            false\n            );\n        return newTokenId;\n    }\n\n    // Create NFT\n    function createNFT(uint id, string memory name, string memory description) public payable returns (uint){\n        _marketTokenCounts.increment();\n        uint newTokenId = _marketTokenCounts.current();\n        _safeMint(msg.sender, id);\n        idToToken[id] = NFT(\n            id,\n            msg.sender,\n            name,\n            0,\n            description,\n            false\n        );\n        return newTokenId;\n    }\n\n    // transfer NFT function\n    function transferNFT(uint id, address toAddress) public payable{\n        NFT storage item = idToToken[id];\n        require(item.id == id, \"The NFT must exist\");\n        require(item.owner == msg.sender, \"Current user do not own this NFT\");\n        //update the details of the token\n        idToToken[id].is_listed = false;\n        idToToken[id].owner = toAddress;\n        //Actually transfer the token to the new owner\n        // setApprovalForAll(fromAddress, true);\n        safeTransferFrom(msg.sender, toAddress, id);\n    }\n\n    // list NFT for sale\n    function listNFTForSale(uint id, uint price) public {\n        NFT storage item = idToToken[id];\n        require(item.id == id, \"The NFT must exist\");\n        require(price > 0, \"The price must be positive\");\n        require(item.owner == msg.sender, \"Only the onwer can list a NFT for sale\");\n        require(!item.is_listed, \"The NFT is already listed\");\n        item.is_listed = true;\n        item.price = price;\n    }\n\n    // remove NFT From sale\n    function removeNFTFromSale(uint id) public {\n        NFT storage item = idToToken[id];\n        require(item.id == id, \"The NFT must exist\");\n        require(item.owner == msg.sender, \"The NFT can only be removed by owner\");\n        require(item.is_listed, \"The NFT has not been listed yet\");\n        item.is_listed = false;\n    }\n\n    function purchaseNFT(uint id) public payable {\n        NFT storage item = idToToken[id];\n        require(item.is_listed, \"The NFT needs to be listed to be purchased\");\n        require(item.id == id, \"The NFT must exist\");\n        require(item.owner != msg.sender, \"A NFT can not be purchased by it's owner\");\n        require(msg.value >= item.price, \"The buyer does not have enough money\");\n\n        // Transfer money to the seller and the market owner\n        address payable seller = payable(item.owner);\n        uint256 sale_amount = item.price;\n        uint256 commision_fee = sale_amount * (commision_percentage) / 100;\n        seller.transfer(sale_amount - commision_fee);\n        marketOwner.transfer(commision_fee);\n\n        // Transfer the NFT to the new owner and remove it from the market\n        _transfer(seller, msg.sender, id);\n        // transferNFT(id, msg.sender);\n        item.owner = msg.sender;\n        item.is_listed = false;\n        item.price = 0;\n    }\n}\n",
  "sourcePath": "/Users/haohsinhsu/Desktop/ELEN6883-FinalProject/contracts/NFTMarketplace.sol",
  "compiler": {
    "name": "solc",
    "version": "0.8.13+commit.abaa5c0e.Emscripten.clang"
  },
  "schemaVersion": "3.4.13",
  "updatedAt": "2023-05-07T16:09:40.758Z",
  "devdoc": {
    "kind": "dev",
    "methods": {
      "approve(address,uint256)": {
        "details": "See {IERC721-approve}."
      },
      "balanceOf(address)": {
        "details": "See {IERC721-balanceOf}."
      },
      "getApproved(uint256)": {
        "details": "See {IERC721-getApproved}."
      },
      "isApprovedForAll(address,address)": {
        "details": "See {IERC721-isApprovedForAll}."
      },
      "name()": {
        "details": "See {IERC721Metadata-name}."
      },
      "owner()": {
        "details": "Returns the address of the current owner."
      },
      "ownerOf(uint256)": {
        "details": "See {IERC721-ownerOf}."
      },
      "renounceOwnership()": {
        "details": "Leaves the contract without owner. It will not be possible to call `onlyOwner` functions anymore. Can only be called by the current owner. NOTE: Renouncing ownership will leave the contract without an owner, thereby removing any functionality that is only available to the owner."
      },
      "safeTransferFrom(address,address,uint256)": {
        "details": "See {IERC721-safeTransferFrom}."
      },
      "safeTransferFrom(address,address,uint256,bytes)": {
        "details": "See {IERC721-safeTransferFrom}."
      },
      "setApprovalForAll(address,bool)": {
        "details": "See {IERC721-setApprovalForAll}."
      },
      "supportsInterface(bytes4)": {
        "details": "See {IERC165-supportsInterface}."
      },
      "symbol()": {
        "details": "See {IERC721Metadata-symbol}."
      },
      "tokenURI(uint256)": {
        "details": "See {IERC721Metadata-tokenURI}."
      },
      "transferFrom(address,address,uint256)": {
        "details": "See {IERC721-transferFrom}."
      },
      "transferOwnership(address)": {
        "details": "Transfers ownership of the contract to a new account (`newOwner`). Can only be called by the current owner."
      }
    },
    "version": 1
  },
  "userdoc": {
    "kind": "user",
    "methods": {},
    "version": 1
  }
}