{
  "contractName": "NFTMarketplace",
  "abi": [
    {
      "inputs": [
        {
          "internalType": "address",
          "name": "_NFTAddress",
          "type": "address"
        }
      ],
      "stateMutability": "nonpayable",
      "type": "constructor"
    },
    {
      "anonymous": false,
      "inputs": [
        {
          "indexed": true,
          "internalType": "uint256",
          "name": "token_idx",
          "type": "uint256"
        },
        {
          "indexed": false,
          "internalType": "uint256",
          "name": "unique_id",
          "type": "uint256"
        },
        {
          "indexed": false,
          "internalType": "bool",
          "name": "is_sold",
          "type": "bool"
        },
        {
          "indexed": false,
          "internalType": "address",
          "name": "newOwner",
          "type": "address"
        }
      ],
      "name": "BuyToken",
      "type": "event"
    },
    {
      "anonymous": false,
      "inputs": [
        {
          "indexed": true,
          "internalType": "uint256",
          "name": "token_idx",
          "type": "uint256"
        },
        {
          "indexed": false,
          "internalType": "uint256",
          "name": "unique_id",
          "type": "uint256"
        },
        {
          "indexed": false,
          "internalType": "bool",
          "name": "is_listed",
          "type": "bool"
        }
      ],
      "name": "ListedTokenRemoved",
      "type": "event"
    },
    {
      "anonymous": false,
      "inputs": [
        {
          "indexed": true,
          "internalType": "uint256",
          "name": "token_idx",
          "type": "uint256"
        },
        {
          "indexed": false,
          "internalType": "uint256",
          "name": "unique_id",
          "type": "uint256"
        },
        {
          "indexed": false,
          "internalType": "address",
          "name": "owner",
          "type": "address"
        },
        {
          "indexed": false,
          "internalType": "address",
          "name": "seller",
          "type": "address"
        },
        {
          "indexed": false,
          "internalType": "string",
          "name": "name",
          "type": "string"
        },
        {
          "indexed": false,
          "internalType": "string",
          "name": "description",
          "type": "string"
        },
        {
          "indexed": false,
          "internalType": "bool",
          "name": "is_sold",
          "type": "bool"
        },
        {
          "indexed": false,
          "internalType": "bool",
          "name": "is_listed",
          "type": "bool"
        }
      ],
      "name": "TokenCreated",
      "type": "event"
    },
    {
      "anonymous": false,
      "inputs": [
        {
          "indexed": true,
          "internalType": "uint256",
          "name": "token_idx",
          "type": "uint256"
        },
        {
          "indexed": false,
          "internalType": "uint256",
          "name": "unique_id",
          "type": "uint256"
        },
        {
          "indexed": false,
          "internalType": "uint256",
          "name": "price",
          "type": "uint256"
        },
        {
          "indexed": false,
          "internalType": "bool",
          "name": "is_listed",
          "type": "bool"
        }
      ],
      "name": "TokenListed",
      "type": "event"
    },
    {
      "inputs": [
        {
          "internalType": "uint256",
          "name": "",
          "type": "uint256"
        }
      ],
      "name": "idToToken",
      "outputs": [
        {
          "internalType": "uint256",
          "name": "token_idx",
          "type": "uint256"
        },
        {
          "internalType": "uint256",
          "name": "unique_id",
          "type": "uint256"
        },
        {
          "internalType": "address payable",
          "name": "owner",
          "type": "address"
        },
        {
          "internalType": "address payable",
          "name": "seller",
          "type": "address"
        },
        {
          "internalType": "string",
          "name": "name",
          "type": "string"
        },
        {
          "internalType": "uint256",
          "name": "price",
          "type": "uint256"
        },
        {
          "internalType": "string",
          "name": "description",
          "type": "string"
        },
        {
          "internalType": "bool",
          "name": "is_sold",
          "type": "bool"
        },
        {
          "internalType": "bool",
          "name": "is_listed",
          "type": "bool"
        }
      ],
      "stateMutability": "view",
      "type": "function",
      "constant": true
    },
    {
      "inputs": [
        {
          "internalType": "address",
          "name": "",
          "type": "address"
        }
      ],
      "name": "userFunds",
      "outputs": [
        {
          "internalType": "uint256",
          "name": "",
          "type": "uint256"
        }
      ],
      "stateMutability": "view",
      "type": "function",
      "constant": true
    },
    {
      "inputs": [
        {
          "internalType": "uint256",
          "name": "id",
          "type": "uint256"
        },
        {
          "internalType": "string",
          "name": "name",
          "type": "string"
        },
        {
          "internalType": "string",
          "name": "description",
          "type": "string"
        }
      ],
      "name": "createNFT",
      "outputs": [
        {
          "internalType": "uint256",
          "name": "",
          "type": "uint256"
        }
      ],
      "stateMutability": "payable",
      "type": "function",
      "payable": true
    },
    {
      "inputs": [
        {
          "internalType": "uint256",
          "name": "id",
          "type": "uint256"
        }
      ],
      "name": "transferNFT",
      "outputs": [],
      "stateMutability": "payable",
      "type": "function",
      "payable": true
    },
    {
      "inputs": [
        {
          "internalType": "uint256",
          "name": "id",
          "type": "uint256"
        },
        {
          "internalType": "uint256",
          "name": "price",
          "type": "uint256"
        }
      ],
      "name": "listNFTForSale",
      "outputs": [],
      "stateMutability": "nonpayable",
      "type": "function"
    },
    {
      "inputs": [
        {
          "internalType": "uint256",
          "name": "id",
          "type": "uint256"
        }
      ],
      "name": "removeNFTFromSale",
      "outputs": [],
      "stateMutability": "nonpayable",
      "type": "function"
    },
    {
      "inputs": [
        {
          "internalType": "uint256",
          "name": "id",
          "type": "uint256"
        }
      ],
      "name": "purchaseNFT",
      "outputs": [],
      "stateMutability": "payable",
      "type": "function",
      "payable": true
    },
    {
      "inputs": [],
      "name": "claimFunds",
      "outputs": [],
      "stateMutability": "payable",
      "type": "function",
      "payable": true
    }
  ],
  "bytecode": "0x608060405267016345785d8a00006002553480156200001d57600080fd5b5060405162001b4438038062001b448339818101604052810190620000439190620000f5565b80600360006101000a81548173ffffffffffffffffffffffffffffffffffffffff021916908373ffffffffffffffffffffffffffffffffffffffff1602179055505062000127565b600080fd5b600073ffffffffffffffffffffffffffffffffffffffff82169050919050565b6000620000bd8262000090565b9050919050565b620000cf81620000b0565b8114620000db57600080fd5b50565b600081519050620000ef81620000c4565b92915050565b6000602082840312156200010e576200010d6200008b565b5b60006200011e84828501620000de565b91505092915050565b611a0d80620001376000396000f3fe60806040526004361061007b5760003560e01c8063a02e51071161004e578063a02e510714610125578063ac3077731461014e578063b2733b3914610158578063f5c6b96b146101815761007b565b80630436688114610080578063150bde03146100b0578063249e10c5146100cc5780638387c6e1146100e8575b600080fd5b61009a60048036038101906100959190610f76565b6101c6565b6040516100a79190611010565b60405180910390f35b6100ca60048036038101906100c5919061102b565b6103e0565b005b6100e660048036038101906100e1919061102b565b610624565b005b3480156100f457600080fd5b5061010f600480360381019061010a91906110b6565b61076b565b60405161011c9190611010565b60405180910390f35b34801561013157600080fd5b5061014c6004803603810190610147919061102b565b610783565b005b610156610975565b005b34801561016457600080fd5b5061017f600480360381019061017a91906110e3565b610977565b005b34801561018d57600080fd5b506101a860048036038101906101a3919061102b565b610b67565b6040516101bd999897969594939291906111e7565b60405180910390f35b60006101d26001610d1f565b60006101de6001610d35565b90506040518061012001604052808281526020018681526020013073ffffffffffffffffffffffffffffffffffffffff1681526020013373ffffffffffffffffffffffffffffffffffffffff168152602001858152602001600081526020018481526020016000151581526020016000151581525060046000878152602001908152602001600020600082015181600001556020820151816001015560408201518160020160006101000a81548173ffffffffffffffffffffffffffffffffffffffff021916908373ffffffffffffffffffffffffffffffffffffffff16021790555060608201518160030160006101000a81548173ffffffffffffffffffffffffffffffffffffffff021916908373ffffffffffffffffffffffffffffffffffffffff1602179055506080820151816004019080519060200190610324929190610d43565b5060a0820151816005015560c082015181600601908051906020019061034b929190610d43565b5060e08201518160070160006101000a81548160ff0219169083151502179055506101008201518160070160016101000a81548160ff021916908315150217905550905050807f0826400091b721d3643f8233d23e5c26df22e1e4e1ecccedcddc5923d953980c86303388886000806040516103cd97969594939291906112e1565b60405180910390a2809150509392505050565b60006004600083815260200190815260200160002090508181600101541461043d576040517f08c379a0000000000000000000000000000000000000000000000000000000008152600401610434906113aa565b60405180910390fd5b3373ffffffffffffffffffffffffffffffffffffffff168160020160009054906101000a900473ffffffffffffffffffffffffffffffffffffffff1673ffffffffffffffffffffffffffffffffffffffff16036104cf576040517f08c379a00000000000000000000000000000000000000000000000000000000081526004016104c69061143c565b60405180910390fd5b8060070160009054906101000a900460ff1615610521576040517f08c379a0000000000000000000000000000000000000000000000000000000008152600401610518906114a8565b60405180910390fd5b8060070160019054906101000a900460ff16610572576040517f08c379a000000000000000000000000000000000000000000000000000000000815260040161056990611514565b60405180910390fd5b80600501543410156105b9576040517f08c379a00000000000000000000000000000000000000000000000000000000081526004016105b0906115a6565b60405180910390fd5b6105c282610624565b60018160070160006101000a81548160ff02191690831515021790555080600001547f4efa54f7934fae71b63b5544bb4bfb4a53080b7c7c7c32ebe9590713e120c4e083600133604051610618939291906115d5565b60405180910390a25050565b60016004600083815260200190815260200160002060070160006101000a81548160ff02191690831515021790555060006004600083815260200190815260200160002060070160016101000a81548160ff021916908315150217905550336004600083815260200190815260200160002060030160006101000a81548173ffffffffffffffffffffffffffffffffffffffff021916908373ffffffffffffffffffffffffffffffffffffffff160217905550600360009054906101000a900473ffffffffffffffffffffffffffffffffffffffff1673ffffffffffffffffffffffffffffffffffffffff166323b872dd3033846040518463ffffffff1660e01b81526004016107369392919061160c565b600060405180830381600087803b15801561075057600080fd5b505af1158015610764573d6000803e3d6000fd5b5050505050565b60056020528060005260406000206000915090505481565b6000600460008381526020019081526020016000209050818160010154146107e0576040517f08c379a00000000000000000000000000000000000000000000000000000000081526004016107d7906113aa565b60405180910390fd5b3373ffffffffffffffffffffffffffffffffffffffff168160020160009054906101000a900473ffffffffffffffffffffffffffffffffffffffff1673ffffffffffffffffffffffffffffffffffffffff1614610872576040517f08c379a0000000000000000000000000000000000000000000000000000000008152600401610869906116b5565b60405180910390fd5b8060070160009054906101000a900460ff16156108c4576040517f08c379a00000000000000000000000000000000000000000000000000000000081526004016108bb90611721565b60405180910390fd5b8060070160019054906101000a900460ff16610915576040517f08c379a000000000000000000000000000000000000000000000000000000000815260040161090c9061178d565b60405180910390fd5b60008160070160016101000a81548160ff02191690831515021790555080600001547fe9dca77859782d4eaffa0fae879679644f854a6e07f234659de8b1e88ca402158360006040516109699291906117ad565b60405180910390a25050565b565b6000600460008481526020019081526020016000209050828160010154146109d4576040517f08c379a00000000000000000000000000000000000000000000000000000000081526004016109cb906113aa565b60405180910390fd5b60008211610a17576040517f08c379a0000000000000000000000000000000000000000000000000000000008152600401610a0e90611822565b60405180910390fd5b3373ffffffffffffffffffffffffffffffffffffffff168160020160009054906101000a900473ffffffffffffffffffffffffffffffffffffffff1673ffffffffffffffffffffffffffffffffffffffff1614610aa9576040517f08c379a0000000000000000000000000000000000000000000000000000000008152600401610aa0906118b4565b60405180910390fd5b8060070160019054906101000a900460ff1615610afb576040517f08c379a0000000000000000000000000000000000000000000000000000000008152600401610af290611920565b60405180910390fd5b60018160070160016101000a81548160ff02191690831515021790555081816005018190555080600001547f22c56a74f1cde72d311bc228b3434738e3fd88a9e348c664088c432a7b4046a584846001604051610b5a93929190611940565b60405180910390a2505050565b60046020528060005260406000206000915090508060000154908060010154908060020160009054906101000a900473ffffffffffffffffffffffffffffffffffffffff16908060030160009054906101000a900473ffffffffffffffffffffffffffffffffffffffff1690806004018054610be2906119a6565b80601f0160208091040260200160405190810160405280929190818152602001828054610c0e906119a6565b8015610c5b5780601f10610c3057610100808354040283529160200191610c5b565b820191906000526020600020905b815481529060010190602001808311610c3e57829003601f168201915b505050505090806005015490806006018054610c76906119a6565b80601f0160208091040260200160405190810160405280929190818152602001828054610ca2906119a6565b8015610cef5780601f10610cc457610100808354040283529160200191610cef565b820191906000526020600020905b815481529060010190602001808311610cd257829003601f168201915b5050505050908060070160009054906101000a900460ff16908060070160019054906101000a900460ff16905089565b6001816000016000828254019250508190555050565b600081600001549050919050565b828054610d4f906119a6565b90600052602060002090601f016020900481019282610d715760008555610db8565b82601f10610d8a57805160ff1916838001178555610db8565b82800160010185558215610db8579182015b82811115610db7578251825591602001919060010190610d9c565b5b509050610dc59190610dc9565b5090565b5b80821115610de2576000816000905550600101610dca565b5090565b6000604051905090565b600080fd5b600080fd5b6000819050919050565b610e0d81610dfa565b8114610e1857600080fd5b50565b600081359050610e2a81610e04565b92915050565b600080fd5b600080fd5b6000601f19601f8301169050919050565b7f4e487b7100000000000000000000000000000000000000000000000000000000600052604160045260246000fd5b610e8382610e3a565b810181811067ffffffffffffffff82111715610ea257610ea1610e4b565b5b80604052505050565b6000610eb5610de6565b9050610ec18282610e7a565b919050565b600067ffffffffffffffff821115610ee157610ee0610e4b565b5b610eea82610e3a565b9050602081019050919050565b82818337600083830152505050565b6000610f19610f1484610ec6565b610eab565b905082815260208101848484011115610f3557610f34610e35565b5b610f40848285610ef7565b509392505050565b600082601f830112610f5d57610f5c610e30565b5b8135610f6d848260208601610f06565b91505092915050565b600080600060608486031215610f8f57610f8e610df0565b5b6000610f9d86828701610e1b565b935050602084013567ffffffffffffffff811115610fbe57610fbd610df5565b5b610fca86828701610f48565b925050604084013567ffffffffffffffff811115610feb57610fea610df5565b5b610ff786828701610f48565b9150509250925092565b61100a81610dfa565b82525050565b60006020820190506110256000830184611001565b92915050565b60006020828403121561104157611040610df0565b5b600061104f84828501610e1b565b91505092915050565b600073ffffffffffffffffffffffffffffffffffffffff82169050919050565b600061108382611058565b9050919050565b61109381611078565b811461109e57600080fd5b50565b6000813590506110b08161108a565b92915050565b6000602082840312156110cc576110cb610df0565b5b60006110da848285016110a1565b91505092915050565b600080604083850312156110fa576110f9610df0565b5b600061110885828601610e1b565b925050602061111985828601610e1b565b9150509250929050565b600061112e82611058565b9050919050565b61113e81611123565b82525050565b600081519050919050565b600082825260208201905092915050565b60005b8381101561117e578082015181840152602081019050611163565b8381111561118d576000848401525b50505050565b600061119e82611144565b6111a8818561114f565b93506111b8818560208601611160565b6111c181610e3a565b840191505092915050565b60008115159050919050565b6111e1816111cc565b82525050565b6000610120820190506111fd600083018c611001565b61120a602083018b611001565b611217604083018a611135565b6112246060830189611135565b81810360808301526112368188611193565b905061124560a0830187611001565b81810360c08301526112578186611193565b905061126660e08301856111d8565b6112746101008301846111d8565b9a9950505050505050505050565b6000819050919050565b60006112a76112a261129d84611058565b611282565b611058565b9050919050565b60006112b98261128c565b9050919050565b60006112cb826112ae565b9050919050565b6112db816112c0565b82525050565b600060e0820190506112f6600083018a611001565b61130360208301896112d2565b61131060408301886112d2565b81810360608301526113228187611193565b905081810360808301526113368186611193565b905061134560a08301856111d8565b61135260c08301846111d8565b98975050505050505050565b7f546865204e4654206d7573742065786973740000000000000000000000000000600082015250565b600061139460128361114f565b915061139f8261135e565b602082019050919050565b600060208201905081810360008301526113c381611387565b9050919050565b7f41204e46542063616e206e6f742062652070757263686173656420627920746860008201527f65206f776e657200000000000000000000000000000000000000000000000000602082015250565b600061142660278361114f565b9150611431826113ca565b604082019050919050565b6000602082019050818103600083015261145581611419565b9050919050565b7f4120736f6c64204e46542063616e6e6f74206265207075726368617365640000600082015250565b6000611492601e8361114f565b915061149d8261145c565b602082019050919050565b600060208201905081810360008301526114c181611485565b9050919050565b7f546865204e4654206e6565647320746f206265206c6973746564000000000000600082015250565b60006114fe601a8361114f565b9150611509826114c8565b602082019050919050565b6000602082019050818103600083015261152d816114f1565b9050919050565b7f54686520627579657220646f6573206e6f74206861766520656e6f756768206d60008201527f6f6e657900000000000000000000000000000000000000000000000000000000602082015250565b600061159060248361114f565b915061159b82611534565b604082019050919050565b600060208201905081810360008301526115bf81611583565b9050919050565b6115cf81611078565b82525050565b60006060820190506115ea6000830186611001565b6115f760208301856111d8565b61160460408301846115c6565b949350505050565b600060608201905061162160008301866115c6565b61162e60208301856115c6565b61163b6040830184611001565b949350505050565b7f546865204e46542063616e206f6e6c792062652072656d6f766564206279206f60008201527f776e657200000000000000000000000000000000000000000000000000000000602082015250565b600061169f60248361114f565b91506116aa82611643565b604082019050919050565b600060208201905081810360008301526116ce81611692565b9050919050565b7f4120736f6c64204e46542063616e6e6f742062652072656d6f76656400000000600082015250565b600061170b601c8361114f565b9150611716826116d5565b602082019050919050565b6000602082019050818103600083015261173a816116fe565b9050919050565b7f546865204e465420686173206e6f74206265656e206c69737465642079657400600082015250565b6000611777601f8361114f565b915061178282611741565b602082019050919050565b600060208201905081810360008301526117a68161176a565b9050919050565b60006040820190506117c26000830185611001565b6117cf60208301846111d8565b9392505050565b7f546865207072696365206d75737420626520706f736974697665000000000000600082015250565b600061180c601a8361114f565b9150611817826117d6565b602082019050919050565b6000602082019050818103600083015261183b816117ff565b9050919050565b7f4f6e6c7920746865206f6e7765722063616e206c6973742061204e465420666f60008201527f722073616c650000000000000000000000000000000000000000000000000000602082015250565b600061189e60268361114f565b91506118a982611842565b604082019050919050565b600060208201905081810360008301526118cd81611891565b9050919050565b7f546865204e465420697320616c7265616479206c697374656400000000000000600082015250565b600061190a60198361114f565b9150611915826118d4565b602082019050919050565b60006020820190508181036000830152611939816118fd565b9050919050565b60006060820190506119556000830186611001565b6119626020830185611001565b61196f60408301846111d8565b949350505050565b7f4e487b7100000000000000000000000000000000000000000000000000000000600052602260045260246000fd5b600060028204905060018216806119be57607f821691505b6020821081036119d1576119d0611977565b5b5091905056fea2646970667358221220eaff6f1f356d380352c78665ad3b94d9d4b629bf71b47e4759ea88cd9932255a64736f6c634300080d0033",
  "immutableReferences": {},
  "source": "// SPDX-License-Identifier: UNLICENSED\npragma solidity ^0.8.4;\n\nimport \"@openzeppelin/contracts/utils/Counters.sol\";\nimport \"@openzeppelin/contracts/token/ERC721/ERC721.sol\";\nimport \"./NFT.sol\";\n\ncontract NFTMarketplace {\n\n    address payable private owner;\n\n    using Counters for Counters.Counter;\n    Counters.Counter private _marketTokenCounts;\n\n    uint256 tokenPrice = 0.1 ether;\n\n    NFT myNFT;\n\n    // The structure to store info about a listed token in blockchain\n    struct Token {\n        uint token_idx;\n        uint unique_id;\n        address payable owner;\n        address payable seller;\n        string name;\n        uint price;\n        string description;\n        bool is_sold;\n        bool is_listed;\n    } \n\n    //the event emitted when a token is successfully created\n    event TokenCreated (\n        uint indexed token_idx,\n        uint unique_id,\n        address owner,\n        address seller,\n        string name,\n        string description,\n        bool is_sold,\n        bool is_listed\n    );\n\n    event TokenListed (\n        uint indexed token_idx,\n        uint unique_id,\n        uint price,\n        bool is_listed\n    );\n\n    event ListedTokenRemoved (\n        uint indexed token_idx,\n        uint unique_id,\n        bool is_listed\n    );\n\n    event BuyToken (\n        uint indexed token_idx,\n        uint unique_id,\n        bool is_sold,\n        address newOwner\n    );\n\n    //mapping from token id to token information\n    mapping(uint => Token) public idToToken;\n\n    //mapping from a user address to user's fund\n    mapping(address => uint) public userFunds;\n\n    constructor(address _NFTAddress) {\n        myNFT = NFT(_NFTAddress);\n    }\n\n    // Create NFT\n    function createNFT(uint id, string memory name, string memory description) public payable returns (uint){\n        // increment the tokenId counter, which is keep track of the number of mined NFTs\n        _marketTokenCounts.increment();\n        uint newTokenCount = _marketTokenCounts.current();\n\n         // update the mapping of tokenId's to token details\n        idToToken[id] = Token(\n            newTokenCount,\n            id,\n            payable(address(this)),\n            payable(msg.sender),\n            name,\n            0,\n            description,\n            false,\n            false\n        );\n\n        emit TokenCreated(\n            newTokenCount,\n            id,\n            payable(address(this)),\n            payable(msg.sender),\n            name, \n            description,\n            false,\n            false\n        );\n        \n        return newTokenCount;\n    }\n\n    // transfer NFT function\n    function transferNFT(uint id) public payable{\n        //update the details of the token\n        idToToken[id].is_sold = true;\n        idToToken[id].is_listed = false;\n        idToToken[id].seller = payable(msg.sender);\n\n        //Actually transfer the token to the new owner\n        myNFT.transferFrom(address(this), msg.sender, id);\n    }\n\n    // list NFT for sale\n    function listNFTForSale(uint id, uint price) public {\n        Token storage item = idToToken[id];\n        require(item.unique_id == id, \"The NFT must exist\");\n        require(price > 0, \"The price must be positive\");\n        require(item.owner == msg.sender, \"Only the onwer can list a NFT for sale\");\n        require(!item.is_listed, \"The NFT is already listed\");\n\n        item.is_listed = true;\n        item.price = price;\n\n        emit TokenListed (item.token_idx, id, price, true);\n    }\n\n    // remove NFT From sale\n    function removeNFTFromSale(uint id) public {\n        Token storage item = idToToken[id];\n        require(item.unique_id == id, \"The NFT must exist\");\n        require(item.owner == msg.sender, \"The NFT can only be removed by owner\");\n        require(!item.is_sold, \"A sold NFT cannot be removed\");\n        require(item.is_listed, \"The NFT has not been listed yet\");\n\n        item.is_listed = false;\n        emit ListedTokenRemoved(item.token_idx, id, false);\n    }\n\n    function purchaseNFT(uint id) public payable {\n        Token storage item = idToToken[id];\n        require(item.unique_id == id, \"The NFT must exist\");\n        require(item.owner != msg.sender, \"A NFT can not be purchased by the owner\");\n        require(!item.is_sold, \"A sold NFT cannot be purchased\");\n        require(item.is_listed, \"The NFT needs to be listed\");\n        require(msg.value >= item.price, \"The buyer does not have enough money\");\n\n        transferNFT(id);\n        item.is_sold = true;\n        emit BuyToken(item.token_idx, id, true, msg.sender);\n    }\n\n    function claimFunds() public payable {\n        // todo\n    }    \n}\n",
  "sourcePath": "/Users/liujiawen/Desktop/Columbia Courses/Blockchain/ELEN6883-FinalProject/contracts/NFTMarketplace.sol",
  "compiler": {
    "name": "solc",
    "version": "0.8.13+commit.abaa5c0e.Emscripten.clang"
  },
  "schemaVersion": "3.4.13",
  "updatedAt": "2023-05-03T19:56:17.018Z",
  "networkType": "ethereum",
  "devdoc": {
    "kind": "dev",
    "methods": {},
    "version": 1
  },
  "userdoc": {
    "kind": "user",
    "methods": {},
    "version": 1
  }
}