{
  "contractName": "NFTMarketplace",
  "abi": [
    {
      "inputs": [],
      "stateMutability": "nonpayable",
      "type": "constructor"
    },
    {
      "anonymous": false,
      "inputs": [
        {
          "indexed": true,
          "internalType": "address",
          "name": "owner",
          "type": "address"
        },
        {
          "indexed": true,
          "internalType": "address",
          "name": "approved",
          "type": "address"
        },
        {
          "indexed": true,
          "internalType": "uint256",
          "name": "tokenId",
          "type": "uint256"
        }
      ],
      "name": "Approval",
      "type": "event"
    },
    {
      "anonymous": false,
      "inputs": [
        {
          "indexed": true,
          "internalType": "address",
          "name": "owner",
          "type": "address"
        },
        {
          "indexed": true,
          "internalType": "address",
          "name": "operator",
          "type": "address"
        },
        {
          "indexed": false,
          "internalType": "bool",
          "name": "approved",
          "type": "bool"
        }
      ],
      "name": "ApprovalForAll",
      "type": "event"
    },
    {
      "anonymous": false,
      "inputs": [
        {
          "indexed": true,
          "internalType": "uint256",
          "name": "tokenId",
          "type": "uint256"
        },
        {
          "indexed": false,
          "internalType": "address",
          "name": "owner",
          "type": "address"
        },
        {
          "indexed": false,
          "internalType": "address",
          "name": "seller",
          "type": "address"
        },
        {
          "indexed": false,
          "internalType": "string",
          "name": "name",
          "type": "string"
        },
        {
          "indexed": false,
          "internalType": "uint256",
          "name": "price",
          "type": "uint256"
        },
        {
          "indexed": false,
          "internalType": "string",
          "name": "description",
          "type": "string"
        },
        {
          "indexed": false,
          "internalType": "bool",
          "name": "currentlyListed",
          "type": "bool"
        }
      ],
      "name": "TokenListedSuccess",
      "type": "event"
    },
    {
      "anonymous": false,
      "inputs": [
        {
          "indexed": true,
          "internalType": "address",
          "name": "from",
          "type": "address"
        },
        {
          "indexed": true,
          "internalType": "address",
          "name": "to",
          "type": "address"
        },
        {
          "indexed": true,
          "internalType": "uint256",
          "name": "tokenId",
          "type": "uint256"
        }
      ],
      "name": "Transfer",
      "type": "event"
    },
    {
      "inputs": [
        {
          "internalType": "address",
          "name": "to",
          "type": "address"
        },
        {
          "internalType": "uint256",
          "name": "tokenId",
          "type": "uint256"
        }
      ],
      "name": "approve",
      "outputs": [],
      "stateMutability": "nonpayable",
      "type": "function"
    },
    {
      "inputs": [
        {
          "internalType": "address",
          "name": "owner",
          "type": "address"
        }
      ],
      "name": "balanceOf",
      "outputs": [
        {
          "internalType": "uint256",
          "name": "",
          "type": "uint256"
        }
      ],
      "stateMutability": "view",
      "type": "function"
    },
    {
      "inputs": [
        {
          "internalType": "uint256",
          "name": "tokenId",
          "type": "uint256"
        }
      ],
      "name": "getApproved",
      "outputs": [
        {
          "internalType": "address",
          "name": "",
          "type": "address"
        }
      ],
      "stateMutability": "view",
      "type": "function"
    },
    {
      "inputs": [
        {
          "internalType": "address",
          "name": "owner",
          "type": "address"
        },
        {
          "internalType": "address",
          "name": "operator",
          "type": "address"
        }
      ],
      "name": "isApprovedForAll",
      "outputs": [
        {
          "internalType": "bool",
          "name": "",
          "type": "bool"
        }
      ],
      "stateMutability": "view",
      "type": "function"
    },
    {
      "inputs": [],
      "name": "name",
      "outputs": [
        {
          "internalType": "string",
          "name": "",
          "type": "string"
        }
      ],
      "stateMutability": "view",
      "type": "function"
    },
    {
      "inputs": [
        {
          "internalType": "uint256",
          "name": "tokenId",
          "type": "uint256"
        }
      ],
      "name": "ownerOf",
      "outputs": [
        {
          "internalType": "address",
          "name": "",
          "type": "address"
        }
      ],
      "stateMutability": "view",
      "type": "function"
    },
    {
      "inputs": [
        {
          "internalType": "address",
          "name": "from",
          "type": "address"
        },
        {
          "internalType": "address",
          "name": "to",
          "type": "address"
        },
        {
          "internalType": "uint256",
          "name": "tokenId",
          "type": "uint256"
        }
      ],
      "name": "safeTransferFrom",
      "outputs": [],
      "stateMutability": "nonpayable",
      "type": "function"
    },
    {
      "inputs": [
        {
          "internalType": "address",
          "name": "from",
          "type": "address"
        },
        {
          "internalType": "address",
          "name": "to",
          "type": "address"
        },
        {
          "internalType": "uint256",
          "name": "tokenId",
          "type": "uint256"
        },
        {
          "internalType": "bytes",
          "name": "data",
          "type": "bytes"
        }
      ],
      "name": "safeTransferFrom",
      "outputs": [],
      "stateMutability": "nonpayable",
      "type": "function"
    },
    {
      "inputs": [
        {
          "internalType": "address",
          "name": "operator",
          "type": "address"
        },
        {
          "internalType": "bool",
          "name": "approved",
          "type": "bool"
        }
      ],
      "name": "setApprovalForAll",
      "outputs": [],
      "stateMutability": "nonpayable",
      "type": "function"
    },
    {
      "inputs": [
        {
          "internalType": "bytes4",
          "name": "interfaceId",
          "type": "bytes4"
        }
      ],
      "name": "supportsInterface",
      "outputs": [
        {
          "internalType": "bool",
          "name": "",
          "type": "bool"
        }
      ],
      "stateMutability": "view",
      "type": "function"
    },
    {
      "inputs": [],
      "name": "symbol",
      "outputs": [
        {
          "internalType": "string",
          "name": "",
          "type": "string"
        }
      ],
      "stateMutability": "view",
      "type": "function"
    },
    {
      "inputs": [
        {
          "internalType": "uint256",
          "name": "tokenId",
          "type": "uint256"
        }
      ],
      "name": "tokenURI",
      "outputs": [
        {
          "internalType": "string",
          "name": "",
          "type": "string"
        }
      ],
      "stateMutability": "view",
      "type": "function"
    },
    {
      "inputs": [
        {
          "internalType": "address",
          "name": "from",
          "type": "address"
        },
        {
          "internalType": "address",
          "name": "to",
          "type": "address"
        },
        {
          "internalType": "uint256",
          "name": "tokenId",
          "type": "uint256"
        }
      ],
      "name": "transferFrom",
      "outputs": [],
      "stateMutability": "nonpayable",
      "type": "function"
    },
    {
      "inputs": [
        {
          "internalType": "uint256",
          "name": "_tokenPrice",
          "type": "uint256"
        }
      ],
      "name": "updateTokenPrice",
      "outputs": [],
      "stateMutability": "payable",
      "type": "function"
    },
    {
      "inputs": [],
      "name": "getTokenPrice",
      "outputs": [
        {
          "internalType": "uint256",
          "name": "",
          "type": "uint256"
        }
      ],
      "stateMutability": "view",
      "type": "function"
    },
    {
      "inputs": [
        {
          "internalType": "string",
          "name": "name",
          "type": "string"
        },
        {
          "internalType": "string",
          "name": "description",
          "type": "string"
        },
        {
          "internalType": "uint256",
          "name": "price",
          "type": "uint256"
        }
      ],
      "name": "createNFT",
      "outputs": [
        {
          "internalType": "uint256",
          "name": "",
          "type": "uint256"
        }
      ],
      "stateMutability": "payable",
      "type": "function"
    },
    {
      "inputs": [
        {
          "internalType": "uint256",
          "name": "tokenId",
          "type": "uint256"
        }
      ],
      "name": "transferNFT",
      "outputs": [],
      "stateMutability": "payable",
      "type": "function"
    }
  ],
  "bytecode": "0x608060405267016345785d8a0000600a553480156200001d57600080fd5b506040518060400160405280600e81526020017f4e46544d61726b6574706c6163650000000000000000000000000000000000008152506040518060400160405280600481526020017f4e46544d000000000000000000000000000000000000000000000000000000008152508160009080519060200190620000a292919062000105565b508060019080519060200190620000bb92919062000105565b50505033600760006101000a81548173ffffffffffffffffffffffffffffffffffffffff021916908373ffffffffffffffffffffffffffffffffffffffff16021790555062000219565b8280546200011390620001e4565b90600052602060002090601f01602090048101928262000137576000855562000183565b82601f106200015257805160ff191683800117855562000183565b8280016001018555821562000183579182015b828111156200018257825182559160200191906001019062000165565b5b50905062000192919062000196565b5090565b5b80821115620001b157600081600090555060010162000197565b5090565b7f4e487b7100000000000000000000000000000000000000000000000000000000600052602260045260246000fd5b60006002820490506001821680620001fd57607f821691505b602082108103620002135762000212620001b5565b5b50919050565b6130de80620002296000396000f3fe6080604052600436106100fe5760003560e01c80634b94f50e1161009557806395d89b411161006457806395d89b4114610330578063a22cb4651461035b578063b88d4fde14610384578063c87b56dd146103ad578063e985e9c5146103ea576100fe565b80634b94f50e1461026f5780636352211e1461029a578063676c0d77146102d757806370a08231146102f3576100fe565b806323b872dd116100d157806323b872dd146101d1578063249e10c5146101fa5780633241d34a1461021657806342842e0e14610246576100fe565b806301ffc9a71461010357806306fdde0314610140578063081812fc1461016b578063095ea7b3146101a8575b600080fd5b34801561010f57600080fd5b5061012a60048036038101906101259190611fee565b610427565b6040516101379190612036565b60405180910390f35b34801561014c57600080fd5b50610155610509565b60405161016291906120ea565b60405180910390f35b34801561017757600080fd5b50610192600480360381019061018d9190612142565b61059b565b60405161019f91906121b0565b60405180910390f35b3480156101b457600080fd5b506101cf60048036038101906101ca91906121f7565b6105e1565b005b3480156101dd57600080fd5b506101f860048036038101906101f39190612237565b6106f8565b005b610214600480360381019061020f9190612142565b610758565b005b610230600480360381019061022b91906123bf565b61094a565b60405161023d9190612459565b60405180910390f35b34801561025257600080fd5b5061026d60048036038101906102689190612237565b610985565b005b34801561027b57600080fd5b506102846109a5565b6040516102919190612459565b60405180910390f35b3480156102a657600080fd5b506102c160048036038101906102bc9190612142565b6109af565b6040516102ce91906121b0565b60405180910390f35b6102f160048036038101906102ec9190612142565b610a35565b005b3480156102ff57600080fd5b5061031a60048036038101906103159190612474565b610acf565b6040516103279190612459565b60405180910390f35b34801561033c57600080fd5b50610345610b86565b60405161035291906120ea565b60405180910390f35b34801561036757600080fd5b50610382600480360381019061037d91906124cd565b610c18565b005b34801561039057600080fd5b506103ab60048036038101906103a691906125ae565b610c2e565b005b3480156103b957600080fd5b506103d460048036038101906103cf9190612142565b610c90565b6040516103e191906120ea565b60405180910390f35b3480156103f657600080fd5b50610411600480360381019061040c9190612631565b610da2565b60405161041e9190612036565b60405180910390f35b60007f80ac58cd000000000000000000000000000000000000000000000000000000007bffffffffffffffffffffffffffffffffffffffffffffffffffffffff1916827bffffffffffffffffffffffffffffffffffffffffffffffffffffffff191614806104f257507f5b5e139f000000000000000000000000000000000000000000000000000000007bffffffffffffffffffffffffffffffffffffffffffffffffffffffff1916827bffffffffffffffffffffffffffffffffffffffffffffffffffffffff1916145b80610502575061050182610e36565b5b9050919050565b606060008054610518906126a0565b80601f0160208091040260200160405190810160405280929190818152602001828054610544906126a0565b80156105915780601f1061056657610100808354040283529160200191610591565b820191906000526020600020905b81548152906001019060200180831161057457829003601f168201915b5050505050905090565b60006105a682610ea0565b6004600083815260200190815260200160002060009054906101000a900473ffffffffffffffffffffffffffffffffffffffff169050919050565b60006105ec826109af565b90508073ffffffffffffffffffffffffffffffffffffffff168373ffffffffffffffffffffffffffffffffffffffff160361065c576040517f08c379a000000000000000000000000000000000000000000000000000000000815260040161065390612743565b60405180910390fd5b8073ffffffffffffffffffffffffffffffffffffffff1661067b610eeb565b73ffffffffffffffffffffffffffffffffffffffff1614806106aa57506106a9816106a4610eeb565b610da2565b5b6106e9576040517f08c379a00000000000000000000000000000000000000000000000000000000081526004016106e0906127d5565b60405180910390fd5b6106f38383610ef3565b505050565b610709610703610eeb565b82610fac565b610748576040517f08c379a000000000000000000000000000000000000000000000000000000000815260040161073f90612867565b60405180910390fd5b610753838383611041565b505050565b6000600b60008381526020019081526020016000206004015490506000600b600084815260200190815260200160002060020160009054906101000a900473ffffffffffffffffffffffffffffffffffffffff1690508134146107f0576040517f08c379a00000000000000000000000000000000000000000000000000000000081526004016107e79061291f565b60405180910390fd5b6001600b600085815260200190815260200160002060060160006101000a81548160ff02191690831515021790555033600b600085815260200190815260200160002060020160006101000a81548173ffffffffffffffffffffffffffffffffffffffff021916908373ffffffffffffffffffffffffffffffffffffffff16021790555061087e600961133a565b610889303385611041565b61089330846105e1565b600760009054906101000a900473ffffffffffffffffffffffffffffffffffffffff1673ffffffffffffffffffffffffffffffffffffffff166108fc600a549081150290604051600060405180830381858888f193505050501580156108fd573d6000803e3d6000fd5b508073ffffffffffffffffffffffffffffffffffffffff166108fc349081150290604051600060405180830381858888f19350505050158015610944573d6000803e3d6000fd5b50505050565b6000610956600861133a565b60006109626008611350565b905061096e338261135e565b61097a8186858761137c565b809150509392505050565b6109a083838360405180602001604052806000815250610c2e565b505050565b6000600a54905090565b6000806109bb836115cb565b9050600073ffffffffffffffffffffffffffffffffffffffff168173ffffffffffffffffffffffffffffffffffffffff1603610a2c576040517f08c379a0000000000000000000000000000000000000000000000000000000008152600401610a239061298b565b60405180910390fd5b80915050919050565b3373ffffffffffffffffffffffffffffffffffffffff16600760009054906101000a900473ffffffffffffffffffffffffffffffffffffffff1673ffffffffffffffffffffffffffffffffffffffff1614610ac5576040517f08c379a0000000000000000000000000000000000000000000000000000000008152600401610abc90612a1d565b60405180910390fd5b80600a8190555050565b60008073ffffffffffffffffffffffffffffffffffffffff168273ffffffffffffffffffffffffffffffffffffffff1603610b3f576040517f08c379a0000000000000000000000000000000000000000000000000000000008152600401610b3690612aaf565b60405180910390fd5b600360008373ffffffffffffffffffffffffffffffffffffffff1673ffffffffffffffffffffffffffffffffffffffff168152602001908152602001600020549050919050565b606060018054610b95906126a0565b80601f0160208091040260200160405190810160405280929190818152602001828054610bc1906126a0565b8015610c0e5780601f10610be357610100808354040283529160200191610c0e565b820191906000526020600020905b815481529060010190602001808311610bf157829003601f168201915b5050505050905090565b610c2a610c23610eeb565b8383611608565b5050565b610c3f610c39610eeb565b83610fac565b610c7e576040517f08c379a0000000000000000000000000000000000000000000000000000000008152600401610c7590612867565b60405180910390fd5b610c8a84848484611774565b50505050565b6060610c9b82610ea0565b6000600660008481526020019081526020016000208054610cbb906126a0565b80601f0160208091040260200160405190810160405280929190818152602001828054610ce7906126a0565b8015610d345780601f10610d0957610100808354040283529160200191610d34565b820191906000526020600020905b815481529060010190602001808311610d1757829003601f168201915b505050505090506000610d456117d0565b90506000815103610d5a578192505050610d9d565b600082511115610d8f578082604051602001610d77929190612b0b565b60405160208183030381529060405292505050610d9d565b610d98846117e7565b925050505b919050565b6000600560008473ffffffffffffffffffffffffffffffffffffffff1673ffffffffffffffffffffffffffffffffffffffff16815260200190815260200160002060008373ffffffffffffffffffffffffffffffffffffffff1673ffffffffffffffffffffffffffffffffffffffff16815260200190815260200160002060009054906101000a900460ff16905092915050565b60007f01ffc9a7000000000000000000000000000000000000000000000000000000007bffffffffffffffffffffffffffffffffffffffffffffffffffffffff1916827bffffffffffffffffffffffffffffffffffffffffffffffffffffffff1916149050919050565b610ea98161184f565b610ee8576040517f08c379a0000000000000000000000000000000000000000000000000000000008152600401610edf9061298b565b60405180910390fd5b50565b600033905090565b816004600083815260200190815260200160002060006101000a81548173ffffffffffffffffffffffffffffffffffffffff021916908373ffffffffffffffffffffffffffffffffffffffff160217905550808273ffffffffffffffffffffffffffffffffffffffff16610f66836109af565b73ffffffffffffffffffffffffffffffffffffffff167f8c5be1e5ebec7d5bd14f71427d1e84f3dd0314c0f7b2291e5b200ac8c7c3b92560405160405180910390a45050565b600080610fb8836109af565b90508073ffffffffffffffffffffffffffffffffffffffff168473ffffffffffffffffffffffffffffffffffffffff161480610ffa5750610ff98185610da2565b5b8061103857508373ffffffffffffffffffffffffffffffffffffffff166110208461059b565b73ffffffffffffffffffffffffffffffffffffffff16145b91505092915050565b8273ffffffffffffffffffffffffffffffffffffffff16611061826109af565b73ffffffffffffffffffffffffffffffffffffffff16146110b7576040517f08c379a00000000000000000000000000000000000000000000000000000000081526004016110ae90612ba1565b60405180910390fd5b600073ffffffffffffffffffffffffffffffffffffffff168273ffffffffffffffffffffffffffffffffffffffff1603611126576040517f08c379a000000000000000000000000000000000000000000000000000000000815260040161111d90612c33565b60405180910390fd5b6111338383836001611890565b8273ffffffffffffffffffffffffffffffffffffffff16611153826109af565b73ffffffffffffffffffffffffffffffffffffffff16146111a9576040517f08c379a00000000000000000000000000000000000000000000000000000000081526004016111a090612ba1565b60405180910390fd5b6004600082815260200190815260200160002060006101000a81549073ffffffffffffffffffffffffffffffffffffffff02191690556001600360008573ffffffffffffffffffffffffffffffffffffffff1673ffffffffffffffffffffffffffffffffffffffff168152602001908152602001600020600082825403925050819055506001600360008473ffffffffffffffffffffffffffffffffffffffff1673ffffffffffffffffffffffffffffffffffffffff16815260200190815260200160002060008282540192505081905550816002600083815260200190815260200160002060006101000a81548173ffffffffffffffffffffffffffffffffffffffff021916908373ffffffffffffffffffffffffffffffffffffffff160217905550808273ffffffffffffffffffffffffffffffffffffffff168473ffffffffffffffffffffffffffffffffffffffff167fddf252ad1be2c89b69c2b068fc378daa952ba7f163c4a11628f55a4df523b3ef60405160405180910390a46113358383836001611896565b505050565b6001816000016000828254019250508190555050565b600081600001549050919050565b61137882826040518060200160405280600081525061189c565b5050565b600a5434146113c0576040517f08c379a00000000000000000000000000000000000000000000000000000000081526004016113b790612cc5565b60405180910390fd5b60008211611403576040517f08c379a00000000000000000000000000000000000000000000000000000000081526004016113fa90612d31565b60405180910390fd5b6040518060e001604052808581526020013073ffffffffffffffffffffffffffffffffffffffff1681526020013373ffffffffffffffffffffffffffffffffffffffff16815260200184815260200183815260200182815260200160011515815250600b60008681526020019081526020016000206000820151816000015560208201518160010160006101000a81548173ffffffffffffffffffffffffffffffffffffffff021916908373ffffffffffffffffffffffffffffffffffffffff16021790555060408201518160020160006101000a81548173ffffffffffffffffffffffffffffffffffffffff021916908373ffffffffffffffffffffffffffffffffffffffff160217905550606082015181600301908051906020019061152c929190611edf565b506080820151816004015560a0820151816005019080519060200190611553929190611edf565b5060c08201518160060160006101000a81548160ff021916908315150217905550905050611582333086611041565b837f54a236c531c838fe64787471700f70f79c67dc7ce25e53f07a94ff83fa641587303386868660016040516115bd96959493929190612d51565b60405180910390a250505050565b60006002600083815260200190815260200160002060009054906101000a900473ffffffffffffffffffffffffffffffffffffffff169050919050565b8173ffffffffffffffffffffffffffffffffffffffff168373ffffffffffffffffffffffffffffffffffffffff1603611676576040517f08c379a000000000000000000000000000000000000000000000000000000000815260040161166d90612e0c565b60405180910390fd5b80600560008573ffffffffffffffffffffffffffffffffffffffff1673ffffffffffffffffffffffffffffffffffffffff16815260200190815260200160002060008473ffffffffffffffffffffffffffffffffffffffff1673ffffffffffffffffffffffffffffffffffffffff16815260200190815260200160002060006101000a81548160ff0219169083151502179055508173ffffffffffffffffffffffffffffffffffffffff168373ffffffffffffffffffffffffffffffffffffffff167f17307eab39ab6107e8899845ad3d59bd9653f200f220920489ca2b5937696c31836040516117679190612036565b60405180910390a3505050565b61177f848484611041565b61178b848484846118f7565b6117ca576040517f08c379a00000000000000000000000000000000000000000000000000000000081526004016117c190612e9e565b60405180910390fd5b50505050565b606060405180602001604052806000815250905090565b60606117f282610ea0565b60006117fc6117d0565b9050600081511161181c5760405180602001604052806000815250611847565b8061182684611a7e565b604051602001611837929190612b0b565b6040516020818303038152906040525b915050919050565b60008073ffffffffffffffffffffffffffffffffffffffff16611871836115cb565b73ffffffffffffffffffffffffffffffffffffffff1614159050919050565b50505050565b50505050565b6118a68383611b4c565b6118b360008484846118f7565b6118f2576040517f08c379a00000000000000000000000000000000000000000000000000000000081526004016118e990612e9e565b60405180910390fd5b505050565b60006119188473ffffffffffffffffffffffffffffffffffffffff16611d69565b15611a71578373ffffffffffffffffffffffffffffffffffffffff1663150b7a02611941610eeb565b8786866040518563ffffffff1660e01b81526004016119639493929190612f13565b6020604051808303816000875af192505050801561199f57506040513d601f19601f8201168201806040525081019061199c9190612f74565b60015b611a21573d80600081146119cf576040519150601f19603f3d011682016040523d82523d6000602084013e6119d4565b606091505b506000815103611a19576040517f08c379a0000000000000000000000000000000000000000000000000000000008152600401611a1090612e9e565b60405180910390fd5b805181602001fd5b63150b7a0260e01b7bffffffffffffffffffffffffffffffffffffffffffffffffffffffff1916817bffffffffffffffffffffffffffffffffffffffffffffffffffffffff191614915050611a76565b600190505b949350505050565b606060006001611a8d84611d8c565b01905060008167ffffffffffffffff811115611aac57611aab612294565b5b6040519080825280601f01601f191660200182016040528015611ade5781602001600182028036833780820191505090505b509050600082602001820190505b600115611b41578080600190039150507f3031323334353637383961626364656600000000000000000000000000000000600a86061a8153600a8581611b3557611b34612fa1565b5b04945060008503611aec575b819350505050919050565b600073ffffffffffffffffffffffffffffffffffffffff168273ffffffffffffffffffffffffffffffffffffffff1603611bbb576040517f08c379a0000000000000000000000000000000000000000000000000000000008152600401611bb29061301c565b60405180910390fd5b611bc48161184f565b15611c04576040517f08c379a0000000000000000000000000000000000000000000000000000000008152600401611bfb90613088565b60405180910390fd5b611c12600083836001611890565b611c1b8161184f565b15611c5b576040517f08c379a0000000000000000000000000000000000000000000000000000000008152600401611c5290613088565b60405180910390fd5b6001600360008473ffffffffffffffffffffffffffffffffffffffff1673ffffffffffffffffffffffffffffffffffffffff16815260200190815260200160002060008282540192505081905550816002600083815260200190815260200160002060006101000a81548173ffffffffffffffffffffffffffffffffffffffff021916908373ffffffffffffffffffffffffffffffffffffffff160217905550808273ffffffffffffffffffffffffffffffffffffffff16600073ffffffffffffffffffffffffffffffffffffffff167fddf252ad1be2c89b69c2b068fc378daa952ba7f163c4a11628f55a4df523b3ef60405160405180910390a4611d65600083836001611896565b5050565b6000808273ffffffffffffffffffffffffffffffffffffffff163b119050919050565b600080600090507a184f03e93ff9f4daa797ed6e38ed64bf6a1f0100000000000000008310611dea577a184f03e93ff9f4daa797ed6e38ed64bf6a1f0100000000000000008381611de057611ddf612fa1565b5b0492506040810190505b6d04ee2d6d415b85acef81000000008310611e27576d04ee2d6d415b85acef81000000008381611e1d57611e1c612fa1565b5b0492506020810190505b662386f26fc100008310611e5657662386f26fc100008381611e4c57611e4b612fa1565b5b0492506010810190505b6305f5e1008310611e7f576305f5e1008381611e7557611e74612fa1565b5b0492506008810190505b6127108310611ea4576127108381611e9a57611e99612fa1565b5b0492506004810190505b60648310611ec75760648381611ebd57611ebc612fa1565b5b0492506002810190505b600a8310611ed6576001810190505b80915050919050565b828054611eeb906126a0565b90600052602060002090601f016020900481019282611f0d5760008555611f54565b82601f10611f2657805160ff1916838001178555611f54565b82800160010185558215611f54579182015b82811115611f53578251825591602001919060010190611f38565b5b509050611f619190611f65565b5090565b5b80821115611f7e576000816000905550600101611f66565b5090565b6000604051905090565b600080fd5b600080fd5b60007fffffffff0000000000000000000000000000000000000000000000000000000082169050919050565b611fcb81611f96565b8114611fd657600080fd5b50565b600081359050611fe881611fc2565b92915050565b60006020828403121561200457612003611f8c565b5b600061201284828501611fd9565b91505092915050565b60008115159050919050565b6120308161201b565b82525050565b600060208201905061204b6000830184612027565b92915050565b600081519050919050565b600082825260208201905092915050565b60005b8381101561208b578082015181840152602081019050612070565b8381111561209a576000848401525b50505050565b6000601f19601f8301169050919050565b60006120bc82612051565b6120c6818561205c565b93506120d681856020860161206d565b6120df816120a0565b840191505092915050565b6000602082019050818103600083015261210481846120b1565b905092915050565b6000819050919050565b61211f8161210c565b811461212a57600080fd5b50565b60008135905061213c81612116565b92915050565b60006020828403121561215857612157611f8c565b5b60006121668482850161212d565b91505092915050565b600073ffffffffffffffffffffffffffffffffffffffff82169050919050565b600061219a8261216f565b9050919050565b6121aa8161218f565b82525050565b60006020820190506121c560008301846121a1565b92915050565b6121d48161218f565b81146121df57600080fd5b50565b6000813590506121f1816121cb565b92915050565b6000806040838503121561220e5761220d611f8c565b5b600061221c858286016121e2565b925050602061222d8582860161212d565b9150509250929050565b6000806000606084860312156122505761224f611f8c565b5b600061225e868287016121e2565b935050602061226f868287016121e2565b92505060406122808682870161212d565b9150509250925092565b600080fd5b600080fd5b7f4e487b7100000000000000000000000000000000000000000000000000000000600052604160045260246000fd5b6122cc826120a0565b810181811067ffffffffffffffff821117156122eb576122ea612294565b5b80604052505050565b60006122fe611f82565b905061230a82826122c3565b919050565b600067ffffffffffffffff82111561232a57612329612294565b5b612333826120a0565b9050602081019050919050565b82818337600083830152505050565b600061236261235d8461230f565b6122f4565b90508281526020810184848401111561237e5761237d61228f565b5b612389848285612340565b509392505050565b600082601f8301126123a6576123a561228a565b5b81356123b684826020860161234f565b91505092915050565b6000806000606084860312156123d8576123d7611f8c565b5b600084013567ffffffffffffffff8111156123f6576123f5611f91565b5b61240286828701612391565b935050602084013567ffffffffffffffff81111561242357612422611f91565b5b61242f86828701612391565b92505060406124408682870161212d565b9150509250925092565b6124538161210c565b82525050565b600060208201905061246e600083018461244a565b92915050565b60006020828403121561248a57612489611f8c565b5b6000612498848285016121e2565b91505092915050565b6124aa8161201b565b81146124b557600080fd5b50565b6000813590506124c7816124a1565b92915050565b600080604083850312156124e4576124e3611f8c565b5b60006124f2858286016121e2565b9250506020612503858286016124b8565b9150509250929050565b600067ffffffffffffffff82111561252857612527612294565b5b612531826120a0565b9050602081019050919050565b600061255161254c8461250d565b6122f4565b90508281526020810184848401111561256d5761256c61228f565b5b612578848285612340565b509392505050565b600082601f8301126125955761259461228a565b5b81356125a584826020860161253e565b91505092915050565b600080600080608085870312156125c8576125c7611f8c565b5b60006125d6878288016121e2565b94505060206125e7878288016121e2565b93505060406125f88782880161212d565b925050606085013567ffffffffffffffff81111561261957612618611f91565b5b61262587828801612580565b91505092959194509250565b6000806040838503121561264857612647611f8c565b5b6000612656858286016121e2565b9250506020612667858286016121e2565b9150509250929050565b7f4e487b7100000000000000000000000000000000000000000000000000000000600052602260045260246000fd5b600060028204905060018216806126b857607f821691505b6020821081036126cb576126ca612671565b5b50919050565b7f4552433732313a20617070726f76616c20746f2063757272656e74206f776e6560008201527f7200000000000000000000000000000000000000000000000000000000000000602082015250565b600061272d60218361205c565b9150612738826126d1565b604082019050919050565b6000602082019050818103600083015261275c81612720565b9050919050565b7f4552433732313a20617070726f76652063616c6c6572206973206e6f7420746f60008201527f6b656e206f776e6572206f7220617070726f76656420666f7220616c6c000000602082015250565b60006127bf603d8361205c565b91506127ca82612763565b604082019050919050565b600060208201905081810360008301526127ee816127b2565b9050919050565b7f4552433732313a2063616c6c6572206973206e6f7420746f6b656e206f776e6560008201527f72206f7220617070726f76656400000000000000000000000000000000000000602082015250565b6000612851602d8361205c565b915061285c826127f5565b604082019050919050565b6000602082019050818103600083015261288081612844565b9050919050565b7f4d616b652073757265207468652070757263686173696e67207072696365206960008201527f732074686520636f727265637420647572696e6720746865207468697320747260208201527f616e73616374696f6e0000000000000000000000000000000000000000000000604082015250565b600061290960498361205c565b915061291482612887565b606082019050919050565b60006020820190508181036000830152612938816128fc565b9050919050565b7f4552433732313a20696e76616c696420746f6b656e2049440000000000000000600082015250565b600061297560188361205c565b91506129808261293f565b602082019050919050565b600060208201905081810360008301526129a481612968565b9050919050565b7f4f6e6c79206f776e65722063616e2075706461746520746865206c697374656460008201527f20746f6b656e2070726963650000000000000000000000000000000000000000602082015250565b6000612a07602c8361205c565b9150612a12826129ab565b604082019050919050565b60006020820190508181036000830152612a36816129fa565b9050919050565b7f4552433732313a2061646472657373207a65726f206973206e6f74206120766160008201527f6c6964206f776e65720000000000000000000000000000000000000000000000602082015250565b6000612a9960298361205c565b9150612aa482612a3d565b604082019050919050565b60006020820190508181036000830152612ac881612a8c565b9050919050565b600081905092915050565b6000612ae582612051565b612aef8185612acf565b9350612aff81856020860161206d565b80840191505092915050565b6000612b178285612ada565b9150612b238284612ada565b91508190509392505050565b7f4552433732313a207472616e736665722066726f6d20696e636f72726563742060008201527f6f776e6572000000000000000000000000000000000000000000000000000000602082015250565b6000612b8b60258361205c565b9150612b9682612b2f565b604082019050919050565b60006020820190508181036000830152612bba81612b7e565b9050919050565b7f4552433732313a207472616e7366657220746f20746865207a65726f2061646460008201527f7265737300000000000000000000000000000000000000000000000000000000602082015250565b6000612c1d60248361205c565b9150612c2882612bc1565b604082019050919050565b60006020820190508181036000830152612c4c81612c10565b9050919050565b7f486f706566756c6c792073656e64696e672074686520636f727265637420707260008201527f6963650000000000000000000000000000000000000000000000000000000000602082015250565b6000612caf60238361205c565b9150612cba82612c53565b604082019050919050565b60006020820190508181036000830152612cde81612ca2565b9050919050565b7f546865207072696365206973206e6f74206e6567617469766500000000000000600082015250565b6000612d1b60198361205c565b9150612d2682612ce5565b602082019050919050565b60006020820190508181036000830152612d4a81612d0e565b9050919050565b600060c082019050612d6660008301896121a1565b612d7360208301886121a1565b8181036040830152612d8581876120b1565b9050612d94606083018661244a565b8181036080830152612da681856120b1565b9050612db560a0830184612027565b979650505050505050565b7f4552433732313a20617070726f766520746f2063616c6c657200000000000000600082015250565b6000612df660198361205c565b9150612e0182612dc0565b602082019050919050565b60006020820190508181036000830152612e2581612de9565b9050919050565b7f4552433732313a207472616e7366657220746f206e6f6e20455243373231526560008201527f63656976657220696d706c656d656e7465720000000000000000000000000000602082015250565b6000612e8860328361205c565b9150612e9382612e2c565b604082019050919050565b60006020820190508181036000830152612eb781612e7b565b9050919050565b600081519050919050565b600082825260208201905092915050565b6000612ee582612ebe565b612eef8185612ec9565b9350612eff81856020860161206d565b612f08816120a0565b840191505092915050565b6000608082019050612f2860008301876121a1565b612f3560208301866121a1565b612f42604083018561244a565b8181036060830152612f548184612eda565b905095945050505050565b600081519050612f6e81611fc2565b92915050565b600060208284031215612f8a57612f89611f8c565b5b6000612f9884828501612f5f565b91505092915050565b7f4e487b7100000000000000000000000000000000000000000000000000000000600052601260045260246000fd5b7f4552433732313a206d696e7420746f20746865207a65726f2061646472657373600082015250565b600061300660208361205c565b915061301182612fd0565b602082019050919050565b6000602082019050818103600083015261303581612ff9565b9050919050565b7f4552433732313a20746f6b656e20616c7265616479206d696e74656400000000600082015250565b6000613072601c8361205c565b915061307d8261303c565b602082019050919050565b600060208201905081810360008301526130a181613065565b905091905056fea2646970667358221220dc350c02d06160bdb31efe4b36307f2d04f60f8a75d08d21c5c6674dda0a06ff64736f6c634300080d0033",
  "immutableReferences": {},
  "source": "// SPDX-License-Identifier: UNLICENSED\npragma solidity ^0.8.0;\n\n// import \"hardhat/console.sol\";\nimport \"@openzeppelin/contracts/utils/Counters.sol\";\nimport \"@openzeppelin/contracts/token/ERC721/extensions/ERC721URIStorage.sol\";\nimport \"@openzeppelin/contracts/token/ERC721/ERC721.sol\";\n\ncontract NFTMarketplace is ERC721URIStorage {\n\n    address payable owner;\n\n    using Counters for Counters.Counter;\n    Counters.Counter private _tokenIds;\n    Counters.Counter private _itemSold;\n\n    uint tokenPrice = 0.1 ether;\n\n    constructor() ERC721(\"NFTMarketplace\", \"NFTM\") {\n        owner = payable(msg.sender);\n    }\n\n    // The structure to store info about a listed token\n    struct infoListedToken {\n        uint tokenId;\n        address payable owner;\n        address payable seller;\n        string name;\n        uint price;\n        string description;\n        bool currentListed;\n    } \n\n    //the event emitted when a token is successfully transferred\n    event TokenListedSuccess (\n        uint256 indexed tokenId,\n        address owner,\n        address seller,\n        string name,\n        uint256 price,\n        string description,\n        bool currentlyListed\n    );\n\n    mapping(uint => infoListedToken) private idToToken;\n\n    function updateTokenPrice(uint _tokenPrice) public payable {\n        require(owner == msg.sender, \"Only owner can update the listed token price\");\n        tokenPrice = _tokenPrice;\n    }\n\n    function getTokenPrice() public view returns(uint) {\n        return tokenPrice;\n    }\n\n    //---------------------------------------------------------------------------------------------\n\n    // Create NFT\n    function createNFT(string memory name, string memory description, uint price) public payable returns (uint){\n        // increment the tokenId counter, which is keep track of the number of mined NFTs\n        _tokenIds.increment();\n        uint newTokenId = _tokenIds.current();\n\n        _safeMint(msg.sender, newTokenId);\n\n        listNFTForSale(newTokenId, name, price, description);\n\n        return newTokenId;\n    }\n\n    // List a NFT for sale\n    function listNFTForSale(uint tokenId, string memory name, uint price, string memory description) private {\n        \n        require(msg.value == tokenPrice, \"Hopefully sending the correct price\");\n\n        require(price > 0, \"The price is not negative\");\n\n        // update the mapping of tokenId's to token details\n        idToToken[tokenId] = infoListedToken(\n            tokenId,\n            payable(address(this)),\n            payable(msg.sender),\n            name,\n            price,\n            description,\n            true\n        );\n\n        _transfer(msg.sender, address(this), tokenId);\n\n        // Emit the event for successful transfer.\n        emit TokenListedSuccess(\n            tokenId,\n            address(this),\n            msg.sender,\n            name,\n            price,\n            description,\n            true\n        );\n    }\n\n    // transfer NFT function\n    function transferNFT(uint tokenId) public payable{\n        uint _price = idToToken[tokenId].price;\n        address seller = idToToken[tokenId].seller;\n        require(msg.value == _price, \"Make sure the purchasing price is the correct during the this transaction\");\n\n        //update the details of the token\n        idToToken[tokenId].currentListed = true;\n        idToToken[tokenId].seller = payable(msg.sender);\n        _itemSold.increment();\n\n        //Actually transfer the token to the new owner\n        _transfer(address(this), msg.sender, tokenId);\n        //approve the marketplace to sell NFTs on your behalf\n        approve(address(this), tokenId);\n\n        //Transfer the listing fee to the marketplace creator\n        payable(owner).transfer(tokenPrice);\n        //Transfer the proceeds from the sale to the seller of the NFT\n        payable(seller).transfer(msg.value);\n    }\n    \n}\n",
  "sourcePath": "/Users/liujiawen/Desktop/Columbia Courses/Blockchain/ELEN6883-FinalProject/contracts/NFTMarketplace.sol",
  "compiler": {
    "name": "solc",
    "version": "0.8.13+commit.abaa5c0e.Emscripten.clang"
  },
  "schemaVersion": "3.4.13",
  "updatedAt": "2023-05-01T20:54:03.224Z",
  "devdoc": {
    "kind": "dev",
    "methods": {
      "approve(address,uint256)": {
        "details": "See {IERC721-approve}."
      },
      "balanceOf(address)": {
        "details": "See {IERC721-balanceOf}."
      },
      "getApproved(uint256)": {
        "details": "See {IERC721-getApproved}."
      },
      "isApprovedForAll(address,address)": {
        "details": "See {IERC721-isApprovedForAll}."
      },
      "name()": {
        "details": "See {IERC721Metadata-name}."
      },
      "ownerOf(uint256)": {
        "details": "See {IERC721-ownerOf}."
      },
      "safeTransferFrom(address,address,uint256)": {
        "details": "See {IERC721-safeTransferFrom}."
      },
      "safeTransferFrom(address,address,uint256,bytes)": {
        "details": "See {IERC721-safeTransferFrom}."
      },
      "setApprovalForAll(address,bool)": {
        "details": "See {IERC721-setApprovalForAll}."
      },
      "supportsInterface(bytes4)": {
        "details": "See {IERC165-supportsInterface}."
      },
      "symbol()": {
        "details": "See {IERC721Metadata-symbol}."
      },
      "tokenURI(uint256)": {
        "details": "See {IERC721Metadata-tokenURI}."
      },
      "transferFrom(address,address,uint256)": {
        "details": "See {IERC721-transferFrom}."
      }
    },
    "version": 1
  },
  "userdoc": {
    "kind": "user",
    "methods": {},
    "version": 1
  }
}