{
  "contractName": "NFTMarketplace",
  "abi": [
    {
      "inputs": [
        {
          "internalType": "string",
          "name": "name",
          "type": "string"
        },
        {
          "internalType": "string",
          "name": "symbol",
          "type": "string"
        },
        {
          "internalType": "uint256",
          "name": "percentage",
          "type": "uint256"
        }
      ],
      "stateMutability": "nonpayable",
      "type": "constructor"
    },
    {
      "anonymous": false,
      "inputs": [
        {
          "indexed": true,
          "internalType": "address",
          "name": "owner",
          "type": "address"
        },
        {
          "indexed": true,
          "internalType": "address",
          "name": "approved",
          "type": "address"
        },
        {
          "indexed": true,
          "internalType": "uint256",
          "name": "tokenId",
          "type": "uint256"
        }
      ],
      "name": "Approval",
      "type": "event"
    },
    {
      "anonymous": false,
      "inputs": [
        {
          "indexed": true,
          "internalType": "address",
          "name": "owner",
          "type": "address"
        },
        {
          "indexed": true,
          "internalType": "address",
          "name": "operator",
          "type": "address"
        },
        {
          "indexed": false,
          "internalType": "bool",
          "name": "approved",
          "type": "bool"
        }
      ],
      "name": "ApprovalForAll",
      "type": "event"
    },
    {
      "anonymous": false,
      "inputs": [
        {
          "indexed": true,
          "internalType": "address",
          "name": "previousOwner",
          "type": "address"
        },
        {
          "indexed": true,
          "internalType": "address",
          "name": "newOwner",
          "type": "address"
        }
      ],
      "name": "OwnershipTransferred",
      "type": "event"
    },
    {
      "anonymous": false,
      "inputs": [
        {
          "indexed": true,
          "internalType": "address",
          "name": "from",
          "type": "address"
        },
        {
          "indexed": true,
          "internalType": "address",
          "name": "to",
          "type": "address"
        },
        {
          "indexed": true,
          "internalType": "uint256",
          "name": "tokenId",
          "type": "uint256"
        }
      ],
      "name": "Transfer",
      "type": "event"
    },
    {
      "inputs": [
        {
          "internalType": "address",
          "name": "to",
          "type": "address"
        },
        {
          "internalType": "uint256",
          "name": "tokenId",
          "type": "uint256"
        }
      ],
      "name": "approve",
      "outputs": [],
      "stateMutability": "nonpayable",
      "type": "function"
    },
    {
      "inputs": [
        {
          "internalType": "address",
          "name": "owner",
          "type": "address"
        }
      ],
      "name": "balanceOf",
      "outputs": [
        {
          "internalType": "uint256",
          "name": "",
          "type": "uint256"
        }
      ],
      "stateMutability": "view",
      "type": "function"
    },
    {
      "inputs": [
        {
          "internalType": "uint256",
          "name": "tokenId",
          "type": "uint256"
        }
      ],
      "name": "getApproved",
      "outputs": [
        {
          "internalType": "address",
          "name": "",
          "type": "address"
        }
      ],
      "stateMutability": "view",
      "type": "function"
    },
    {
      "inputs": [
        {
          "internalType": "uint256",
          "name": "",
          "type": "uint256"
        }
      ],
      "name": "idToToken",
      "outputs": [
        {
          "internalType": "uint256",
          "name": "id",
          "type": "uint256"
        },
        {
          "internalType": "address",
          "name": "owner",
          "type": "address"
        },
        {
          "internalType": "string",
          "name": "name",
          "type": "string"
        },
        {
          "internalType": "uint256",
          "name": "price",
          "type": "uint256"
        },
        {
          "internalType": "string",
          "name": "description",
          "type": "string"
        },
        {
          "internalType": "bool",
          "name": "is_listed",
          "type": "bool"
        }
      ],
      "stateMutability": "view",
      "type": "function"
    },
    {
      "inputs": [
        {
          "internalType": "address",
          "name": "owner",
          "type": "address"
        },
        {
          "internalType": "address",
          "name": "operator",
          "type": "address"
        }
      ],
      "name": "isApprovedForAll",
      "outputs": [
        {
          "internalType": "bool",
          "name": "",
          "type": "bool"
        }
      ],
      "stateMutability": "view",
      "type": "function"
    },
    {
      "inputs": [],
      "name": "name",
      "outputs": [
        {
          "internalType": "string",
          "name": "",
          "type": "string"
        }
      ],
      "stateMutability": "view",
      "type": "function"
    },
    {
      "inputs": [],
      "name": "owner",
      "outputs": [
        {
          "internalType": "address",
          "name": "",
          "type": "address"
        }
      ],
      "stateMutability": "view",
      "type": "function"
    },
    {
      "inputs": [
        {
          "internalType": "uint256",
          "name": "tokenId",
          "type": "uint256"
        }
      ],
      "name": "ownerOf",
      "outputs": [
        {
          "internalType": "address",
          "name": "",
          "type": "address"
        }
      ],
      "stateMutability": "view",
      "type": "function"
    },
    {
      "inputs": [],
      "name": "renounceOwnership",
      "outputs": [],
      "stateMutability": "nonpayable",
      "type": "function"
    },
    {
      "inputs": [
        {
          "internalType": "address",
          "name": "from",
          "type": "address"
        },
        {
          "internalType": "address",
          "name": "to",
          "type": "address"
        },
        {
          "internalType": "uint256",
          "name": "tokenId",
          "type": "uint256"
        }
      ],
      "name": "safeTransferFrom",
      "outputs": [],
      "stateMutability": "nonpayable",
      "type": "function"
    },
    {
      "inputs": [
        {
          "internalType": "address",
          "name": "from",
          "type": "address"
        },
        {
          "internalType": "address",
          "name": "to",
          "type": "address"
        },
        {
          "internalType": "uint256",
          "name": "tokenId",
          "type": "uint256"
        },
        {
          "internalType": "bytes",
          "name": "data",
          "type": "bytes"
        }
      ],
      "name": "safeTransferFrom",
      "outputs": [],
      "stateMutability": "nonpayable",
      "type": "function"
    },
    {
      "inputs": [
        {
          "internalType": "address",
          "name": "operator",
          "type": "address"
        },
        {
          "internalType": "bool",
          "name": "approved",
          "type": "bool"
        }
      ],
      "name": "setApprovalForAll",
      "outputs": [],
      "stateMutability": "nonpayable",
      "type": "function"
    },
    {
      "inputs": [
        {
          "internalType": "bytes4",
          "name": "interfaceId",
          "type": "bytes4"
        }
      ],
      "name": "supportsInterface",
      "outputs": [
        {
          "internalType": "bool",
          "name": "",
          "type": "bool"
        }
      ],
      "stateMutability": "view",
      "type": "function"
    },
    {
      "inputs": [],
      "name": "symbol",
      "outputs": [
        {
          "internalType": "string",
          "name": "",
          "type": "string"
        }
      ],
      "stateMutability": "view",
      "type": "function"
    },
    {
      "inputs": [
        {
          "internalType": "uint256",
          "name": "tokenId",
          "type": "uint256"
        }
      ],
      "name": "tokenURI",
      "outputs": [
        {
          "internalType": "string",
          "name": "",
          "type": "string"
        }
      ],
      "stateMutability": "view",
      "type": "function"
    },
    {
      "inputs": [
        {
          "internalType": "address",
          "name": "from",
          "type": "address"
        },
        {
          "internalType": "address",
          "name": "to",
          "type": "address"
        },
        {
          "internalType": "uint256",
          "name": "tokenId",
          "type": "uint256"
        }
      ],
      "name": "transferFrom",
      "outputs": [],
      "stateMutability": "nonpayable",
      "type": "function"
    },
    {
      "inputs": [
        {
          "internalType": "address",
          "name": "newOwner",
          "type": "address"
        }
      ],
      "name": "transferOwnership",
      "outputs": [],
      "stateMutability": "nonpayable",
      "type": "function"
    },
    {
      "inputs": [
        {
          "internalType": "address",
          "name": "",
          "type": "address"
        }
      ],
      "name": "userFunds",
      "outputs": [
        {
          "internalType": "uint256",
          "name": "",
          "type": "uint256"
        }
      ],
      "stateMutability": "view",
      "type": "function"
    },
    {
      "inputs": [
        {
          "internalType": "uint256",
          "name": "id",
          "type": "uint256"
        }
      ],
      "name": "getNFT",
      "outputs": [
        {
          "components": [
            {
              "internalType": "uint256",
              "name": "id",
              "type": "uint256"
            },
            {
              "internalType": "address",
              "name": "owner",
              "type": "address"
            },
            {
              "internalType": "string",
              "name": "name",
              "type": "string"
            },
            {
              "internalType": "uint256",
              "name": "price",
              "type": "uint256"
            },
            {
              "internalType": "string",
              "name": "description",
              "type": "string"
            },
            {
              "internalType": "bool",
              "name": "is_listed",
              "type": "bool"
            }
          ],
          "internalType": "struct NFTMarketplace.NFT",
          "name": "",
          "type": "tuple"
        }
      ],
      "stateMutability": "view",
      "type": "function"
    },
    {
      "inputs": [],
      "name": "commissionPercentage",
      "outputs": [
        {
          "internalType": "uint256",
          "name": "",
          "type": "uint256"
        }
      ],
      "stateMutability": "view",
      "type": "function"
    },
    {
      "inputs": [],
      "name": "mintNFT",
      "outputs": [
        {
          "internalType": "uint256",
          "name": "",
          "type": "uint256"
        }
      ],
      "stateMutability": "nonpayable",
      "type": "function"
    },
    {
      "inputs": [
        {
          "internalType": "uint256",
          "name": "id",
          "type": "uint256"
        },
        {
          "internalType": "string",
          "name": "name",
          "type": "string"
        },
        {
          "internalType": "string",
          "name": "description",
          "type": "string"
        }
      ],
      "name": "createNFT",
      "outputs": [],
      "stateMutability": "payable",
      "type": "function"
    },
    {
      "inputs": [
        {
          "internalType": "uint256",
          "name": "id",
          "type": "uint256"
        },
        {
          "internalType": "address",
          "name": "toAddress",
          "type": "address"
        }
      ],
      "name": "transferNFT",
      "outputs": [],
      "stateMutability": "payable",
      "type": "function"
    },
    {
      "inputs": [
        {
          "internalType": "uint256",
          "name": "id",
          "type": "uint256"
        },
        {
          "internalType": "uint256",
          "name": "price",
          "type": "uint256"
        }
      ],
      "name": "listNFTForSale",
      "outputs": [],
      "stateMutability": "nonpayable",
      "type": "function"
    },
    {
      "inputs": [
        {
          "internalType": "uint256",
          "name": "id",
          "type": "uint256"
        }
      ],
      "name": "removeNFTFromSale",
      "outputs": [],
      "stateMutability": "nonpayable",
      "type": "function"
    },
    {
      "inputs": [
        {
          "internalType": "uint256",
          "name": "id",
          "type": "uint256"
        }
      ],
      "name": "purchaseNFT",
      "outputs": [],
      "stateMutability": "payable",
      "type": "function"
    }
  ],
  "bytecode": "0x60806040523480156200001157600080fd5b506040516200495638038062004956833981810160405281019062000037919062000434565b8282816000908051906020019062000051929190620001ac565b5080600190805190602001906200006a929190620001ac565b5050506200008d62000081620000de60201b60201c565b620000e660201b60201c565b8060098190555033600860006101000a81548173ffffffffffffffffffffffffffffffffffffffff021916908373ffffffffffffffffffffffffffffffffffffffff16021790555050505062000532565b600033905090565b6000600660009054906101000a900473ffffffffffffffffffffffffffffffffffffffff16905081600660006101000a81548173ffffffffffffffffffffffffffffffffffffffff021916908373ffffffffffffffffffffffffffffffffffffffff1602179055508173ffffffffffffffffffffffffffffffffffffffff168173ffffffffffffffffffffffffffffffffffffffff167f8be0079c531659141344cd1fd0a4f28419497f9722a3daafe3b4186f6b6457e060405160405180910390a35050565b828054620001ba90620004fd565b90600052602060002090601f016020900481019282620001de57600085556200022a565b82601f10620001f957805160ff19168380011785556200022a565b828001600101855582156200022a579182015b82811115620002295782518255916020019190600101906200020c565b5b5090506200023991906200023d565b5090565b5b80821115620002585760008160009055506001016200023e565b5090565b6000604051905090565b600080fd5b600080fd5b600080fd5b600080fd5b6000601f19601f8301169050919050565b7f4e487b7100000000000000000000000000000000000000000000000000000000600052604160045260246000fd5b620002c5826200027a565b810181811067ffffffffffffffff82111715620002e757620002e66200028b565b5b80604052505050565b6000620002fc6200025c565b90506200030a8282620002ba565b919050565b600067ffffffffffffffff8211156200032d576200032c6200028b565b5b62000338826200027a565b9050602081019050919050565b60005b838110156200036557808201518184015260208101905062000348565b8381111562000375576000848401525b50505050565b6000620003926200038c846200030f565b620002f0565b905082815260208101848484011115620003b157620003b062000275565b5b620003be84828562000345565b509392505050565b600082601f830112620003de57620003dd62000270565b5b8151620003f08482602086016200037b565b91505092915050565b6000819050919050565b6200040e81620003f9565b81146200041a57600080fd5b50565b6000815190506200042e8162000403565b92915050565b60008060006060848603121562000450576200044f62000266565b5b600084015167ffffffffffffffff8111156200047157620004706200026b565b5b6200047f86828701620003c6565b935050602084015167ffffffffffffffff811115620004a357620004a26200026b565b5b620004b186828701620003c6565b9250506040620004c4868287016200041d565b9150509250925092565b7f4e487b7100000000000000000000000000000000000000000000000000000000600052602260045260246000fd5b600060028204905060018216806200051657607f821691505b6020821081036200052c576200052b620004ce565b5b50919050565b61441480620005426000396000f3fe6080604052600436106101815760003560e01c80638387c6e1116100d1578063b2733b391161008a578063d575fe6411610064578063d575fe6414610567578063e985e9c514610592578063f2fde38b146105cf578063f5c6b96b146105f857610181565b8063b2733b39146104d8578063b88d4fde14610501578063c87b56dd1461052a57610181565b80638387c6e1146103d75780638da5cb5b146104145780639036c0501461043f57806395d89b411461045b578063a02e510714610486578063a22cb465146104af57610181565b8063150bde031161013e578063576f7ea711610118578063576f7ea7146103095780636352211e1461034657806370a0823114610383578063715018a6146103c057610181565b8063150bde031461029b57806323b872dd146102b757806342842e0e146102e057610181565b806301ffc9a71461018657806304366881146101c357806306fdde03146101df578063081812fc1461020a578063095ea7b31461024757806314f710fe14610270575b600080fd5b34801561019257600080fd5b506101ad60048036038101906101a89190612c75565b61063a565b6040516101ba9190612cbd565b60405180910390f35b6101dd60048036038101906101d89190612e54565b61071c565b005b3480156101eb57600080fd5b506101f46108b6565b6040516102019190612f67565b60405180910390f35b34801561021657600080fd5b50610231600480360381019061022c9190612f89565b610948565b60405161023e9190612ff7565b60405180910390f35b34801561025357600080fd5b5061026e6004803603810190610269919061303e565b61098e565b005b34801561027c57600080fd5b50610285610aa5565b604051610292919061308d565b60405180910390f35b6102b560048036038101906102b09190612f89565b610c4c565b005b3480156102c357600080fd5b506102de60048036038101906102d991906130a8565b610f5a565b005b3480156102ec57600080fd5b50610307600480360381019061030291906130a8565b610fba565b005b34801561031557600080fd5b50610330600480360381019061032b9190612f89565b610fda565b60405161033d9190613202565b60405180910390f35b34801561035257600080fd5b5061036d60048036038101906103689190612f89565b6111b0565b60405161037a9190612ff7565b60405180910390f35b34801561038f57600080fd5b506103aa60048036038101906103a59190613224565b611236565b6040516103b7919061308d565b60405180910390f35b3480156103cc57600080fd5b506103d56112ed565b005b3480156103e357600080fd5b506103fe60048036038101906103f99190613224565b611301565b60405161040b919061308d565b60405180910390f35b34801561042057600080fd5b50610429611319565b6040516104369190612ff7565b60405180910390f35b61045960048036038101906104549190613251565b611343565b005b34801561046757600080fd5b506104706114c6565b60405161047d9190612f67565b60405180910390f35b34801561049257600080fd5b506104ad60048036038101906104a89190612f89565b611558565b005b3480156104bb57600080fd5b506104d660048036038101906104d191906132bd565b6116b9565b005b3480156104e457600080fd5b506104ff60048036038101906104fa91906132fd565b6116cf565b005b34801561050d57600080fd5b50610528600480360381019061052391906133de565b61187e565b005b34801561053657600080fd5b50610551600480360381019061054c9190612f89565b6118e0565b60405161055e9190612f67565b60405180910390f35b34801561057357600080fd5b5061057c611948565b604051610589919061308d565b60405180910390f35b34801561059e57600080fd5b506105b960048036038101906105b49190613461565b611952565b6040516105c69190612cbd565b60405180910390f35b3480156105db57600080fd5b506105f660048036038101906105f19190613224565b6119e6565b005b34801561060457600080fd5b5061061f600480360381019061061a9190612f89565b611a69565b604051610631969594939291906134a1565b60405180910390f35b60007f80ac58cd000000000000000000000000000000000000000000000000000000007bffffffffffffffffffffffffffffffffffffffffffffffffffffffff1916827bffffffffffffffffffffffffffffffffffffffffffffffffffffffff1916148061070557507f5b5e139f000000000000000000000000000000000000000000000000000000007bffffffffffffffffffffffffffffffffffffffffffffffffffffffff1916827bffffffffffffffffffffffffffffffffffffffffffffffffffffffff1916145b80610715575061071482611be2565b5b9050919050565b6107266007611c4c565b600073ffffffffffffffffffffffffffffffffffffffff163373ffffffffffffffffffffffffffffffffffffffff1603610795576040517f08c379a000000000000000000000000000000000000000000000000000000000815260040161078c9061355c565b60405180910390fd5b61079f3384611c62565b6040518060c001604052808481526020013373ffffffffffffffffffffffffffffffffffffffff1681526020018381526020016000815260200182815260200160001515815250600a60008581526020019081526020016000206000820151816000015560208201518160010160006101000a81548173ffffffffffffffffffffffffffffffffffffffff021916908373ffffffffffffffffffffffffffffffffffffffff1602179055506040820151816002019080519060200190610866929190612b18565b5060608201518160030155608082015181600401908051906020019061088d929190612b18565b5060a08201518160050160006101000a81548160ff021916908315150217905550905050505050565b6060600080546108c5906135ab565b80601f01602080910402602001604051908101604052809291908181526020018280546108f1906135ab565b801561093e5780601f106109135761010080835404028352916020019161093e565b820191906000526020600020905b81548152906001019060200180831161092157829003601f168201915b5050505050905090565b600061095382611c80565b6004600083815260200190815260200160002060009054906101000a900473ffffffffffffffffffffffffffffffffffffffff169050919050565b6000610999826111b0565b90508073ffffffffffffffffffffffffffffffffffffffff168373ffffffffffffffffffffffffffffffffffffffff1603610a09576040517f08c379a0000000000000000000000000000000000000000000000000000000008152600401610a009061364e565b60405180910390fd5b8073ffffffffffffffffffffffffffffffffffffffff16610a28611ccb565b73ffffffffffffffffffffffffffffffffffffffff161480610a575750610a5681610a51611ccb565b611952565b5b610a96576040517f08c379a0000000000000000000000000000000000000000000000000000000008152600401610a8d906136e0565b60405180910390fd5b610aa08383611cd3565b505050565b6000610ab16007611c4c565b6000610abd6007611d8c565b9050610ac93382611c62565b6040518060c001604052808281526020013373ffffffffffffffffffffffffffffffffffffffff1681526020016040518060400160405280600481526020017f4e554c4c000000000000000000000000000000000000000000000000000000008152508152602001600081526020016040518060400160405280600481526020017f4e554c4c00000000000000000000000000000000000000000000000000000000815250815260200160001515815250600a60008381526020019081526020016000206000820151816000015560208201518160010160006101000a81548173ffffffffffffffffffffffffffffffffffffffff021916908373ffffffffffffffffffffffffffffffffffffffff1602179055506040820151816002019080519060200190610bfa929190612b18565b50606082015181600301556080820151816004019080519060200190610c21929190612b18565b5060a08201518160050160006101000a81548160ff0219169083151502179055509050508091505090565b6000600a600083815260200190815260200160002090508060050160009054906101000a900460ff16610cb4576040517f08c379a0000000000000000000000000000000000000000000000000000000008152600401610cab90613772565b60405180910390fd5b81816000015414610cfa576040517f08c379a0000000000000000000000000000000000000000000000000000000008152600401610cf1906137de565b60405180910390fd5b3373ffffffffffffffffffffffffffffffffffffffff168160010160009054906101000a900473ffffffffffffffffffffffffffffffffffffffff1673ffffffffffffffffffffffffffffffffffffffff1603610d8c576040517f08c379a0000000000000000000000000000000000000000000000000000000008152600401610d8390613870565b60405180910390fd5b8060030154341015610dd3576040517f08c379a0000000000000000000000000000000000000000000000000000000008152600401610dca90613902565b60405180910390fd5b60008160010160009054906101000a900473ffffffffffffffffffffffffffffffffffffffff1690506000826003015490506000606460095483610e179190613951565b610e2191906139da565b90508273ffffffffffffffffffffffffffffffffffffffff166108fc8284610e499190613a0b565b9081150290604051600060405180830381858888f19350505050158015610e74573d6000803e3d6000fd5b50600860009054906101000a900473ffffffffffffffffffffffffffffffffffffffff1673ffffffffffffffffffffffffffffffffffffffff166108fc829081150290604051600060405180830381858888f19350505050158015610edd573d6000803e3d6000fd5b50610ee9833387611d9a565b338460010160006101000a81548173ffffffffffffffffffffffffffffffffffffffff021916908373ffffffffffffffffffffffffffffffffffffffff16021790555060008460050160006101000a81548160ff021916908315150217905550600084600301819055505050505050565b610f6b610f65611ccb565b82612093565b610faa576040517f08c379a0000000000000000000000000000000000000000000000000000000008152600401610fa190613ab1565b60405180910390fd5b610fb5838383611d9a565b505050565b610fd58383836040518060200160405280600081525061187e565b505050565b610fe2612b9e565b600a60008381526020019081526020016000206040518060c0016040529081600082015481526020016001820160009054906101000a900473ffffffffffffffffffffffffffffffffffffffff1673ffffffffffffffffffffffffffffffffffffffff1673ffffffffffffffffffffffffffffffffffffffff168152602001600282018054611070906135ab565b80601f016020809104026020016040519081016040528092919081815260200182805461109c906135ab565b80156110e95780601f106110be576101008083540402835291602001916110e9565b820191906000526020600020905b8154815290600101906020018083116110cc57829003601f168201915b505050505081526020016003820154815260200160048201805461110c906135ab565b80601f0160208091040260200160405190810160405280929190818152602001828054611138906135ab565b80156111855780601f1061115a57610100808354040283529160200191611185565b820191906000526020600020905b81548152906001019060200180831161116857829003601f168201915b505050505081526020016005820160009054906101000a900460ff1615151515815250509050919050565b6000806111bc83612128565b9050600073ffffffffffffffffffffffffffffffffffffffff168173ffffffffffffffffffffffffffffffffffffffff160361122d576040517f08c379a000000000000000000000000000000000000000000000000000000000815260040161122490613b1d565b60405180910390fd5b80915050919050565b60008073ffffffffffffffffffffffffffffffffffffffff168273ffffffffffffffffffffffffffffffffffffffff16036112a6576040517f08c379a000000000000000000000000000000000000000000000000000000000815260040161129d90613baf565b60405180910390fd5b600360008373ffffffffffffffffffffffffffffffffffffffff1673ffffffffffffffffffffffffffffffffffffffff168152602001908152602001600020549050919050565b6112f5612165565b6112ff60006121e3565b565b600b6020528060005260406000206000915090505481565b6000600660009054906101000a900473ffffffffffffffffffffffffffffffffffffffff16905090565b6000600a60008481526020019081526020016000209050828160000154146113a0576040517f08c379a0000000000000000000000000000000000000000000000000000000008152600401611397906137de565b60405180910390fd5b3373ffffffffffffffffffffffffffffffffffffffff168160010160009054906101000a900473ffffffffffffffffffffffffffffffffffffffff1673ffffffffffffffffffffffffffffffffffffffff1614611432576040517f08c379a000000000000000000000000000000000000000000000000000000000815260040161142990613c1b565b60405180910390fd5b6000600a600085815260200190815260200160002060050160006101000a81548160ff02191690831515021790555081600a600085815260200190815260200160002060010160006101000a81548173ffffffffffffffffffffffffffffffffffffffff021916908373ffffffffffffffffffffffffffffffffffffffff1602179055506114c1338385611d9a565b505050565b6060600180546114d5906135ab565b80601f0160208091040260200160405190810160405280929190818152602001828054611501906135ab565b801561154e5780601f106115235761010080835404028352916020019161154e565b820191906000526020600020905b81548152906001019060200180831161153157829003601f168201915b5050505050905090565b6000600a60008381526020019081526020016000209050818160000154146115b5576040517f08c379a00000000000000000000000000000000000000000000000000000000081526004016115ac906137de565b60405180910390fd5b3373ffffffffffffffffffffffffffffffffffffffff168160010160009054906101000a900473ffffffffffffffffffffffffffffffffffffffff1673ffffffffffffffffffffffffffffffffffffffff1614611647576040517f08c379a000000000000000000000000000000000000000000000000000000000815260040161163e90613cad565b60405180910390fd5b8060050160009054906101000a900460ff16611698576040517f08c379a000000000000000000000000000000000000000000000000000000000815260040161168f90613d19565b60405180910390fd5b60008160050160006101000a81548160ff0219169083151502179055505050565b6116cb6116c4611ccb565b83836122a9565b5050565b6000600a600084815260200190815260200160002090508281600001541461172c576040517f08c379a0000000000000000000000000000000000000000000000000000000008152600401611723906137de565b60405180910390fd5b6000821161176f576040517f08c379a000000000000000000000000000000000000000000000000000000000815260040161176690613d85565b60405180910390fd5b3373ffffffffffffffffffffffffffffffffffffffff168160010160009054906101000a900473ffffffffffffffffffffffffffffffffffffffff1673ffffffffffffffffffffffffffffffffffffffff1614611801576040517f08c379a00000000000000000000000000000000000000000000000000000000081526004016117f890613e17565b60405180910390fd5b8060050160009054906101000a900460ff1615611853576040517f08c379a000000000000000000000000000000000000000000000000000000000815260040161184a90613e83565b60405180910390fd5b60018160050160006101000a81548160ff021916908315150217905550818160030181905550505050565b61188f611889611ccb565b83612093565b6118ce576040517f08c379a00000000000000000000000000000000000000000000000000000000081526004016118c590613ab1565b60405180910390fd5b6118da84848484612415565b50505050565b60606118eb82611c80565b60006118f5612471565b905060008151116119155760405180602001604052806000815250611940565b8061191f84612488565b604051602001611930929190613edf565b6040516020818303038152906040525b915050919050565b6000600954905090565b6000600560008473ffffffffffffffffffffffffffffffffffffffff1673ffffffffffffffffffffffffffffffffffffffff16815260200190815260200160002060008373ffffffffffffffffffffffffffffffffffffffff1673ffffffffffffffffffffffffffffffffffffffff16815260200190815260200160002060009054906101000a900460ff16905092915050565b6119ee612165565b600073ffffffffffffffffffffffffffffffffffffffff168173ffffffffffffffffffffffffffffffffffffffff1603611a5d576040517f08c379a0000000000000000000000000000000000000000000000000000000008152600401611a5490613f75565b60405180910390fd5b611a66816121e3565b50565b600a6020528060005260406000206000915090508060000154908060010160009054906101000a900473ffffffffffffffffffffffffffffffffffffffff1690806002018054611ab8906135ab565b80601f0160208091040260200160405190810160405280929190818152602001828054611ae4906135ab565b8015611b315780601f10611b0657610100808354040283529160200191611b31565b820191906000526020600020905b815481529060010190602001808311611b1457829003601f168201915b505050505090806003015490806004018054611b4c906135ab565b80601f0160208091040260200160405190810160405280929190818152602001828054611b78906135ab565b8015611bc55780601f10611b9a57610100808354040283529160200191611bc5565b820191906000526020600020905b815481529060010190602001808311611ba857829003601f168201915b5050505050908060050160009054906101000a900460ff16905086565b60007f01ffc9a7000000000000000000000000000000000000000000000000000000007bffffffffffffffffffffffffffffffffffffffffffffffffffffffff1916827bffffffffffffffffffffffffffffffffffffffffffffffffffffffff1916149050919050565b6001816000016000828254019250508190555050565b611c7c828260405180602001604052806000815250612556565b5050565b611c89816125b1565b611cc8576040517f08c379a0000000000000000000000000000000000000000000000000000000008152600401611cbf90613b1d565b60405180910390fd5b50565b600033905090565b816004600083815260200190815260200160002060006101000a81548173ffffffffffffffffffffffffffffffffffffffff021916908373ffffffffffffffffffffffffffffffffffffffff160217905550808273ffffffffffffffffffffffffffffffffffffffff16611d46836111b0565b73ffffffffffffffffffffffffffffffffffffffff167f8c5be1e5ebec7d5bd14f71427d1e84f3dd0314c0f7b2291e5b200ac8c7c3b92560405160405180910390a45050565b600081600001549050919050565b8273ffffffffffffffffffffffffffffffffffffffff16611dba826111b0565b73ffffffffffffffffffffffffffffffffffffffff1614611e10576040517f08c379a0000000000000000000000000000000000000000000000000000000008152600401611e0790614007565b60405180910390fd5b600073ffffffffffffffffffffffffffffffffffffffff168273ffffffffffffffffffffffffffffffffffffffff1603611e7f576040517f08c379a0000000000000000000000000000000000000000000000000000000008152600401611e7690614099565b60405180910390fd5b611e8c83838360016125f2565b8273ffffffffffffffffffffffffffffffffffffffff16611eac826111b0565b73ffffffffffffffffffffffffffffffffffffffff1614611f02576040517f08c379a0000000000000000000000000000000000000000000000000000000008152600401611ef990614007565b60405180910390fd5b6004600082815260200190815260200160002060006101000a81549073ffffffffffffffffffffffffffffffffffffffff02191690556001600360008573ffffffffffffffffffffffffffffffffffffffff1673ffffffffffffffffffffffffffffffffffffffff168152602001908152602001600020600082825403925050819055506001600360008473ffffffffffffffffffffffffffffffffffffffff1673ffffffffffffffffffffffffffffffffffffffff16815260200190815260200160002060008282540192505081905550816002600083815260200190815260200160002060006101000a81548173ffffffffffffffffffffffffffffffffffffffff021916908373ffffffffffffffffffffffffffffffffffffffff160217905550808273ffffffffffffffffffffffffffffffffffffffff168473ffffffffffffffffffffffffffffffffffffffff167fddf252ad1be2c89b69c2b068fc378daa952ba7f163c4a11628f55a4df523b3ef60405160405180910390a461208e83838360016125f8565b505050565b60008061209f836111b0565b90508073ffffffffffffffffffffffffffffffffffffffff168473ffffffffffffffffffffffffffffffffffffffff1614806120e157506120e08185611952565b5b8061211f57508373ffffffffffffffffffffffffffffffffffffffff1661210784610948565b73ffffffffffffffffffffffffffffffffffffffff16145b91505092915050565b60006002600083815260200190815260200160002060009054906101000a900473ffffffffffffffffffffffffffffffffffffffff169050919050565b61216d611ccb565b73ffffffffffffffffffffffffffffffffffffffff1661218b611319565b73ffffffffffffffffffffffffffffffffffffffff16146121e1576040517f08c379a00000000000000000000000000000000000000000000000000000000081526004016121d890614105565b60405180910390fd5b565b6000600660009054906101000a900473ffffffffffffffffffffffffffffffffffffffff16905081600660006101000a81548173ffffffffffffffffffffffffffffffffffffffff021916908373ffffffffffffffffffffffffffffffffffffffff1602179055508173ffffffffffffffffffffffffffffffffffffffff168173ffffffffffffffffffffffffffffffffffffffff167f8be0079c531659141344cd1fd0a4f28419497f9722a3daafe3b4186f6b6457e060405160405180910390a35050565b8173ffffffffffffffffffffffffffffffffffffffff168373ffffffffffffffffffffffffffffffffffffffff1603612317576040517f08c379a000000000000000000000000000000000000000000000000000000000815260040161230e90614171565b60405180910390fd5b80600560008573ffffffffffffffffffffffffffffffffffffffff1673ffffffffffffffffffffffffffffffffffffffff16815260200190815260200160002060008473ffffffffffffffffffffffffffffffffffffffff1673ffffffffffffffffffffffffffffffffffffffff16815260200190815260200160002060006101000a81548160ff0219169083151502179055508173ffffffffffffffffffffffffffffffffffffffff168373ffffffffffffffffffffffffffffffffffffffff167f17307eab39ab6107e8899845ad3d59bd9653f200f220920489ca2b5937696c31836040516124089190612cbd565b60405180910390a3505050565b612420848484611d9a565b61242c848484846125fe565b61246b576040517f08c379a000000000000000000000000000000000000000000000000000000000815260040161246290614203565b60405180910390fd5b50505050565b606060405180602001604052806000815250905090565b60606000600161249784612785565b01905060008167ffffffffffffffff8111156124b6576124b5612d29565b5b6040519080825280601f01601f1916602001820160405280156124e85781602001600182028036833780820191505090505b509050600082602001820190505b60011561254b578080600190039150507f3031323334353637383961626364656600000000000000000000000000000000600a86061a8153600a858161253f5761253e6139ab565b5b049450600085036124f6575b819350505050919050565b61256083836128d8565b61256d60008484846125fe565b6125ac576040517f08c379a00000000000000000000000000000000000000000000000000000000081526004016125a390614203565b60405180910390fd5b505050565b60008073ffffffffffffffffffffffffffffffffffffffff166125d383612128565b73ffffffffffffffffffffffffffffffffffffffff1614159050919050565b50505050565b50505050565b600061261f8473ffffffffffffffffffffffffffffffffffffffff16612af5565b15612778578373ffffffffffffffffffffffffffffffffffffffff1663150b7a02612648611ccb565b8786866040518563ffffffff1660e01b815260040161266a9493929190614278565b6020604051808303816000875af19250505080156126a657506040513d601f19601f820116820180604052508101906126a391906142d9565b60015b612728573d80600081146126d6576040519150601f19603f3d011682016040523d82523d6000602084013e6126db565b606091505b506000815103612720576040517f08c379a000000000000000000000000000000000000000000000000000000000815260040161271790614203565b60405180910390fd5b805181602001fd5b63150b7a0260e01b7bffffffffffffffffffffffffffffffffffffffffffffffffffffffff1916817bffffffffffffffffffffffffffffffffffffffffffffffffffffffff19161491505061277d565b600190505b949350505050565b600080600090507a184f03e93ff9f4daa797ed6e38ed64bf6a1f01000000000000000083106127e3577a184f03e93ff9f4daa797ed6e38ed64bf6a1f01000000000000000083816127d9576127d86139ab565b5b0492506040810190505b6d04ee2d6d415b85acef81000000008310612820576d04ee2d6d415b85acef81000000008381612816576128156139ab565b5b0492506020810190505b662386f26fc10000831061284f57662386f26fc100008381612845576128446139ab565b5b0492506010810190505b6305f5e1008310612878576305f5e100838161286e5761286d6139ab565b5b0492506008810190505b612710831061289d576127108381612893576128926139ab565b5b0492506004810190505b606483106128c057606483816128b6576128b56139ab565b5b0492506002810190505b600a83106128cf576001810190505b80915050919050565b600073ffffffffffffffffffffffffffffffffffffffff168273ffffffffffffffffffffffffffffffffffffffff1603612947576040517f08c379a000000000000000000000000000000000000000000000000000000000815260040161293e90614352565b60405180910390fd5b612950816125b1565b15612990576040517f08c379a0000000000000000000000000000000000000000000000000000000008152600401612987906143be565b60405180910390fd5b61299e6000838360016125f2565b6129a7816125b1565b156129e7576040517f08c379a00000000000000000000000000000000000000000000000000000000081526004016129de906143be565b60405180910390fd5b6001600360008473ffffffffffffffffffffffffffffffffffffffff1673ffffffffffffffffffffffffffffffffffffffff16815260200190815260200160002060008282540192505081905550816002600083815260200190815260200160002060006101000a81548173ffffffffffffffffffffffffffffffffffffffff021916908373ffffffffffffffffffffffffffffffffffffffff160217905550808273ffffffffffffffffffffffffffffffffffffffff16600073ffffffffffffffffffffffffffffffffffffffff167fddf252ad1be2c89b69c2b068fc378daa952ba7f163c4a11628f55a4df523b3ef60405160405180910390a4612af16000838360016125f8565b5050565b6000808273ffffffffffffffffffffffffffffffffffffffff163b119050919050565b828054612b24906135ab565b90600052602060002090601f016020900481019282612b465760008555612b8d565b82601f10612b5f57805160ff1916838001178555612b8d565b82800160010185558215612b8d579182015b82811115612b8c578251825591602001919060010190612b71565b5b509050612b9a9190612bec565b5090565b6040518060c0016040528060008152602001600073ffffffffffffffffffffffffffffffffffffffff1681526020016060815260200160008152602001606081526020016000151581525090565b5b80821115612c05576000816000905550600101612bed565b5090565b6000604051905090565b600080fd5b600080fd5b60007fffffffff0000000000000000000000000000000000000000000000000000000082169050919050565b612c5281612c1d565b8114612c5d57600080fd5b50565b600081359050612c6f81612c49565b92915050565b600060208284031215612c8b57612c8a612c13565b5b6000612c9984828501612c60565b91505092915050565b60008115159050919050565b612cb781612ca2565b82525050565b6000602082019050612cd26000830184612cae565b92915050565b6000819050919050565b612ceb81612cd8565b8114612cf657600080fd5b50565b600081359050612d0881612ce2565b92915050565b600080fd5b600080fd5b6000601f19601f8301169050919050565b7f4e487b7100000000000000000000000000000000000000000000000000000000600052604160045260246000fd5b612d6182612d18565b810181811067ffffffffffffffff82111715612d8057612d7f612d29565b5b80604052505050565b6000612d93612c09565b9050612d9f8282612d58565b919050565b600067ffffffffffffffff821115612dbf57612dbe612d29565b5b612dc882612d18565b9050602081019050919050565b82818337600083830152505050565b6000612df7612df284612da4565b612d89565b905082815260208101848484011115612e1357612e12612d13565b5b612e1e848285612dd5565b509392505050565b600082601f830112612e3b57612e3a612d0e565b5b8135612e4b848260208601612de4565b91505092915050565b600080600060608486031215612e6d57612e6c612c13565b5b6000612e7b86828701612cf9565b935050602084013567ffffffffffffffff811115612e9c57612e9b612c18565b5b612ea886828701612e26565b925050604084013567ffffffffffffffff811115612ec957612ec8612c18565b5b612ed586828701612e26565b9150509250925092565b600081519050919050565b600082825260208201905092915050565b60005b83811015612f19578082015181840152602081019050612efe565b83811115612f28576000848401525b50505050565b6000612f3982612edf565b612f438185612eea565b9350612f53818560208601612efb565b612f5c81612d18565b840191505092915050565b60006020820190508181036000830152612f818184612f2e565b905092915050565b600060208284031215612f9f57612f9e612c13565b5b6000612fad84828501612cf9565b91505092915050565b600073ffffffffffffffffffffffffffffffffffffffff82169050919050565b6000612fe182612fb6565b9050919050565b612ff181612fd6565b82525050565b600060208201905061300c6000830184612fe8565b92915050565b61301b81612fd6565b811461302657600080fd5b50565b60008135905061303881613012565b92915050565b6000806040838503121561305557613054612c13565b5b600061306385828601613029565b925050602061307485828601612cf9565b9150509250929050565b61308781612cd8565b82525050565b60006020820190506130a2600083018461307e565b92915050565b6000806000606084860312156130c1576130c0612c13565b5b60006130cf86828701613029565b93505060206130e086828701613029565b92505060406130f186828701612cf9565b9150509250925092565b61310481612cd8565b82525050565b61311381612fd6565b82525050565b600082825260208201905092915050565b600061313582612edf565b61313f8185613119565b935061314f818560208601612efb565b61315881612d18565b840191505092915050565b61316c81612ca2565b82525050565b600060c08301600083015161318a60008601826130fb565b50602083015161319d602086018261310a565b50604083015184820360408601526131b5828261312a565b91505060608301516131ca60608601826130fb565b50608083015184820360808601526131e2828261312a565b91505060a08301516131f760a0860182613163565b508091505092915050565b6000602082019050818103600083015261321c8184613172565b905092915050565b60006020828403121561323a57613239612c13565b5b600061324884828501613029565b91505092915050565b6000806040838503121561326857613267612c13565b5b600061327685828601612cf9565b925050602061328785828601613029565b9150509250929050565b61329a81612ca2565b81146132a557600080fd5b50565b6000813590506132b781613291565b92915050565b600080604083850312156132d4576132d3612c13565b5b60006132e285828601613029565b92505060206132f3858286016132a8565b9150509250929050565b6000806040838503121561331457613313612c13565b5b600061332285828601612cf9565b925050602061333385828601612cf9565b9150509250929050565b600067ffffffffffffffff82111561335857613357612d29565b5b61336182612d18565b9050602081019050919050565b600061338161337c8461333d565b612d89565b90508281526020810184848401111561339d5761339c612d13565b5b6133a8848285612dd5565b509392505050565b600082601f8301126133c5576133c4612d0e565b5b81356133d584826020860161336e565b91505092915050565b600080600080608085870312156133f8576133f7612c13565b5b600061340687828801613029565b945050602061341787828801613029565b935050604061342887828801612cf9565b925050606085013567ffffffffffffffff81111561344957613448612c18565b5b613455878288016133b0565b91505092959194509250565b6000806040838503121561347857613477612c13565b5b600061348685828601613029565b925050602061349785828601613029565b9150509250929050565b600060c0820190506134b6600083018961307e565b6134c36020830188612fe8565b81810360408301526134d58187612f2e565b90506134e4606083018661307e565b81810360808301526134f68185612f2e565b905061350560a0830184612cae565b979650505050505050565b7f416464726573732063616e6e6f74206265207a65726f21000000000000000000600082015250565b6000613546601783612eea565b915061355182613510565b602082019050919050565b6000602082019050818103600083015261357581613539565b9050919050565b7f4e487b7100000000000000000000000000000000000000000000000000000000600052602260045260246000fd5b600060028204905060018216806135c357607f821691505b6020821081036135d6576135d561357c565b5b50919050565b7f4552433732313a20617070726f76616c20746f2063757272656e74206f776e6560008201527f7200000000000000000000000000000000000000000000000000000000000000602082015250565b6000613638602183612eea565b9150613643826135dc565b604082019050919050565b600060208201905081810360008301526136678161362b565b9050919050565b7f4552433732313a20617070726f76652063616c6c6572206973206e6f7420746f60008201527f6b656e206f776e6572206f7220617070726f76656420666f7220616c6c000000602082015250565b60006136ca603d83612eea565b91506136d58261366e565b604082019050919050565b600060208201905081810360008301526136f9816136bd565b9050919050565b7f546865204e4654206e6565647320746f206265206c697374656420746f20626560008201527f2070757263686173656400000000000000000000000000000000000000000000602082015250565b600061375c602a83612eea565b915061376782613700565b604082019050919050565b6000602082019050818103600083015261378b8161374f565b9050919050565b7f546865204e4654206d7573742065786973740000000000000000000000000000600082015250565b60006137c8601283612eea565b91506137d382613792565b602082019050919050565b600060208201905081810360008301526137f7816137bb565b9050919050565b7f41204e46542063616e206e6f742062652070757263686173656420627920697460008201527f2773206f776e6572000000000000000000000000000000000000000000000000602082015250565b600061385a602883612eea565b9150613865826137fe565b604082019050919050565b600060208201905081810360008301526138898161384d565b9050919050565b7f54686520627579657220646f6573206e6f74206861766520656e6f756768206d60008201527f6f6e657900000000000000000000000000000000000000000000000000000000602082015250565b60006138ec602483612eea565b91506138f782613890565b604082019050919050565b6000602082019050818103600083015261391b816138df565b9050919050565b7f4e487b7100000000000000000000000000000000000000000000000000000000600052601160045260246000fd5b600061395c82612cd8565b915061396783612cd8565b9250817fffffffffffffffffffffffffffffffffffffffffffffffffffffffffffffffff04831182151516156139a05761399f613922565b5b828202905092915050565b7f4e487b7100000000000000000000000000000000000000000000000000000000600052601260045260246000fd5b60006139e582612cd8565b91506139f083612cd8565b925082613a00576139ff6139ab565b5b828204905092915050565b6000613a1682612cd8565b9150613a2183612cd8565b925082821015613a3457613a33613922565b5b828203905092915050565b7f4552433732313a2063616c6c6572206973206e6f7420746f6b656e206f776e6560008201527f72206f7220617070726f76656400000000000000000000000000000000000000602082015250565b6000613a9b602d83612eea565b9150613aa682613a3f565b604082019050919050565b60006020820190508181036000830152613aca81613a8e565b9050919050565b7f4552433732313a20696e76616c696420746f6b656e2049440000000000000000600082015250565b6000613b07601883612eea565b9150613b1282613ad1565b602082019050919050565b60006020820190508181036000830152613b3681613afa565b9050919050565b7f4552433732313a2061646472657373207a65726f206973206e6f74206120766160008201527f6c6964206f776e65720000000000000000000000000000000000000000000000602082015250565b6000613b99602983612eea565b9150613ba482613b3d565b604082019050919050565b60006020820190508181036000830152613bc881613b8c565b9050919050565b7f43757272656e74207573657220646f206e6f74206f776e2074686973204e4654600082015250565b6000613c05602083612eea565b9150613c1082613bcf565b602082019050919050565b60006020820190508181036000830152613c3481613bf8565b9050919050565b7f546865204e46542063616e206f6e6c792062652072656d6f766564206279206f60008201527f776e657200000000000000000000000000000000000000000000000000000000602082015250565b6000613c97602483612eea565b9150613ca282613c3b565b604082019050919050565b60006020820190508181036000830152613cc681613c8a565b9050919050565b7f546865204e465420686173206e6f74206265656e206c69737465642079657400600082015250565b6000613d03601f83612eea565b9150613d0e82613ccd565b602082019050919050565b60006020820190508181036000830152613d3281613cf6565b9050919050565b7f546865207072696365206d75737420626520706f736974697665000000000000600082015250565b6000613d6f601a83612eea565b9150613d7a82613d39565b602082019050919050565b60006020820190508181036000830152613d9e81613d62565b9050919050565b7f4f6e6c7920746865206f6e7765722063616e206c6973742061204e465420666f60008201527f722073616c650000000000000000000000000000000000000000000000000000602082015250565b6000613e01602683612eea565b9150613e0c82613da5565b604082019050919050565b60006020820190508181036000830152613e3081613df4565b9050919050565b7f546865204e465420697320616c7265616479206c697374656400000000000000600082015250565b6000613e6d601983612eea565b9150613e7882613e37565b602082019050919050565b60006020820190508181036000830152613e9c81613e60565b9050919050565b600081905092915050565b6000613eb982612edf565b613ec38185613ea3565b9350613ed3818560208601612efb565b80840191505092915050565b6000613eeb8285613eae565b9150613ef78284613eae565b91508190509392505050565b7f4f776e61626c653a206e6577206f776e657220697320746865207a65726f206160008201527f6464726573730000000000000000000000000000000000000000000000000000602082015250565b6000613f5f602683612eea565b9150613f6a82613f03565b604082019050919050565b60006020820190508181036000830152613f8e81613f52565b9050919050565b7f4552433732313a207472616e736665722066726f6d20696e636f72726563742060008201527f6f776e6572000000000000000000000000000000000000000000000000000000602082015250565b6000613ff1602583612eea565b9150613ffc82613f95565b604082019050919050565b6000602082019050818103600083015261402081613fe4565b9050919050565b7f4552433732313a207472616e7366657220746f20746865207a65726f2061646460008201527f7265737300000000000000000000000000000000000000000000000000000000602082015250565b6000614083602483612eea565b915061408e82614027565b604082019050919050565b600060208201905081810360008301526140b281614076565b9050919050565b7f4f776e61626c653a2063616c6c6572206973206e6f7420746865206f776e6572600082015250565b60006140ef602083612eea565b91506140fa826140b9565b602082019050919050565b6000602082019050818103600083015261411e816140e2565b9050919050565b7f4552433732313a20617070726f766520746f2063616c6c657200000000000000600082015250565b600061415b601983612eea565b915061416682614125565b602082019050919050565b6000602082019050818103600083015261418a8161414e565b9050919050565b7f4552433732313a207472616e7366657220746f206e6f6e20455243373231526560008201527f63656976657220696d706c656d656e7465720000000000000000000000000000602082015250565b60006141ed603283612eea565b91506141f882614191565b604082019050919050565b6000602082019050818103600083015261421c816141e0565b9050919050565b600081519050919050565b600082825260208201905092915050565b600061424a82614223565b614254818561422e565b9350614264818560208601612efb565b61426d81612d18565b840191505092915050565b600060808201905061428d6000830187612fe8565b61429a6020830186612fe8565b6142a7604083018561307e565b81810360608301526142b9818461423f565b905095945050505050565b6000815190506142d381612c49565b92915050565b6000602082840312156142ef576142ee612c13565b5b60006142fd848285016142c4565b91505092915050565b7f4552433732313a206d696e7420746f20746865207a65726f2061646472657373600082015250565b600061433c602083612eea565b915061434782614306565b602082019050919050565b6000602082019050818103600083015261436b8161432f565b9050919050565b7f4552433732313a20746f6b656e20616c7265616479206d696e74656400000000600082015250565b60006143a8601c83612eea565b91506143b382614372565b602082019050919050565b600060208201905081810360008301526143d78161439b565b905091905056fea2646970667358221220dcc4d32aa048b5c1db0c60aaf71ec5a7cc81f5fd790f2e98ca2fb4675876420064736f6c634300080d0033",
  "immutableReferences": {},
  "source": "// SPDX-License-Identifier: UNLICENSED\npragma solidity ^0.8.13;\n\nimport \"@openzeppelin/contracts/utils/Counters.sol\";\nimport \"@openzeppelin/contracts/token/ERC721/ERC721.sol\";\nimport \"@openzeppelin/contracts/access/Ownable.sol\";\n\ncontract NFTMarketplace is ERC721, Ownable{\n    using Counters for Counters.Counter;\n    Counters.Counter private _marketTokenCounts;\n\n    // The structure to store info about a NFT in blockchain\n    struct NFT {\n        uint id;\n        address owner;\n        string name;\n        uint price;\n        string description;\n        bool is_listed;\n    }\n\n    address payable private marketOwner;\n    uint private commision_percentage;\n\n    //mapping from token id to token information\n    mapping(uint => NFT) public idToToken;\n\n    //mapping from a user address to user's fund\n    mapping(address => uint) public userFunds;\n\n    constructor(string memory name, string memory symbol, uint percentage) ERC721(name, symbol) {\n        commision_percentage = percentage;\n        marketOwner = payable(msg.sender);\n    }\n\n    // Get NFT\n    function getNFT(uint id) public view returns (NFT memory) {\n        return idToToken[id];\n    }\n\n    // Get commision percentage\n    function commissionPercentage() public view returns (uint) {\n        return commision_percentage;\n    }\n\n    // mint a new NFT and returns the id\n    function mintNFT() public returns (uint) {\n        // increment the tokenId counter, which is keep track of the number of mined NFTs\n        _marketTokenCounts.increment();\n        uint newTokenId = _marketTokenCounts.current();\n        _safeMint(msg.sender, newTokenId);\n        idToToken[newTokenId] = NFT(\n            newTokenId, \n            msg.sender, \n            \"NULL\", \n            0 , \n            \"NULL\", \n            false\n            );\n        return newTokenId;\n    }\n\n    // Create NFT\n    function createNFT(uint id, string memory name, string memory description) public payable {\n        _marketTokenCounts.increment();\n        require(msg.sender != address(0), \"Address cannot be zero!\");\n        _safeMint(msg.sender, id);\n        idToToken[id] = NFT(\n            id,\n            msg.sender,\n            name,\n            0,\n            description,\n            false\n        );\n    }\n\n    // transfer NFT function\n    function transferNFT(uint id, address toAddress) public payable{\n        NFT storage item = idToToken[id];\n        require(item.id == id, \"The NFT must exist\");\n        require(item.owner == msg.sender, \"Current user do not own this NFT\");\n        //update the details of the token\n        idToToken[id].is_listed = false;\n        idToToken[id].owner = toAddress;\n        //Actually transfer the token to the new owner\n        // setApprovalForAll(fromAddress, true);\n        _transfer(msg.sender, toAddress, id);\n    }\n\n    // list NFT for sale\n    function listNFTForSale(uint id, uint price) public {\n        NFT storage item = idToToken[id];\n        require(item.id == id, \"The NFT must exist\");\n        require(price > 0, \"The price must be positive\");\n        require(item.owner == msg.sender, \"Only the onwer can list a NFT for sale\");\n        require(!item.is_listed, \"The NFT is already listed\");\n        item.is_listed = true;\n        item.price = price;\n    }\n\n    // remove NFT From sale\n    function removeNFTFromSale(uint id) public {\n        NFT storage item = idToToken[id];\n        require(item.id == id, \"The NFT must exist\");\n        require(item.owner == msg.sender, \"The NFT can only be removed by owner\");\n        require(item.is_listed, \"The NFT has not been listed yet\");\n        item.is_listed = false;\n    }\n\n    function purchaseNFT(uint id) public payable {\n        NFT storage item = idToToken[id];\n        require(item.is_listed, \"The NFT needs to be listed to be purchased\");\n        require(item.id == id, \"The NFT must exist\");\n        require(item.owner != msg.sender, \"A NFT can not be purchased by it's owner\");\n        require(msg.value >= item.price, \"The buyer does not have enough money\");\n\n        // Transfer money to the seller and the market owner\n        address payable seller = payable(item.owner);\n        uint256 sale_amount = item.price;\n        uint256 commision_fee = sale_amount * (commision_percentage) / 100;\n        seller.transfer(sale_amount - commision_fee);\n        marketOwner.transfer(commision_fee);\n\n        // Transfer the NFT to the new owner and remove it from the market\n        _transfer(seller, msg.sender, id);\n        item.owner = msg.sender;\n        item.is_listed = false;\n        item.price = 0;\n    }\n}\n",
  "sourcePath": "/Users/haohsinhsu/Desktop/ELEN6883-FinalProject/contracts/NFTMarketplace.sol",
  "compiler": {
    "name": "solc",
    "version": "0.8.13+commit.abaa5c0e.Emscripten.clang"
  },
  "schemaVersion": "3.4.13",
  "updatedAt": "2023-05-07T23:54:25.662Z",
  "devdoc": {
    "kind": "dev",
    "methods": {
      "approve(address,uint256)": {
        "details": "See {IERC721-approve}."
      },
      "balanceOf(address)": {
        "details": "See {IERC721-balanceOf}."
      },
      "getApproved(uint256)": {
        "details": "See {IERC721-getApproved}."
      },
      "isApprovedForAll(address,address)": {
        "details": "See {IERC721-isApprovedForAll}."
      },
      "name()": {
        "details": "See {IERC721Metadata-name}."
      },
      "owner()": {
        "details": "Returns the address of the current owner."
      },
      "ownerOf(uint256)": {
        "details": "See {IERC721-ownerOf}."
      },
      "renounceOwnership()": {
        "details": "Leaves the contract without owner. It will not be possible to call `onlyOwner` functions anymore. Can only be called by the current owner. NOTE: Renouncing ownership will leave the contract without an owner, thereby removing any functionality that is only available to the owner."
      },
      "safeTransferFrom(address,address,uint256)": {
        "details": "See {IERC721-safeTransferFrom}."
      },
      "safeTransferFrom(address,address,uint256,bytes)": {
        "details": "See {IERC721-safeTransferFrom}."
      },
      "setApprovalForAll(address,bool)": {
        "details": "See {IERC721-setApprovalForAll}."
      },
      "supportsInterface(bytes4)": {
        "details": "See {IERC165-supportsInterface}."
      },
      "symbol()": {
        "details": "See {IERC721Metadata-symbol}."
      },
      "tokenURI(uint256)": {
        "details": "See {IERC721Metadata-tokenURI}."
      },
      "transferFrom(address,address,uint256)": {
        "details": "See {IERC721-transferFrom}."
      },
      "transferOwnership(address)": {
        "details": "Transfers ownership of the contract to a new account (`newOwner`). Can only be called by the current owner."
      }
    },
    "version": 1
  },
  "userdoc": {
    "kind": "user",
    "methods": {},
    "version": 1
  }
}