{
  "contractName": "NFTMarketplace",
  "abi": [
    {
      "inputs": [
        {
          "internalType": "string",
          "name": "name",
          "type": "string"
        },
        {
          "internalType": "string",
          "name": "symbol",
          "type": "string"
        },
        {
          "internalType": "uint256",
          "name": "percentage",
          "type": "uint256"
        }
      ],
      "stateMutability": "nonpayable",
      "type": "constructor"
    },
    {
      "anonymous": false,
      "inputs": [
        {
          "indexed": true,
          "internalType": "address",
          "name": "owner",
          "type": "address"
        },
        {
          "indexed": true,
          "internalType": "address",
          "name": "approved",
          "type": "address"
        },
        {
          "indexed": true,
          "internalType": "uint256",
          "name": "tokenId",
          "type": "uint256"
        }
      ],
      "name": "Approval",
      "type": "event"
    },
    {
      "anonymous": false,
      "inputs": [
        {
          "indexed": true,
          "internalType": "address",
          "name": "owner",
          "type": "address"
        },
        {
          "indexed": true,
          "internalType": "address",
          "name": "operator",
          "type": "address"
        },
        {
          "indexed": false,
          "internalType": "bool",
          "name": "approved",
          "type": "bool"
        }
      ],
      "name": "ApprovalForAll",
      "type": "event"
    },
    {
      "anonymous": false,
      "inputs": [
        {
          "indexed": true,
          "internalType": "address",
          "name": "previousOwner",
          "type": "address"
        },
        {
          "indexed": true,
          "internalType": "address",
          "name": "newOwner",
          "type": "address"
        }
      ],
      "name": "OwnershipTransferred",
      "type": "event"
    },
    {
      "anonymous": false,
      "inputs": [
        {
          "indexed": true,
          "internalType": "address",
          "name": "from",
          "type": "address"
        },
        {
          "indexed": true,
          "internalType": "address",
          "name": "to",
          "type": "address"
        },
        {
          "indexed": true,
          "internalType": "uint256",
          "name": "tokenId",
          "type": "uint256"
        }
      ],
      "name": "Transfer",
      "type": "event"
    },
    {
      "inputs": [
        {
          "internalType": "address",
          "name": "to",
          "type": "address"
        },
        {
          "internalType": "uint256",
          "name": "tokenId",
          "type": "uint256"
        }
      ],
      "name": "approve",
      "outputs": [],
      "stateMutability": "nonpayable",
      "type": "function"
    },
    {
      "inputs": [
        {
          "internalType": "address",
          "name": "owner",
          "type": "address"
        }
      ],
      "name": "balanceOf",
      "outputs": [
        {
          "internalType": "uint256",
          "name": "",
          "type": "uint256"
        }
      ],
      "stateMutability": "view",
      "type": "function"
    },
    {
      "inputs": [
        {
          "internalType": "uint256",
          "name": "tokenId",
          "type": "uint256"
        }
      ],
      "name": "getApproved",
      "outputs": [
        {
          "internalType": "address",
          "name": "",
          "type": "address"
        }
      ],
      "stateMutability": "view",
      "type": "function"
    },
    {
      "inputs": [
        {
          "internalType": "uint256",
          "name": "",
          "type": "uint256"
        }
      ],
      "name": "idToToken",
      "outputs": [
        {
          "internalType": "uint256",
          "name": "id",
          "type": "uint256"
        },
        {
          "internalType": "address",
          "name": "owner",
          "type": "address"
        },
        {
          "internalType": "string",
          "name": "name",
          "type": "string"
        },
        {
          "internalType": "uint256",
          "name": "price",
          "type": "uint256"
        },
        {
          "internalType": "string",
          "name": "description",
          "type": "string"
        },
        {
          "internalType": "bool",
          "name": "is_listed",
          "type": "bool"
        }
      ],
      "stateMutability": "view",
      "type": "function"
    },
    {
      "inputs": [
        {
          "internalType": "address",
          "name": "owner",
          "type": "address"
        },
        {
          "internalType": "address",
          "name": "operator",
          "type": "address"
        }
      ],
      "name": "isApprovedForAll",
      "outputs": [
        {
          "internalType": "bool",
          "name": "",
          "type": "bool"
        }
      ],
      "stateMutability": "view",
      "type": "function"
    },
    {
      "inputs": [],
      "name": "name",
      "outputs": [
        {
          "internalType": "string",
          "name": "",
          "type": "string"
        }
      ],
      "stateMutability": "view",
      "type": "function"
    },
    {
      "inputs": [],
      "name": "owner",
      "outputs": [
        {
          "internalType": "address",
          "name": "",
          "type": "address"
        }
      ],
      "stateMutability": "view",
      "type": "function"
    },
    {
      "inputs": [
        {
          "internalType": "uint256",
          "name": "tokenId",
          "type": "uint256"
        }
      ],
      "name": "ownerOf",
      "outputs": [
        {
          "internalType": "address",
          "name": "",
          "type": "address"
        }
      ],
      "stateMutability": "view",
      "type": "function"
    },
    {
      "inputs": [],
      "name": "renounceOwnership",
      "outputs": [],
      "stateMutability": "nonpayable",
      "type": "function"
    },
    {
      "inputs": [
        {
          "internalType": "address",
          "name": "from",
          "type": "address"
        },
        {
          "internalType": "address",
          "name": "to",
          "type": "address"
        },
        {
          "internalType": "uint256",
          "name": "tokenId",
          "type": "uint256"
        }
      ],
      "name": "safeTransferFrom",
      "outputs": [],
      "stateMutability": "nonpayable",
      "type": "function"
    },
    {
      "inputs": [
        {
          "internalType": "address",
          "name": "from",
          "type": "address"
        },
        {
          "internalType": "address",
          "name": "to",
          "type": "address"
        },
        {
          "internalType": "uint256",
          "name": "tokenId",
          "type": "uint256"
        },
        {
          "internalType": "bytes",
          "name": "data",
          "type": "bytes"
        }
      ],
      "name": "safeTransferFrom",
      "outputs": [],
      "stateMutability": "nonpayable",
      "type": "function"
    },
    {
      "inputs": [
        {
          "internalType": "address",
          "name": "operator",
          "type": "address"
        },
        {
          "internalType": "bool",
          "name": "approved",
          "type": "bool"
        }
      ],
      "name": "setApprovalForAll",
      "outputs": [],
      "stateMutability": "nonpayable",
      "type": "function"
    },
    {
      "inputs": [
        {
          "internalType": "bytes4",
          "name": "interfaceId",
          "type": "bytes4"
        }
      ],
      "name": "supportsInterface",
      "outputs": [
        {
          "internalType": "bool",
          "name": "",
          "type": "bool"
        }
      ],
      "stateMutability": "view",
      "type": "function"
    },
    {
      "inputs": [],
      "name": "symbol",
      "outputs": [
        {
          "internalType": "string",
          "name": "",
          "type": "string"
        }
      ],
      "stateMutability": "view",
      "type": "function"
    },
    {
      "inputs": [
        {
          "internalType": "uint256",
          "name": "tokenId",
          "type": "uint256"
        }
      ],
      "name": "tokenURI",
      "outputs": [
        {
          "internalType": "string",
          "name": "",
          "type": "string"
        }
      ],
      "stateMutability": "view",
      "type": "function"
    },
    {
      "inputs": [
        {
          "internalType": "address",
          "name": "from",
          "type": "address"
        },
        {
          "internalType": "address",
          "name": "to",
          "type": "address"
        },
        {
          "internalType": "uint256",
          "name": "tokenId",
          "type": "uint256"
        }
      ],
      "name": "transferFrom",
      "outputs": [],
      "stateMutability": "nonpayable",
      "type": "function"
    },
    {
      "inputs": [
        {
          "internalType": "address",
          "name": "newOwner",
          "type": "address"
        }
      ],
      "name": "transferOwnership",
      "outputs": [],
      "stateMutability": "nonpayable",
      "type": "function"
    },
    {
      "inputs": [
        {
          "internalType": "address",
          "name": "",
          "type": "address"
        }
      ],
      "name": "userFunds",
      "outputs": [
        {
          "internalType": "uint256",
          "name": "",
          "type": "uint256"
        }
      ],
      "stateMutability": "view",
      "type": "function"
    },
    {
      "inputs": [
        {
          "internalType": "uint256",
          "name": "id",
          "type": "uint256"
        }
      ],
      "name": "getNFT",
      "outputs": [
        {
          "components": [
            {
              "internalType": "uint256",
              "name": "id",
              "type": "uint256"
            },
            {
              "internalType": "address",
              "name": "owner",
              "type": "address"
            },
            {
              "internalType": "string",
              "name": "name",
              "type": "string"
            },
            {
              "internalType": "uint256",
              "name": "price",
              "type": "uint256"
            },
            {
              "internalType": "string",
              "name": "description",
              "type": "string"
            },
            {
              "internalType": "bool",
              "name": "is_listed",
              "type": "bool"
            }
          ],
          "internalType": "struct NFTMarketplace.NFT",
          "name": "",
          "type": "tuple"
        }
      ],
      "stateMutability": "view",
      "type": "function"
    },
    {
      "inputs": [],
      "name": "commissionPercentage",
      "outputs": [
        {
          "internalType": "uint256",
          "name": "",
          "type": "uint256"
        }
      ],
      "stateMutability": "view",
      "type": "function"
    },
    {
      "inputs": [],
      "name": "mintNFT",
      "outputs": [
        {
          "internalType": "uint256",
          "name": "",
          "type": "uint256"
        }
      ],
      "stateMutability": "nonpayable",
      "type": "function"
    },
    {
      "inputs": [
        {
          "internalType": "uint256",
          "name": "id",
          "type": "uint256"
        },
        {
          "internalType": "string",
          "name": "name",
          "type": "string"
        },
        {
          "internalType": "string",
          "name": "description",
          "type": "string"
        },
        {
          "internalType": "address",
          "name": "user_address",
          "type": "address"
        }
      ],
      "name": "createNFT",
      "outputs": [
        {
          "internalType": "uint256",
          "name": "",
          "type": "uint256"
        }
      ],
      "stateMutability": "payable",
      "type": "function"
    },
    {
      "inputs": [
        {
          "internalType": "uint256",
          "name": "id",
          "type": "uint256"
        },
        {
          "internalType": "address",
          "name": "fromAddress",
          "type": "address"
        },
        {
          "internalType": "address",
          "name": "toAddress",
          "type": "address"
        }
      ],
      "name": "transferNFT",
      "outputs": [],
      "stateMutability": "payable",
      "type": "function"
    },
    {
      "inputs": [
        {
          "internalType": "uint256",
          "name": "id",
          "type": "uint256"
        },
        {
          "internalType": "uint256",
          "name": "price",
          "type": "uint256"
        },
        {
          "internalType": "address",
          "name": "user_address",
          "type": "address"
        }
      ],
      "name": "listNFTForSale",
      "outputs": [],
      "stateMutability": "nonpayable",
      "type": "function"
    },
    {
      "inputs": [
        {
          "internalType": "uint256",
          "name": "id",
          "type": "uint256"
        },
        {
          "internalType": "address",
          "name": "user_address",
          "type": "address"
        }
      ],
      "name": "removeNFTFromSale",
      "outputs": [],
      "stateMutability": "nonpayable",
      "type": "function"
    },
    {
      "inputs": [
        {
          "internalType": "uint256",
          "name": "id",
          "type": "uint256"
        }
      ],
      "name": "purchaseNFT",
      "outputs": [],
      "stateMutability": "payable",
      "type": "function"
    }
  ],
  "bytecode": "0x60806040523480156200001157600080fd5b50604051620048be380380620048be833981810160405281019062000037919062000434565b8282816000908051906020019062000051929190620001ac565b5080600190805190602001906200006a929190620001ac565b5050506200008d62000081620000de60201b60201c565b620000e660201b60201c565b8060098190555033600860006101000a81548173ffffffffffffffffffffffffffffffffffffffff021916908373ffffffffffffffffffffffffffffffffffffffff16021790555050505062000532565b600033905090565b6000600660009054906101000a900473ffffffffffffffffffffffffffffffffffffffff16905081600660006101000a81548173ffffffffffffffffffffffffffffffffffffffff021916908373ffffffffffffffffffffffffffffffffffffffff1602179055508173ffffffffffffffffffffffffffffffffffffffff168173ffffffffffffffffffffffffffffffffffffffff167f8be0079c531659141344cd1fd0a4f28419497f9722a3daafe3b4186f6b6457e060405160405180910390a35050565b828054620001ba90620004fd565b90600052602060002090601f016020900481019282620001de57600085556200022a565b82601f10620001f957805160ff19168380011785556200022a565b828001600101855582156200022a579182015b82811115620002295782518255916020019190600101906200020c565b5b5090506200023991906200023d565b5090565b5b80821115620002585760008160009055506001016200023e565b5090565b6000604051905090565b600080fd5b600080fd5b600080fd5b600080fd5b6000601f19601f8301169050919050565b7f4e487b7100000000000000000000000000000000000000000000000000000000600052604160045260246000fd5b620002c5826200027a565b810181811067ffffffffffffffff82111715620002e757620002e66200028b565b5b80604052505050565b6000620002fc6200025c565b90506200030a8282620002ba565b919050565b600067ffffffffffffffff8211156200032d576200032c6200028b565b5b62000338826200027a565b9050602081019050919050565b60005b838110156200036557808201518184015260208101905062000348565b8381111562000375576000848401525b50505050565b6000620003926200038c846200030f565b620002f0565b905082815260208101848484011115620003b157620003b062000275565b5b620003be84828562000345565b509392505050565b600082601f830112620003de57620003dd62000270565b5b8151620003f08482602086016200037b565b91505092915050565b6000819050919050565b6200040e81620003f9565b81146200041a57600080fd5b50565b6000815190506200042e8162000403565b92915050565b60008060006060848603121562000450576200044f62000266565b5b600084015167ffffffffffffffff8111156200047157620004706200026b565b5b6200047f86828701620003c6565b935050602084015167ffffffffffffffff811115620004a357620004a26200026b565b5b620004b186828701620003c6565b9250506040620004c4868287016200041d565b9150509250925092565b7f4e487b7100000000000000000000000000000000000000000000000000000000600052602260045260246000fd5b600060028204905060018216806200051657607f821691505b6020821081036200052c576200052b620004ce565b5b50919050565b61437c80620005426000396000f3fe6080604052600436106101815760003560e01c8063715018a6116100d1578063b88d4fde1161008a578063d575fe6411610064578063d575fe641461057b578063e985e9c5146105a6578063f2fde38b146105e3578063f5c6b96b1461060c57610181565b8063b88d4fde146104e5578063c87b56dd1461050e578063cacd7ece1461054b57610181565b8063715018a6146103e95780638387c6e1146104005780638da5cb5b1461043d57806395d89b41146104685780639b8383b114610493578063a22cb465146104bc57610181565b806323b872dd1161013e57806342842e0e1161011857806342842e0e14610309578063576f7ea7146103325780636352211e1461036f57806370a08231146103ac57610181565b806323b872dd1461029b5780632aafe132146102c45780633dcd08ea146102e057610181565b806301ffc9a71461018657806306fdde03146101c3578063081812fc146101ee578063095ea7b31461022b57806314f710fe14610254578063150bde031461027f575b600080fd5b34801561019257600080fd5b506101ad60048036038101906101a89190612c03565b61064e565b6040516101ba9190612c4b565b60405180910390f35b3480156101cf57600080fd5b506101d8610730565b6040516101e59190612cff565b60405180910390f35b3480156101fa57600080fd5b5061021560048036038101906102109190612d57565b6107c2565b6040516102229190612dc5565b60405180910390f35b34801561023757600080fd5b50610252600480360381019061024d9190612e0c565b610808565b005b34801561026057600080fd5b5061026961091f565b6040516102769190612e5b565b60405180910390f35b61029960048036038101906102949190612d57565b610ac6565b005b3480156102a757600080fd5b506102c260048036038101906102bd9190612e76565b610dc9565b005b6102de60048036038101906102d99190612ec9565b610e29565b005b3480156102ec57600080fd5b5061030760048036038101906103029190612f1c565b610f91565b005b34801561031557600080fd5b50610330600480360381019061032b9190612e76565b6110f3565b005b34801561033e57600080fd5b5061035960048036038101906103549190612d57565b611113565b6040516103669190613063565b60405180910390f35b34801561037b57600080fd5b5061039660048036038101906103919190612d57565b6112e9565b6040516103a39190612dc5565b60405180910390f35b3480156103b857600080fd5b506103d360048036038101906103ce9190613085565b61136f565b6040516103e09190612e5b565b60405180910390f35b3480156103f557600080fd5b506103fe611426565b005b34801561040c57600080fd5b5061042760048036038101906104229190613085565b61143a565b6040516104349190612e5b565b60405180910390f35b34801561044957600080fd5b50610452611452565b60405161045f9190612dc5565b60405180910390f35b34801561047457600080fd5b5061047d61147c565b60405161048a9190612cff565b60405180910390f35b34801561049f57600080fd5b506104ba60048036038101906104b591906130b2565b61150e565b005b3480156104c857600080fd5b506104e360048036038101906104de9190613131565b6116be565b005b3480156104f157600080fd5b5061050c600480360381019061050791906132a6565b6116d4565b005b34801561051a57600080fd5b5061053560048036038101906105309190612d57565b611736565b6040516105429190612cff565b60405180910390f35b610565600480360381019061056091906133ca565b61179e565b6040516105729190612e5b565b60405180910390f35b34801561058757600080fd5b506105906118d6565b60405161059d9190612e5b565b60405180910390f35b3480156105b257600080fd5b506105cd60048036038101906105c89190613469565b6118e0565b6040516105da9190612c4b565b60405180910390f35b3480156105ef57600080fd5b5061060a60048036038101906106059190613085565b611974565b005b34801561061857600080fd5b50610633600480360381019061062e9190612d57565b6119f7565b604051610645969594939291906134a9565b60405180910390f35b60007f80ac58cd000000000000000000000000000000000000000000000000000000007bffffffffffffffffffffffffffffffffffffffffffffffffffffffff1916827bffffffffffffffffffffffffffffffffffffffffffffffffffffffff1916148061071957507f5b5e139f000000000000000000000000000000000000000000000000000000007bffffffffffffffffffffffffffffffffffffffffffffffffffffffff1916827bffffffffffffffffffffffffffffffffffffffffffffffffffffffff1916145b80610729575061072882611b70565b5b9050919050565b60606000805461073f90613547565b80601f016020809104026020016040519081016040528092919081815260200182805461076b90613547565b80156107b85780601f1061078d576101008083540402835291602001916107b8565b820191906000526020600020905b81548152906001019060200180831161079b57829003601f168201915b5050505050905090565b60006107cd82611bda565b6004600083815260200190815260200160002060009054906101000a900473ffffffffffffffffffffffffffffffffffffffff169050919050565b6000610813826112e9565b90508073ffffffffffffffffffffffffffffffffffffffff168373ffffffffffffffffffffffffffffffffffffffff1603610883576040517f08c379a000000000000000000000000000000000000000000000000000000000815260040161087a906135ea565b60405180910390fd5b8073ffffffffffffffffffffffffffffffffffffffff166108a2611c25565b73ffffffffffffffffffffffffffffffffffffffff1614806108d157506108d0816108cb611c25565b6118e0565b5b610910576040517f08c379a00000000000000000000000000000000000000000000000000000000081526004016109079061367c565b60405180910390fd5b61091a8383611c2d565b505050565b600061092b6007611ce6565b60006109376007611cfc565b90506109433382611d0a565b6040518060c001604052808281526020013373ffffffffffffffffffffffffffffffffffffffff1681526020016040518060400160405280600481526020017f4e554c4c000000000000000000000000000000000000000000000000000000008152508152602001600081526020016040518060400160405280600481526020017f4e554c4c00000000000000000000000000000000000000000000000000000000815250815260200160001515815250600a60008381526020019081526020016000206000820151816000015560208201518160010160006101000a81548173ffffffffffffffffffffffffffffffffffffffff021916908373ffffffffffffffffffffffffffffffffffffffff1602179055506040820151816002019080519060200190610a74929190612aa6565b50606082015181600301556080820151816004019080519060200190610a9b929190612aa6565b5060a08201518160050160006101000a81548160ff0219169083151502179055509050508091505090565b6000600a600083815260200190815260200160002090508060050160009054906101000a900460ff16610b2e576040517f08c379a0000000000000000000000000000000000000000000000000000000008152600401610b259061370e565b60405180910390fd5b81816000015414610b74576040517f08c379a0000000000000000000000000000000000000000000000000000000008152600401610b6b9061377a565b60405180910390fd5b3373ffffffffffffffffffffffffffffffffffffffff168160010160009054906101000a900473ffffffffffffffffffffffffffffffffffffffff1673ffffffffffffffffffffffffffffffffffffffff1603610c06576040517f08c379a0000000000000000000000000000000000000000000000000000000008152600401610bfd9061380c565b60405180910390fd5b8060030154341015610c4d576040517f08c379a0000000000000000000000000000000000000000000000000000000008152600401610c449061389e565b60405180910390fd5b60008160010160009054906101000a900473ffffffffffffffffffffffffffffffffffffffff1690506000826003015490506000606460095483610c9191906138ed565b610c9b9190613976565b90508273ffffffffffffffffffffffffffffffffffffffff166108fc839081150290604051600060405180830381858888f19350505050158015610ce3573d6000803e3d6000fd5b50600860009054906101000a900473ffffffffffffffffffffffffffffffffffffffff1673ffffffffffffffffffffffffffffffffffffffff166108fc829081150290604051600060405180830381858888f19350505050158015610d4c573d6000803e3d6000fd5b5060008460050160006101000a81548160ff02191690831515021790555060008460030181905550338460010160006101000a81548173ffffffffffffffffffffffffffffffffffffffff021916908373ffffffffffffffffffffffffffffffffffffffff160217905550610dc28333876110f3565b5050505050565b610dda610dd4611c25565b82611d28565b610e19576040517f08c379a0000000000000000000000000000000000000000000000000000000008152600401610e1090613a19565b60405180910390fd5b610e24838383611dbd565b505050565b6000600a6000858152602001908152602001600020905083816000015414610e86576040517f08c379a0000000000000000000000000000000000000000000000000000000008152600401610e7d9061377a565b60405180910390fd5b3373ffffffffffffffffffffffffffffffffffffffff16610ea6856112e9565b73ffffffffffffffffffffffffffffffffffffffff1614610efc576040517f08c379a0000000000000000000000000000000000000000000000000000000008152600401610ef390613a85565b60405180910390fd5b6000600a600086815260200190815260200160002060050160006101000a81548160ff02191690831515021790555081600a600086815260200190815260200160002060010160006101000a81548173ffffffffffffffffffffffffffffffffffffffff021916908373ffffffffffffffffffffffffffffffffffffffff160217905550610f8b8383866110f3565b50505050565b6000600a6000848152602001908152602001600020905082816000015414610fee576040517f08c379a0000000000000000000000000000000000000000000000000000000008152600401610fe59061377a565b60405180910390fd5b8173ffffffffffffffffffffffffffffffffffffffff168160010160009054906101000a900473ffffffffffffffffffffffffffffffffffffffff1673ffffffffffffffffffffffffffffffffffffffff1614611080576040517f08c379a000000000000000000000000000000000000000000000000000000000815260040161107790613b17565b60405180910390fd5b8060050160009054906101000a900460ff166110d1576040517f08c379a00000000000000000000000000000000000000000000000000000000081526004016110c890613b83565b60405180910390fd5b60008160050160006101000a81548160ff021916908315150217905550505050565b61110e838383604051806020016040528060008152506116d4565b505050565b61111b612b2c565b600a60008381526020019081526020016000206040518060c0016040529081600082015481526020016001820160009054906101000a900473ffffffffffffffffffffffffffffffffffffffff1673ffffffffffffffffffffffffffffffffffffffff1673ffffffffffffffffffffffffffffffffffffffff1681526020016002820180546111a990613547565b80601f01602080910402602001604051908101604052809291908181526020018280546111d590613547565b80156112225780601f106111f757610100808354040283529160200191611222565b820191906000526020600020905b81548152906001019060200180831161120557829003601f168201915b505050505081526020016003820154815260200160048201805461124590613547565b80601f016020809104026020016040519081016040528092919081815260200182805461127190613547565b80156112be5780601f10611293576101008083540402835291602001916112be565b820191906000526020600020905b8154815290600101906020018083116112a157829003601f168201915b505050505081526020016005820160009054906101000a900460ff1615151515815250509050919050565b6000806112f5836120b6565b9050600073ffffffffffffffffffffffffffffffffffffffff168173ffffffffffffffffffffffffffffffffffffffff1603611366576040517f08c379a000000000000000000000000000000000000000000000000000000000815260040161135d90613bef565b60405180910390fd5b80915050919050565b60008073ffffffffffffffffffffffffffffffffffffffff168273ffffffffffffffffffffffffffffffffffffffff16036113df576040517f08c379a00000000000000000000000000000000000000000000000000000000081526004016113d690613c81565b60405180910390fd5b600360008373ffffffffffffffffffffffffffffffffffffffff1673ffffffffffffffffffffffffffffffffffffffff168152602001908152602001600020549050919050565b61142e6120f3565b6114386000612171565b565b600b6020528060005260406000206000915090505481565b6000600660009054906101000a900473ffffffffffffffffffffffffffffffffffffffff16905090565b60606001805461148b90613547565b80601f01602080910402602001604051908101604052809291908181526020018280546114b790613547565b80156115045780601f106114d957610100808354040283529160200191611504565b820191906000526020600020905b8154815290600101906020018083116114e757829003601f168201915b5050505050905090565b6000600a600085815260200190815260200160002090508381600001541461156b576040517f08c379a00000000000000000000000000000000000000000000000000000000081526004016115629061377a565b60405180910390fd5b600083116115ae576040517f08c379a00000000000000000000000000000000000000000000000000000000081526004016115a590613ced565b60405180910390fd5b8173ffffffffffffffffffffffffffffffffffffffff168160010160009054906101000a900473ffffffffffffffffffffffffffffffffffffffff1673ffffffffffffffffffffffffffffffffffffffff1614611640576040517f08c379a000000000000000000000000000000000000000000000000000000000815260040161163790613d7f565b60405180910390fd5b8060050160009054906101000a900460ff1615611692576040517f08c379a000000000000000000000000000000000000000000000000000000000815260040161168990613deb565b60405180910390fd5b60018160050160006101000a81548160ff02191690831515021790555082816003018190555050505050565b6116d06116c9611c25565b8383612237565b5050565b6116e56116df611c25565b83611d28565b611724576040517f08c379a000000000000000000000000000000000000000000000000000000000815260040161171b90613a19565b60405180910390fd5b611730848484846123a3565b50505050565b606061174182611bda565b600061174b6123ff565b9050600081511161176b5760405180602001604052806000815250611796565b8061177584612416565b604051602001611786929190613e47565b6040516020818303038152906040525b915050919050565b60006117aa6007611ce6565b60006117b66007611cfc565b90506040518060c001604052808781526020018473ffffffffffffffffffffffffffffffffffffffff1681526020018681526020016000815260200185815260200160001515815250600a60008881526020019081526020016000206000820151816000015560208201518160010160006101000a81548173ffffffffffffffffffffffffffffffffffffffff021916908373ffffffffffffffffffffffffffffffffffffffff160217905550604082015181600201908051906020019061187f929190612aa6565b506060820151816003015560808201518160040190805190602001906118a6929190612aa6565b5060a08201518160050160006101000a81548160ff02191690831515021790555090505080915050949350505050565b6000600954905090565b6000600560008473ffffffffffffffffffffffffffffffffffffffff1673ffffffffffffffffffffffffffffffffffffffff16815260200190815260200160002060008373ffffffffffffffffffffffffffffffffffffffff1673ffffffffffffffffffffffffffffffffffffffff16815260200190815260200160002060009054906101000a900460ff16905092915050565b61197c6120f3565b600073ffffffffffffffffffffffffffffffffffffffff168173ffffffffffffffffffffffffffffffffffffffff16036119eb576040517f08c379a00000000000000000000000000000000000000000000000000000000081526004016119e290613edd565b60405180910390fd5b6119f481612171565b50565b600a6020528060005260406000206000915090508060000154908060010160009054906101000a900473ffffffffffffffffffffffffffffffffffffffff1690806002018054611a4690613547565b80601f0160208091040260200160405190810160405280929190818152602001828054611a7290613547565b8015611abf5780601f10611a9457610100808354040283529160200191611abf565b820191906000526020600020905b815481529060010190602001808311611aa257829003601f168201915b505050505090806003015490806004018054611ada90613547565b80601f0160208091040260200160405190810160405280929190818152602001828054611b0690613547565b8015611b535780601f10611b2857610100808354040283529160200191611b53565b820191906000526020600020905b815481529060010190602001808311611b3657829003601f168201915b5050505050908060050160009054906101000a900460ff16905086565b60007f01ffc9a7000000000000000000000000000000000000000000000000000000007bffffffffffffffffffffffffffffffffffffffffffffffffffffffff1916827bffffffffffffffffffffffffffffffffffffffffffffffffffffffff1916149050919050565b611be3816124e4565b611c22576040517f08c379a0000000000000000000000000000000000000000000000000000000008152600401611c1990613bef565b60405180910390fd5b50565b600033905090565b816004600083815260200190815260200160002060006101000a81548173ffffffffffffffffffffffffffffffffffffffff021916908373ffffffffffffffffffffffffffffffffffffffff160217905550808273ffffffffffffffffffffffffffffffffffffffff16611ca0836112e9565b73ffffffffffffffffffffffffffffffffffffffff167f8c5be1e5ebec7d5bd14f71427d1e84f3dd0314c0f7b2291e5b200ac8c7c3b92560405160405180910390a45050565b6001816000016000828254019250508190555050565b600081600001549050919050565b611d24828260405180602001604052806000815250612525565b5050565b600080611d34836112e9565b90508073ffffffffffffffffffffffffffffffffffffffff168473ffffffffffffffffffffffffffffffffffffffff161480611d765750611d7581856118e0565b5b80611db457508373ffffffffffffffffffffffffffffffffffffffff16611d9c846107c2565b73ffffffffffffffffffffffffffffffffffffffff16145b91505092915050565b8273ffffffffffffffffffffffffffffffffffffffff16611ddd826112e9565b73ffffffffffffffffffffffffffffffffffffffff1614611e33576040517f08c379a0000000000000000000000000000000000000000000000000000000008152600401611e2a90613f6f565b60405180910390fd5b600073ffffffffffffffffffffffffffffffffffffffff168273ffffffffffffffffffffffffffffffffffffffff1603611ea2576040517f08c379a0000000000000000000000000000000000000000000000000000000008152600401611e9990614001565b60405180910390fd5b611eaf8383836001612580565b8273ffffffffffffffffffffffffffffffffffffffff16611ecf826112e9565b73ffffffffffffffffffffffffffffffffffffffff1614611f25576040517f08c379a0000000000000000000000000000000000000000000000000000000008152600401611f1c90613f6f565b60405180910390fd5b6004600082815260200190815260200160002060006101000a81549073ffffffffffffffffffffffffffffffffffffffff02191690556001600360008573ffffffffffffffffffffffffffffffffffffffff1673ffffffffffffffffffffffffffffffffffffffff168152602001908152602001600020600082825403925050819055506001600360008473ffffffffffffffffffffffffffffffffffffffff1673ffffffffffffffffffffffffffffffffffffffff16815260200190815260200160002060008282540192505081905550816002600083815260200190815260200160002060006101000a81548173ffffffffffffffffffffffffffffffffffffffff021916908373ffffffffffffffffffffffffffffffffffffffff160217905550808273ffffffffffffffffffffffffffffffffffffffff168473ffffffffffffffffffffffffffffffffffffffff167fddf252ad1be2c89b69c2b068fc378daa952ba7f163c4a11628f55a4df523b3ef60405160405180910390a46120b18383836001612586565b505050565b60006002600083815260200190815260200160002060009054906101000a900473ffffffffffffffffffffffffffffffffffffffff169050919050565b6120fb611c25565b73ffffffffffffffffffffffffffffffffffffffff16612119611452565b73ffffffffffffffffffffffffffffffffffffffff161461216f576040517f08c379a00000000000000000000000000000000000000000000000000000000081526004016121669061406d565b60405180910390fd5b565b6000600660009054906101000a900473ffffffffffffffffffffffffffffffffffffffff16905081600660006101000a81548173ffffffffffffffffffffffffffffffffffffffff021916908373ffffffffffffffffffffffffffffffffffffffff1602179055508173ffffffffffffffffffffffffffffffffffffffff168173ffffffffffffffffffffffffffffffffffffffff167f8be0079c531659141344cd1fd0a4f28419497f9722a3daafe3b4186f6b6457e060405160405180910390a35050565b8173ffffffffffffffffffffffffffffffffffffffff168373ffffffffffffffffffffffffffffffffffffffff16036122a5576040517f08c379a000000000000000000000000000000000000000000000000000000000815260040161229c906140d9565b60405180910390fd5b80600560008573ffffffffffffffffffffffffffffffffffffffff1673ffffffffffffffffffffffffffffffffffffffff16815260200190815260200160002060008473ffffffffffffffffffffffffffffffffffffffff1673ffffffffffffffffffffffffffffffffffffffff16815260200190815260200160002060006101000a81548160ff0219169083151502179055508173ffffffffffffffffffffffffffffffffffffffff168373ffffffffffffffffffffffffffffffffffffffff167f17307eab39ab6107e8899845ad3d59bd9653f200f220920489ca2b5937696c31836040516123969190612c4b565b60405180910390a3505050565b6123ae848484611dbd565b6123ba8484848461258c565b6123f9576040517f08c379a00000000000000000000000000000000000000000000000000000000081526004016123f09061416b565b60405180910390fd5b50505050565b606060405180602001604052806000815250905090565b60606000600161242584612713565b01905060008167ffffffffffffffff8111156124445761244361317b565b5b6040519080825280601f01601f1916602001820160405280156124765781602001600182028036833780820191505090505b509050600082602001820190505b6001156124d9578080600190039150507f3031323334353637383961626364656600000000000000000000000000000000600a86061a8153600a85816124cd576124cc613947565b5b04945060008503612484575b819350505050919050565b60008073ffffffffffffffffffffffffffffffffffffffff16612506836120b6565b73ffffffffffffffffffffffffffffffffffffffff1614159050919050565b61252f8383612866565b61253c600084848461258c565b61257b576040517f08c379a00000000000000000000000000000000000000000000000000000000081526004016125729061416b565b60405180910390fd5b505050565b50505050565b50505050565b60006125ad8473ffffffffffffffffffffffffffffffffffffffff16612a83565b15612706578373ffffffffffffffffffffffffffffffffffffffff1663150b7a026125d6611c25565b8786866040518563ffffffff1660e01b81526004016125f894939291906141e0565b6020604051808303816000875af192505050801561263457506040513d601f19601f820116820180604052508101906126319190614241565b60015b6126b6573d8060008114612664576040519150601f19603f3d011682016040523d82523d6000602084013e612669565b606091505b5060008151036126ae576040517f08c379a00000000000000000000000000000000000000000000000000000000081526004016126a59061416b565b60405180910390fd5b805181602001fd5b63150b7a0260e01b7bffffffffffffffffffffffffffffffffffffffffffffffffffffffff1916817bffffffffffffffffffffffffffffffffffffffffffffffffffffffff19161491505061270b565b600190505b949350505050565b600080600090507a184f03e93ff9f4daa797ed6e38ed64bf6a1f0100000000000000008310612771577a184f03e93ff9f4daa797ed6e38ed64bf6a1f010000000000000000838161276757612766613947565b5b0492506040810190505b6d04ee2d6d415b85acef810000000083106127ae576d04ee2d6d415b85acef810000000083816127a4576127a3613947565b5b0492506020810190505b662386f26fc1000083106127dd57662386f26fc1000083816127d3576127d2613947565b5b0492506010810190505b6305f5e1008310612806576305f5e10083816127fc576127fb613947565b5b0492506008810190505b612710831061282b57612710838161282157612820613947565b5b0492506004810190505b6064831061284e576064838161284457612843613947565b5b0492506002810190505b600a831061285d576001810190505b80915050919050565b600073ffffffffffffffffffffffffffffffffffffffff168273ffffffffffffffffffffffffffffffffffffffff16036128d5576040517f08c379a00000000000000000000000000000000000000000000000000000000081526004016128cc906142ba565b60405180910390fd5b6128de816124e4565b1561291e576040517f08c379a000000000000000000000000000000000000000000000000000000000815260040161291590614326565b60405180910390fd5b61292c600083836001612580565b612935816124e4565b15612975576040517f08c379a000000000000000000000000000000000000000000000000000000000815260040161296c90614326565b60405180910390fd5b6001600360008473ffffffffffffffffffffffffffffffffffffffff1673ffffffffffffffffffffffffffffffffffffffff16815260200190815260200160002060008282540192505081905550816002600083815260200190815260200160002060006101000a81548173ffffffffffffffffffffffffffffffffffffffff021916908373ffffffffffffffffffffffffffffffffffffffff160217905550808273ffffffffffffffffffffffffffffffffffffffff16600073ffffffffffffffffffffffffffffffffffffffff167fddf252ad1be2c89b69c2b068fc378daa952ba7f163c4a11628f55a4df523b3ef60405160405180910390a4612a7f600083836001612586565b5050565b6000808273ffffffffffffffffffffffffffffffffffffffff163b119050919050565b828054612ab290613547565b90600052602060002090601f016020900481019282612ad45760008555612b1b565b82601f10612aed57805160ff1916838001178555612b1b565b82800160010185558215612b1b579182015b82811115612b1a578251825591602001919060010190612aff565b5b509050612b289190612b7a565b5090565b6040518060c0016040528060008152602001600073ffffffffffffffffffffffffffffffffffffffff1681526020016060815260200160008152602001606081526020016000151581525090565b5b80821115612b93576000816000905550600101612b7b565b5090565b6000604051905090565b600080fd5b600080fd5b60007fffffffff0000000000000000000000000000000000000000000000000000000082169050919050565b612be081612bab565b8114612beb57600080fd5b50565b600081359050612bfd81612bd7565b92915050565b600060208284031215612c1957612c18612ba1565b5b6000612c2784828501612bee565b91505092915050565b60008115159050919050565b612c4581612c30565b82525050565b6000602082019050612c606000830184612c3c565b92915050565b600081519050919050565b600082825260208201905092915050565b60005b83811015612ca0578082015181840152602081019050612c85565b83811115612caf576000848401525b50505050565b6000601f19601f8301169050919050565b6000612cd182612c66565b612cdb8185612c71565b9350612ceb818560208601612c82565b612cf481612cb5565b840191505092915050565b60006020820190508181036000830152612d198184612cc6565b905092915050565b6000819050919050565b612d3481612d21565b8114612d3f57600080fd5b50565b600081359050612d5181612d2b565b92915050565b600060208284031215612d6d57612d6c612ba1565b5b6000612d7b84828501612d42565b91505092915050565b600073ffffffffffffffffffffffffffffffffffffffff82169050919050565b6000612daf82612d84565b9050919050565b612dbf81612da4565b82525050565b6000602082019050612dda6000830184612db6565b92915050565b612de981612da4565b8114612df457600080fd5b50565b600081359050612e0681612de0565b92915050565b60008060408385031215612e2357612e22612ba1565b5b6000612e3185828601612df7565b9250506020612e4285828601612d42565b9150509250929050565b612e5581612d21565b82525050565b6000602082019050612e706000830184612e4c565b92915050565b600080600060608486031215612e8f57612e8e612ba1565b5b6000612e9d86828701612df7565b9350506020612eae86828701612df7565b9250506040612ebf86828701612d42565b9150509250925092565b600080600060608486031215612ee257612ee1612ba1565b5b6000612ef086828701612d42565b9350506020612f0186828701612df7565b9250506040612f1286828701612df7565b9150509250925092565b60008060408385031215612f3357612f32612ba1565b5b6000612f4185828601612d42565b9250506020612f5285828601612df7565b9150509250929050565b612f6581612d21565b82525050565b612f7481612da4565b82525050565b600082825260208201905092915050565b6000612f9682612c66565b612fa08185612f7a565b9350612fb0818560208601612c82565b612fb981612cb5565b840191505092915050565b612fcd81612c30565b82525050565b600060c083016000830151612feb6000860182612f5c565b506020830151612ffe6020860182612f6b565b50604083015184820360408601526130168282612f8b565b915050606083015161302b6060860182612f5c565b50608083015184820360808601526130438282612f8b565b91505060a083015161305860a0860182612fc4565b508091505092915050565b6000602082019050818103600083015261307d8184612fd3565b905092915050565b60006020828403121561309b5761309a612ba1565b5b60006130a984828501612df7565b91505092915050565b6000806000606084860312156130cb576130ca612ba1565b5b60006130d986828701612d42565b93505060206130ea86828701612d42565b92505060406130fb86828701612df7565b9150509250925092565b61310e81612c30565b811461311957600080fd5b50565b60008135905061312b81613105565b92915050565b6000806040838503121561314857613147612ba1565b5b600061315685828601612df7565b92505060206131678582860161311c565b9150509250929050565b600080fd5b600080fd5b7f4e487b7100000000000000000000000000000000000000000000000000000000600052604160045260246000fd5b6131b382612cb5565b810181811067ffffffffffffffff821117156131d2576131d161317b565b5b80604052505050565b60006131e5612b97565b90506131f182826131aa565b919050565b600067ffffffffffffffff8211156132115761321061317b565b5b61321a82612cb5565b9050602081019050919050565b82818337600083830152505050565b6000613249613244846131f6565b6131db565b90508281526020810184848401111561326557613264613176565b5b613270848285613227565b509392505050565b600082601f83011261328d5761328c613171565b5b813561329d848260208601613236565b91505092915050565b600080600080608085870312156132c0576132bf612ba1565b5b60006132ce87828801612df7565b94505060206132df87828801612df7565b93505060406132f087828801612d42565b925050606085013567ffffffffffffffff81111561331157613310612ba6565b5b61331d87828801613278565b91505092959194509250565b600067ffffffffffffffff8211156133445761334361317b565b5b61334d82612cb5565b9050602081019050919050565b600061336d61336884613329565b6131db565b90508281526020810184848401111561338957613388613176565b5b613394848285613227565b509392505050565b600082601f8301126133b1576133b0613171565b5b81356133c184826020860161335a565b91505092915050565b600080600080608085870312156133e4576133e3612ba1565b5b60006133f287828801612d42565b945050602085013567ffffffffffffffff81111561341357613412612ba6565b5b61341f8782880161339c565b935050604085013567ffffffffffffffff8111156134405761343f612ba6565b5b61344c8782880161339c565b925050606061345d87828801612df7565b91505092959194509250565b600080604083850312156134805761347f612ba1565b5b600061348e85828601612df7565b925050602061349f85828601612df7565b9150509250929050565b600060c0820190506134be6000830189612e4c565b6134cb6020830188612db6565b81810360408301526134dd8187612cc6565b90506134ec6060830186612e4c565b81810360808301526134fe8185612cc6565b905061350d60a0830184612c3c565b979650505050505050565b7f4e487b7100000000000000000000000000000000000000000000000000000000600052602260045260246000fd5b6000600282049050600182168061355f57607f821691505b60208210810361357257613571613518565b5b50919050565b7f4552433732313a20617070726f76616c20746f2063757272656e74206f776e6560008201527f7200000000000000000000000000000000000000000000000000000000000000602082015250565b60006135d4602183612c71565b91506135df82613578565b604082019050919050565b60006020820190508181036000830152613603816135c7565b9050919050565b7f4552433732313a20617070726f76652063616c6c6572206973206e6f7420746f60008201527f6b656e206f776e6572206f7220617070726f76656420666f7220616c6c000000602082015250565b6000613666603d83612c71565b91506136718261360a565b604082019050919050565b6000602082019050818103600083015261369581613659565b9050919050565b7f546865204e4654206e6565647320746f206265206c697374656420746f20626560008201527f2070757263686173656400000000000000000000000000000000000000000000602082015250565b60006136f8602a83612c71565b91506137038261369c565b604082019050919050565b60006020820190508181036000830152613727816136eb565b9050919050565b7f546865204e4654206d7573742065786973740000000000000000000000000000600082015250565b6000613764601283612c71565b915061376f8261372e565b602082019050919050565b6000602082019050818103600083015261379381613757565b9050919050565b7f41204e46542063616e206e6f742062652070757263686173656420627920746860008201527f65206f776e657200000000000000000000000000000000000000000000000000602082015250565b60006137f6602783612c71565b91506138018261379a565b604082019050919050565b60006020820190508181036000830152613825816137e9565b9050919050565b7f54686520627579657220646f6573206e6f74206861766520656e6f756768206d60008201527f6f6e657900000000000000000000000000000000000000000000000000000000602082015250565b6000613888602483612c71565b91506138938261382c565b604082019050919050565b600060208201905081810360008301526138b78161387b565b9050919050565b7f4e487b7100000000000000000000000000000000000000000000000000000000600052601160045260246000fd5b60006138f882612d21565b915061390383612d21565b9250817fffffffffffffffffffffffffffffffffffffffffffffffffffffffffffffffff048311821515161561393c5761393b6138be565b5b828202905092915050565b7f4e487b7100000000000000000000000000000000000000000000000000000000600052601260045260246000fd5b600061398182612d21565b915061398c83612d21565b92508261399c5761399b613947565b5b828204905092915050565b7f4552433732313a2063616c6c6572206973206e6f7420746f6b656e206f776e6560008201527f72206f7220617070726f76656400000000000000000000000000000000000000602082015250565b6000613a03602d83612c71565b9150613a0e826139a7565b604082019050919050565b60006020820190508181036000830152613a32816139f6565b9050919050565b7f43757272656e74207573657220646f206e6f74206f776e2074686973204e4654600082015250565b6000613a6f602083612c71565b9150613a7a82613a39565b602082019050919050565b60006020820190508181036000830152613a9e81613a62565b9050919050565b7f546865204e46542063616e206f6e6c792062652072656d6f766564206279206f60008201527f776e657200000000000000000000000000000000000000000000000000000000602082015250565b6000613b01602483612c71565b9150613b0c82613aa5565b604082019050919050565b60006020820190508181036000830152613b3081613af4565b9050919050565b7f546865204e465420686173206e6f74206265656e206c69737465642079657400600082015250565b6000613b6d601f83612c71565b9150613b7882613b37565b602082019050919050565b60006020820190508181036000830152613b9c81613b60565b9050919050565b7f4552433732313a20696e76616c696420746f6b656e2049440000000000000000600082015250565b6000613bd9601883612c71565b9150613be482613ba3565b602082019050919050565b60006020820190508181036000830152613c0881613bcc565b9050919050565b7f4552433732313a2061646472657373207a65726f206973206e6f74206120766160008201527f6c6964206f776e65720000000000000000000000000000000000000000000000602082015250565b6000613c6b602983612c71565b9150613c7682613c0f565b604082019050919050565b60006020820190508181036000830152613c9a81613c5e565b9050919050565b7f546865207072696365206d75737420626520706f736974697665000000000000600082015250565b6000613cd7601a83612c71565b9150613ce282613ca1565b602082019050919050565b60006020820190508181036000830152613d0681613cca565b9050919050565b7f4f6e6c7920746865206f6e7765722063616e206c6973742061204e465420666f60008201527f722073616c650000000000000000000000000000000000000000000000000000602082015250565b6000613d69602683612c71565b9150613d7482613d0d565b604082019050919050565b60006020820190508181036000830152613d9881613d5c565b9050919050565b7f546865204e465420697320616c7265616479206c697374656400000000000000600082015250565b6000613dd5601983612c71565b9150613de082613d9f565b602082019050919050565b60006020820190508181036000830152613e0481613dc8565b9050919050565b600081905092915050565b6000613e2182612c66565b613e2b8185613e0b565b9350613e3b818560208601612c82565b80840191505092915050565b6000613e538285613e16565b9150613e5f8284613e16565b91508190509392505050565b7f4f776e61626c653a206e6577206f776e657220697320746865207a65726f206160008201527f6464726573730000000000000000000000000000000000000000000000000000602082015250565b6000613ec7602683612c71565b9150613ed282613e6b565b604082019050919050565b60006020820190508181036000830152613ef681613eba565b9050919050565b7f4552433732313a207472616e736665722066726f6d20696e636f72726563742060008201527f6f776e6572000000000000000000000000000000000000000000000000000000602082015250565b6000613f59602583612c71565b9150613f6482613efd565b604082019050919050565b60006020820190508181036000830152613f8881613f4c565b9050919050565b7f4552433732313a207472616e7366657220746f20746865207a65726f2061646460008201527f7265737300000000000000000000000000000000000000000000000000000000602082015250565b6000613feb602483612c71565b9150613ff682613f8f565b604082019050919050565b6000602082019050818103600083015261401a81613fde565b9050919050565b7f4f776e61626c653a2063616c6c6572206973206e6f7420746865206f776e6572600082015250565b6000614057602083612c71565b915061406282614021565b602082019050919050565b600060208201905081810360008301526140868161404a565b9050919050565b7f4552433732313a20617070726f766520746f2063616c6c657200000000000000600082015250565b60006140c3601983612c71565b91506140ce8261408d565b602082019050919050565b600060208201905081810360008301526140f2816140b6565b9050919050565b7f4552433732313a207472616e7366657220746f206e6f6e20455243373231526560008201527f63656976657220696d706c656d656e7465720000000000000000000000000000602082015250565b6000614155603283612c71565b9150614160826140f9565b604082019050919050565b6000602082019050818103600083015261418481614148565b9050919050565b600081519050919050565b600082825260208201905092915050565b60006141b28261418b565b6141bc8185614196565b93506141cc818560208601612c82565b6141d581612cb5565b840191505092915050565b60006080820190506141f56000830187612db6565b6142026020830186612db6565b61420f6040830185612e4c565b818103606083015261422181846141a7565b905095945050505050565b60008151905061423b81612bd7565b92915050565b60006020828403121561425757614256612ba1565b5b60006142658482850161422c565b91505092915050565b7f4552433732313a206d696e7420746f20746865207a65726f2061646472657373600082015250565b60006142a4602083612c71565b91506142af8261426e565b602082019050919050565b600060208201905081810360008301526142d381614297565b9050919050565b7f4552433732313a20746f6b656e20616c7265616479206d696e74656400000000600082015250565b6000614310601c83612c71565b915061431b826142da565b602082019050919050565b6000602082019050818103600083015261433f81614303565b905091905056fea26469706673582212209521e1143bf669232802c5b4df37c3e2ab8afe8d6875561e7b970a5c5573472864736f6c634300080d0033",
  "immutableReferences": {},
  "source": "// SPDX-License-Identifier: UNLICENSED\npragma solidity ^0.8.13;\n\nimport \"@openzeppelin/contracts/utils/Counters.sol\";\nimport \"@openzeppelin/contracts/token/ERC721/ERC721.sol\";\nimport \"@openzeppelin/contracts/access/Ownable.sol\";\n\ncontract NFTMarketplace is ERC721, Ownable{\n    using Counters for Counters.Counter;\n    Counters.Counter private _marketTokenCounts;\n\n    // The structure to store info about a NFT in blockchain\n    struct NFT {\n        uint id;\n        address owner;\n        string name;\n        uint price;\n        string description;\n        bool is_listed;\n    }\n\n    address payable private marketOwner;\n    uint private royalty_percentage;\n\n    //mapping from token id to token information\n    mapping(uint => NFT) public idToToken;\n\n    //mapping from a user address to user's fund\n    mapping(address => uint) public userFunds;\n\n    constructor(string memory name, string memory symbol, uint percentage) ERC721(name, symbol){\n        royalty_percentage = percentage;\n        marketOwner = payable(msg.sender);\n    }\n\n    // Get NFT\n    function getNFT(uint id) public view returns (NFT memory) {\n        return idToToken[id];\n    }\n\n    // Get commision percentage\n    function commissionPercentage() public view returns (uint) {\n        return royalty_percentage;\n    }\n\n    // mint a new NFT and returns the id\n    function mintNFT() public returns (uint) {\n        // increment the tokenId counter, which is keep track of the number of mined NFTs\n        _marketTokenCounts.increment();\n        uint newTokenId = _marketTokenCounts.current();\n        _safeMint(msg.sender, newTokenId);\n        idToToken[newTokenId] = NFT(\n            newTokenId, \n            msg.sender, \n            \"NULL\", \n            0 , \n            \"NULL\", \n            false\n            );\n        return newTokenId;\n    }\n\n    // Create NFT\n    function createNFT(uint id, string memory name, string memory description, address user_address) public payable returns (uint){\n        _marketTokenCounts.increment();\n        uint newTokenId = _marketTokenCounts.current();\n        // _safeMint(user_address, id);\n        idToToken[id] = NFT(\n            id,\n            user_address,\n            name,\n            0,\n            description,\n            false\n        );\n        return newTokenId;\n    }\n\n    // transfer NFT function\n    function transferNFT(uint id, address fromAddress, address toAddress) public payable{\n        NFT storage item = idToToken[id];\n        require(item.id == id, \"The NFT must exist\");\n        require(ownerOf(id) == msg.sender, \"Current user do not own this NFT\");\n        //update the details of the token\n        idToToken[id].is_listed = false;\n        idToToken[id].owner = toAddress;\n        //Actually transfer the token to the new owner\n        safeTransferFrom(fromAddress, toAddress, id);\n    }\n\n    // list NFT for sale\n    function listNFTForSale(uint id, uint price, address user_address) public {\n        NFT storage item = idToToken[id];\n        require(item.id == id, \"The NFT must exist\");\n        require(price > 0, \"The price must be positive\");\n        require(item.owner == user_address, \"Only the onwer can list a NFT for sale\");\n        require(!item.is_listed, \"The NFT is already listed\");\n        item.is_listed = true;\n        item.price = price;\n    }\n\n    // remove NFT From sale\n    function removeNFTFromSale(uint id, address user_address) public {\n        NFT storage item = idToToken[id];\n        require(item.id == id, \"The NFT must exist\");\n        require(item.owner == user_address, \"The NFT can only be removed by owner\");\n        require(item.is_listed, \"The NFT has not been listed yet\");\n        item.is_listed = false;\n    }\n\n    function purchaseNFT(uint id) public payable {\n        NFT storage item = idToToken[id];\n        require(item.is_listed, \"The NFT needs to be listed to be purchased\");\n        require(item.id == id, \"The NFT must exist\");\n        require(item.owner != msg.sender, \"A NFT can not be purchased by the owner\");\n        require(msg.value >= item.price, \"The buyer does not have enough money\");\n\n        // transfer money to seller and market owner\n        address payable seller = payable(item.owner);\n        uint256 sale_amount = item.price;\n        uint256 royalty_fee = sale_amount * (royalty_percentage) / 100;\n        seller.transfer(sale_amount);\n        marketOwner.transfer(royalty_fee);\n\n        //Actually transfer the NFT to the new owner\n        item.is_listed = false;\n        item.price = 0;\n        item.owner = msg.sender;\n        safeTransferFrom(seller, msg.sender, id);\n    }\n}\n",
  "sourcePath": "/Users/haohsinhsu/Desktop/ELEN6883-FinalProject/contracts/NFTMarketplace.sol",
  "compiler": {
    "name": "solc",
    "version": "0.8.13+commit.abaa5c0e.Emscripten.clang"
  },
  "schemaVersion": "3.4.13",
  "updatedAt": "2023-05-07T04:58:17.806Z",
  "devdoc": {
    "kind": "dev",
    "methods": {
      "approve(address,uint256)": {
        "details": "See {IERC721-approve}."
      },
      "balanceOf(address)": {
        "details": "See {IERC721-balanceOf}."
      },
      "getApproved(uint256)": {
        "details": "See {IERC721-getApproved}."
      },
      "isApprovedForAll(address,address)": {
        "details": "See {IERC721-isApprovedForAll}."
      },
      "name()": {
        "details": "See {IERC721Metadata-name}."
      },
      "owner()": {
        "details": "Returns the address of the current owner."
      },
      "ownerOf(uint256)": {
        "details": "See {IERC721-ownerOf}."
      },
      "renounceOwnership()": {
        "details": "Leaves the contract without owner. It will not be possible to call `onlyOwner` functions anymore. Can only be called by the current owner. NOTE: Renouncing ownership will leave the contract without an owner, thereby removing any functionality that is only available to the owner."
      },
      "safeTransferFrom(address,address,uint256)": {
        "details": "See {IERC721-safeTransferFrom}."
      },
      "safeTransferFrom(address,address,uint256,bytes)": {
        "details": "See {IERC721-safeTransferFrom}."
      },
      "setApprovalForAll(address,bool)": {
        "details": "See {IERC721-setApprovalForAll}."
      },
      "supportsInterface(bytes4)": {
        "details": "See {IERC165-supportsInterface}."
      },
      "symbol()": {
        "details": "See {IERC721Metadata-symbol}."
      },
      "tokenURI(uint256)": {
        "details": "See {IERC721Metadata-tokenURI}."
      },
      "transferFrom(address,address,uint256)": {
        "details": "See {IERC721-transferFrom}."
      },
      "transferOwnership(address)": {
        "details": "Transfers ownership of the contract to a new account (`newOwner`). Can only be called by the current owner."
      }
    },
    "version": 1
  },
  "userdoc": {
    "kind": "user",
    "methods": {},
    "version": 1
  }
}